:020000042000DA
:10000000000401209D010020C302002065020020A1
:10001000C1020020E50100200104002000000000D2
:10002000000000000000000000000000E5020020C9
:10003000E701002000000000C5020020A10300200D
:10004000B7010020B7010020B7010020B701002050
:10005000B7010020B7010020B7010020B701002040
:10006000B7010020B7010020B7010020B701002030
:10007000B7010020B7010020B7010020B701002020
:10008000B7010020B7010020B7010020B701002010
:10009000B7010020B7010020B7010020B701002000
:1000A000B7010020B7010020B7010020B7010020F0
:1000B000B7010020B7010020B7010020B7010020E0
:1000C000B7010020B7010020B7010020B7010020D0
:1000D000B7010020B7010020B7010020B7010020C0
:1000E000B7010020B7010020B7010020B7010020B0
:1000F000B7010020B7010020B7010020B7010020A0
:10010000B7010020B7010020B7010020B70100208F
:10011000B7010020B7010020B7010020B70100207F
:10012000B7010020B7010020B7010020B70100206F
:10013000B7010020B7010020B7010020B70100205F
:10014000B7010020B7010020B7010020B70100204F
:10015000B7010020B7010020B7010020B70100203F
:10016000B7010020B7010020B7010020B70100202F
:10017000B7010020B7010020B7010020B70100201F
:10018000B7010020B7010020DFF80CD000F018F80C
:100190000048004721040020000401200648804751
:1001A00006480047FEE7FEE7FEE7FEE7FEE7FEE75C
:1001B000FEE7FEE7FEE7FEE7A50300208901002039
:1001C000064C074D06E0E06840F0010394E80700A4
:1001D00098471034AC42F6D3FFF7DAFF3C04002016
:1001E0004C040020FEE770472DE9F0410022012772
:1001F0004FF0030C07FA02F50B682B40AB422CD1F1
:10020000066853000CFA03F4A64306600E79D0F892
:1002100000809E4046EA080606600E79012E01D055
:10022000022E12D18668A64386604E79D0F80880E7
:100230009E4046EA080686604668AE4346604568CA
:100240008E799640B6B235434560C568A543C56012
:10025000CC799C40C3681C43C460521C102AC9D38B
:10026000BDE8F081FEE700002DE9FC4101212020DE
:1002700000F02AF84024009401208DF804000021A9
:100280008DF806108DF807008DF805100B4F6946A4
:100290003846FFF7A9FF8026009669463846FFF7E3
:1002A000A3FFA500009569463846FFF79DFF034868
:1002B0001830048006800580BDE8FC8100140240EF
:1002C000FEE7704770470000054A002903D0116817
:1002D000014311607047116881431160704700004D
:1002E00030380240704700000CB5002201920092A5
:1002F0002749086840F4803008604FF4A04308683C
:1003000000F4003000900198401C0190009810B952
:1003100001989842F3D10868800302D5012000902B
:1003200000E000920098012831D11948403002685D
:1003300042F0805202601748026842F44042026074
:100340001348083002680260026842F4004202600A
:10035000026842F4A0520260021F0F4B13600A6849
:1003600042F080720A600A689201FCD50B4A40F2A2
:1003700005711160016821F003010160016841F01D
:10038000020101600168C1F381010229FAD10CBDAB
:10039000003802400070004019544007003C024001
:1003A0007047000010B51248016841F47001016007
:1003B0001048016841F0010101600E4A0021083235
:1003C000116002680C4B1A400260031D0B4A1A6050
:1003D000026822F48022026006480C300160FFF7B8
:1003E00083FF03494FF000608039086010BD0000B2
:1003F00088ED00E000380240FFFFF6FE10300024D8
:10040000FEE702E008C8121F08C1002AFAD17047AF
:100410007047002001E001C1121F002AFBD1704784
:10042000FFF722FF04494020088003488021801EF6
:10043000018081150180FEE71A1402404C0400205F
:0C04400000000120000400001204002055
:04000005200001894D
:00000001FF
