:020000040800F2
:10000000000400209D010008370300087302000867
:1000100035030008E5010008750400080000000031
:10002000000000000000000000000000590300086C
:10003000E70100080000000039030008150400086B
:10004000B7010008B7010008B7010008B7010008B0
:10005000B7010008B7010008B7010008B7010008A0
:10006000B7010008B7010008B7010008B701000890
:10007000B7010008B7010008B7010008B701000880
:10008000B7010008B7010008B7010008B701000870
:10009000B7010008B7010008B7010008B701000860
:1000A000B7010008B7010008B7010008B701000850
:1000B000B7010008B7010008B7010008B701000840
:1000C000B7010008B7010008B7010008B701000830
:1000D000B7010008B7010008B7010008B701000820
:1000E000B7010008B7010008B7010008B701000810
:1000F000B7010008B7010008B7010008B701000800
:10010000B7010008B7010008B7010008B7010008EF
:10011000B7010008B7010008B7010008B7010008DF
:10012000B7010008B7010008B7010008B7010008CF
:10013000B7010008B7010008B7010008B7010008BF
:10014000B7010008B7010008B7010008B7010008AF
:10015000B7010008B7010008B7010008B70100089F
:10016000B7010008B7010008B7010008B70100088F
:10017000B7010008B7010008B7010008B70100087F
:10018000B7010008B7010008DFF80CD000F018F83C
:1001900000480047950400080004002006488047F6
:1001A00006480047FEE7FEE7FEE7FEE7FEE7FEE75C
:1001B000FEE7FEE7FEE7FEE71904000889010008F4
:1001C000064C074D06E0E06840F0010394E80700A4
:1001D00098471034AC42F6D3FFF7DAFFDC0400088E
:1001E000EC040008FEE770472DE9F04100220127EA
:1001F0004FF0030C07FA02F50B682B40AB422CD1F1
:10020000066853000CFA03F4A64306600E79D0F892
:1002100000809E4046EA080606600E79012E01D055
:10022000022E12D18668A64386604E79D0F80880E7
:100230009E4046EA080686604668AE4346604568CA
:100240008E799640B6B235434560C568A543C56012
:10025000CC799C40C3681C43C460521C102AC9D38B
:10026000BDE8F0810246002012690A4200D0012058
:100270007047FEE71CB50121052000F05FF8012062
:10028000009000248DF804408DF807406946074827
:10029000FFF7AAFF4FF4005000908DF804408DF84E
:1002A000074069460248FFF79FFF1CBD000002405F
:1002B0000008024070B504460D4629462046FFF767
:1002C000D1FF012801D0002070BD29462046FFF74C
:1002D000C9FF0128F9D0012070BD00002DE9FC41C3
:1002E0000121202000F02AF84024009401208DF8FC
:1002F000040000218DF806108DF807008DF8051018
:100300000B4F69463846FFF76FFF80260096694617
:100310003846FFF769FFA500009569463846FFF7A4
:1003200063FF03481830048006800580BDE8FC8127
:1003300000140240FEE7704770470000054A00299C
:1003400003D0116801431160704711688143116047
:100350007047000030380240704700000CB50022A2
:10036000019200922749086840F4803008604FF4F9
:10037000A043086800F4003000900198401C0190F0
:10038000009810B901989842F3D10868800302D50B
:100390000120009000E000920098012831D1194816
:1003A0004030026842F0805202601748026842F40E
:1003B000404202601348083002680260026842F45A
:1003C00000420260026842F4A0520260021F0F4B1A
:1003D00013600A6842F080720A600A689201FCD5D4
:1003E0000B4A40F205711160016821F003010160C0
:1003F000016841F0020101600168C1F38101022935
:10040000FAD10CBD0038024000700040195440077A
:10041000003C02407047000010B51248016841F4EA
:10042000700101601048016841F0010101600E4A4D
:1004300000210832116002680C4B1A400260031D53
:100440000B4A1A60026822F48022026006480C30CF
:100450000160FFF783FF03494FF0006080390860B7
:1004600010BD000088ED00E000380240FFFFF6FEFE
:1004700010300024FEE702E008C8121F08C1002A5D
:10048000FAD170477047002001E001C1121F002A15
:10049000FBD17047FFF722FFFFF7ECFE0C4D0D4F2D
:1004A0000D4C4FF4005601212846FFF703FF0128A9
:1004B00003D1206880F04000206031463846FFF7C5
:1004C000F9FE0128EFD1206880F080002060EAE783
:1004D000000002400008024014140240EC0400082E
:0C04E0000000002000040000860400085A
:040000050800018965
:00000001FF
