:0300000002009A61
:0C009A00787FE4F6D8FD75810802006F45
:0D008D00438920758DFD758BFD4398502231
:0800B1008F993099FDC29922DC
:0800B9003098FDC298AF9922B6
:0B00A600AD07AC06EC42B7ED42B822FB
:10006F00E4F50812008DD28E43A890E4F5087F6165
:0E007F001200B10508E508C3940A40F280FEA5
:03000300020006F2
:0100060032C7
:03000B00020007E9
:0100070032C6
:03001300020008E0
:0100080032C5
:03001B00020009D7
:0100090032C4
:0300230002002EAA
:10002E00C0E0C0F0C083C082C0D075D000C000C098
:10003E0001C002C003C004C005C006C00730980648
:10004E001200B91200B1D007D006D005D004D003EB
:10005E00D002D001D000D0D0D082D083D0F0D0E06A
:01006E00325F
:03002B0002000AC6
:01000A0032C3
:00000001FF
