:020000040800F2
:10000000680400209D010008370F0008450800081B
:10001000350F00080D0700083D1200080000000021
:100020000000000000000000000000003510000883
:100030000F07000800000000390F0008F110000849
:10004000B7010008B7010008B7010008B7010008B0
:10005000B7010008B7010008B7010008B7010008A0
:10006000B7010008B7010008B7010008B701000890
:10007000B7010008B7010008B7010008B701000880
:10008000B7010008B7010008B7010008B701000870
:10009000B7010008B7010008B7010008B701000860
:1000A000B7010008B7010008B7010008B701000850
:1000B000B7010008B7010008B7010008B701000840
:1000C000B7010008B7010008B7010008B701000830
:1000D000B7010008B7010008B7010008B701000820
:1000E000B7010008B7010008B7010008B701000810
:1000F000B7010008B7010008B7010008B701000800
:10010000B7010008B7010008B7010008B7010008EF
:10011000B7010008B7010008B7010008B7010008DF
:10012000B7010008B7010008B7010008B7010008CF
:10013000B7010008B7010008B7010008B7010008BF
:10014000B7010008B7010008B7010008B7010008AF
:10015000B7010008B7010008B7010008B70100089F
:10016000B7010008B7010008B7010008B70100088F
:10017000B7010008B7010008B7010008B70100087F
:10018000B7010008B7010008DFF80CD000F01EFA34
:1001900000480047391B00086804002006488047D3
:1001A00006480047FEE7FEE7FEE7FEE7FEE7FEE75C
:1001B000FEE7FEE7FEE7FEE7F5100008890100080C
:1001C000421C10F8011B0029FBD1801A704730B582
:1001D0000B46014600202022012409E021FA02F505
:1001E0009D4205D303FA02F5491B04FA02F528449F
:1001F000151EA2F10102F1DC30BD2DE9F05F0546CC
:10020000002092469B4688460646814640241BE0D5
:10021000284641464746224600F0F9F953465A46D9
:10022000C01A914110D311461846224600F0E0F959
:100230002D1A67EB01084F4622460120002100F0ED
:10024000D7F917EB00094E41201EA4F10104DFDCB1
:10025000484631462A464346BDE8F09F2DE9FE4F09
:10026000804681EA0300C00F0C46009021F0004157
:1002700023F00045B8EB0200A94105D240462146D3
:1002800090461C460B46024623F00040104347D0E0
:10029000270DC7F30A00C3F30A510290401A0190D8
:1002A00040286BDAC3F3130040F4801B0098924699
:1002B00020B10023D2EB030A63EB0B0B01985946E4
:1002C000C0F14002504600F093F906460D465046F4
:1002D0005946019A00F0ABF910EB08006141002487
:1002E00087EA115284EAE7731A4340D0009A62B356
:1002F000019A012A4FEA075215DC001B61EB02014B
:100300004FF0004202EA0752CDE90042001C41F5DD
:10031000801132462B4600F0ABF903B0BDE8F08FF8
:1003200040462146F9E7001B61EB0201001C41F544
:10033000801300185B412018A2F5001747EB03015A
:1003400040EAD570B6196D4111E06D084FEA3606E6
:1003500045EAC0754FEA0752001B61EB0201001C21
:1003600041F5801149084FEA3000001951413246E9
:100370002B4603B0BDE8F04F00F06BB900980122A6
:1003800040000023D0EB020263EBE07300982146AB
:100390004FEAE074B8EB000061EB0401E9E783F099
:1003A00000435BE781F0004158E72DE9FE4F81EA09
:1003B000030404F0004421F0004100944FF0000BCE
:1003C00023F0004350EA01045ED052EA03045BD0FC
:1003D000C3F30A54C1F30A552C44A4F2F334019434
:1003E000A0FB0254C1F3130141F48011C3F31303C2
:1003F00043F4801301FB024400FB034E840A970A76
:1004000044EA815447EA8357A4FB076802958D0AA2
:1004100005FB07854FEA932C04FB0C542705029D2E
:100420004FEA065847EA1637B5EB08056EEB070C9E
:10043000870E920E47EA811742EA8312A7FB020158
:10044000B6EB0B0164EB00042B0D43EA0C335E1892
:1004500044EB1C50DA465146E7FB0201C5F3130496
:100460004FEA0B3343EA14534FEA0432019C43EA48
:100470000603A4F10C040294009CCDE900B400F042
:10048000F7F803B0BDE8F08F00200146F9E72DE949
:10049000F04D81EA030404F0004B21F000451446BE
:1004A0004FF0000A23F0004150EA050220D054EA40
:1004B00001021DD0C5F30A570246C5F31303C1F369
:1004C0001300C1F30A5640F4801543F48013A7EBE0
:1004D0000608101BD64608F2FD3873EB050002D360
:1004E00008F1010801E092185B41B8F1000F03DA4E
:1004F00000200146BDE8F08D00204FF48011064633
:1005000084460EE0171B73EB050705D3121B63EB44
:10051000050306434CEA010C49084FEA30009218E3
:100520005B4150EA0107EDD152EA030012D082EAA2
:10053000040083EA0501084305D0101BAB4106D235
:100540000122002306E000224FF0004302E06FF09A
:10055000010253101AEB06004CEB085110EB0A0095
:1005600041EB0B01BDE8F04D00F073B8C1F30A5246
:10057000C1F3130140F2FF3341F480119A4202DAD1
:1005800000200146704740F233439A42A2F23342C0
:1005900002DC524200F03BB800F02AB830B5041E2D
:1005A00071F1000404DB4FF00044404264EB0101B0
:1005B000141E73F1000405DB1C464FF00043524249
:1005C00063EB0403994208BF904230BD064C074DCF
:1005D00006E0E06840F0010394E807009847103413
:1005E000AC42F6D3FFF7D4FD7C1E00089C1E000829
:1005F000202A04DB203A00FA02F1002070479140E3
:10060000C2F1200320FA03F3194390407047202AD7
:1006100004DB203A21FA02F00021704721FA02F3AC
:10062000D040C2F120029140084319467047202A69
:1006300006DBCB17203A41FA02F043EAE07306E00A
:1006400041FA02F3D040C2F120029140084319461A
:10065000704710B5141E73F1000408DA401C41F114
:10066000000192185B411A4301D120F0010010BD36
:100670002DE9F04D92469B4611B1B1FA81F202E0AC
:10068000B0FA80F220329046FFF7B2FF04460F46E0
:1006900040EA0A0041EA0B0153465A46084313D088
:1006A000114653EA010019D0C8F140025046FFF745
:1006B000AEFF05460E46504659464246FFF798FFA4
:1006C000084305D0012004E020463946BDE8F08DFE
:1006D0000020054346EAE0762C4337430A98630539
:1006E000E40AA0EB08000022FD0A44EA47540A305D
:1006F00002D500200146E9E7010510196941DDE94D
:10070000084500196941BDE8F04DA2E7FEE77047D2
:1007100070B586B00121084600F010FC01211020C0
:1007200000F028FC1E4E07220A21304600F07AF81D
:1007300007220921304600F075F800248DF8164094
:1007400001208DF8170002258DF814504102049104
:100750008DF8155004A9304600F026F88DF8145095
:100760006802049004A9304600F01EF84FF4E1300E
:100770000090ADF80440ADF80640ADF80840ADF883
:100780000C400C20ADF80A00064C6946204600F0EB
:10079000F3FC0121204600F0DBFC06B070BD000038
:1007A00000000240001001402DE9F0410022012725
:1007B0004FF0030C07FA02F50B682B40AB422CD12B
:1007C000066853000CFA03F4A64306600E79D0F8CD
:1007D00000809E4046EA080606600E79012E01D090
:1007E000022E12D18668A64386604E79D0F8088022
:1007F0009E4046EA080686604668AE434660456805
:100800008E799640B6B235434560C568A543C5604C
:10081000CC799C40C3681C43C460521C102AC9D3C5
:10082000BDE8F08110B54B07DB0E9A40C90800EB1C
:100830008100016A0F249C40A1430162016A1143B7
:10084000016210BDFEE7002904D0018841F48061F7
:1008500001807047018821F4806101807047034660
:1008600000209A8A1B8B1B041A4322F07F4291437B
:1008700000D101207047C94381827047002904D00C
:10088000018841F0010101807047018821F00101D8
:10089000018070472DE9F74F05461446634F4FF42A
:1008A0002048C7F804804FF40036DFF8849108E050
:1008B0007868411E796004D2BDE8FE4F092000F03F
:1008C000EDBA3146484600F035FA0028F0D1012152
:1008D000484600F017FA4FF4805AC7F804A0554E66
:1008E00008E07868411E796004D2BDE8FE4F0A2016
:1008F00000F0D4BA31464846FFF7B1FF0028F0D0E7
:1009000039780022484600F0BEFAC7F804A0DFF8A4
:1009100028B108E07868411E796004D2BDE8FE4F36
:100920000B2000F0BBBA59464846FFF798FF002855
:10093000F0D001214846FFF7A1FF4846019900F099
:10094000ABFAC7F804A0DFF8F0B00BF1020B08E037
:100950007868401E786004D2BDE8FE4F0C2000F09D
:100960009DBA59464846FFF77AFF0028F0D001218A
:10097000484600F0C7F9C7F804A008E07868411EAF
:10098000796004D2BDE8FE4F0D2000F087BA3146F1
:100990004846FFF764FF0028F0D039780122484626
:1009A00000F071FAC7F804A0224E761C08E07868BF
:1009B000411E796004D2BDE8FE4F0E2000F06EBAF1
:1009C00031464846FFF74BFF0028F0D024E0012CC9
:1009D00007D100214846FFF736FF0121484600F0C5
:1009E0009DF9C7F80480134E3F3608E07B68581E17
:1009F000786004D2BDE8FE4F032000F04FBA3146C4
:100A00004846FFF72CFF0028F0D0484600F038FA9F
:100A100005F8010B641EA4B2002CD8D10121484670
:100A2000FFF711FF0120BDE8FE8F00003800002015
:100A30000054004001000300820007002DE9F0414E
:100A400005460C4604F00700C0F10807C2F3C706CC
:100A500002F00708002811D09EB3D01BC0F3C706D0
:100A600000F00708F7B33A462146284600F05CF844
:100A700000F0F0F8E019C4B23D4437E096B94246C0
:100A80002146284600F050F8BDE8F04100F0E2B8F9
:100A900008222146284600F047F800F0DBF8083429
:100AA000E4B20835761EF6B2F2D2B8F1000F2CD0BF
:100AB00042462146284600F037F8BDE8F04100F0F4
:100AC000C9B842462146284600F02EF8BDE8F0415C
:100AD00000F0C0B808222146284600F025F800F0B2
:100AE000B9F800E002E00834E4B20835761EF6B248
:100AF000F0D2B8F1000F08D042462146284600F057
:100B000013F8BDE8F04100F0A5B8BDE8F0810000A1
:100B100010B500F0C9F800F085F90249A02008805E
:100B200010BD0000380000202DE9F04705460F46B3
:100B30001446444E4FF4204070604FF40038DFF804
:100B400008A108E07068411E716004D2BDE8F0475A
:100B5000042000F0A3B94146504600F0EBF800280D
:100B6000F0D10121504600F0CDF84FF48059C6F87D
:100B70000490DFF8D88008E07068411E716004D2EC
:100B8000BDE8F047052000F089B941465046FFF71F
:100B900066FE0028F0D031780022504600F073F94C
:100BA000C6F80490DFF8A88008E07068411E716004
:100BB00004D2BDE8F047062000F070B94146504627
:100BC000FFF74DFE0028F0D039465746384600F072
:100BD00063F9C6F80490DFF8788008F1020808E0AD
:100BE0007068401E706004D2BDE8F047072000F036
:100BF00055B941463846FFF732FE0028F0D016E0DE
:100C00002978384600F048F96D1CC6F8049008E0D1
:100C10007068411E716004D2BDE8F047082000F002
:100C20003DB941463846FFF71AFE0028F0D0641E51
:100C3000E4B2E5D20121384600F070F80120BDE8A9
:100C4000F08700003800002000540040010003003D
:100C50008200070038B500200090104D104C012193
:100C6000284600F04FF81421284600F001F90090C2
:100C700021780022284600F006F91421284600F0C9
:100C8000F7F88007EBD507492846FFF7F4FD28461B
:100C9000BDE83840012100F041B800000054004098
:100CA00038000020000400101CB50121480500F0A8
:100CB00053F90121022000F041F9114C04220821CE
:100CC0002046FFF7AFFD042209212046FFF7AAFDC9
:100CD000A115009102218DF804108DF80510012155
:100CE0008DF8061000218DF8071069462046FFF7A1
:100CF0005BFD6115009169462046FFF755FD1CBD5F
:100D000000040240002904D0018841F48071018070
:100D10007047018821F4807101807047002904D058
:100D2000018841F4007101807047018821F400714D
:100D3000018070470CB50246002000920A0F019214
:100D400021F07F41019A002A03D0009A14320092C8
:100D500003E0090C009A18320092009A12680A42C5
:100D600000D001200CBD00007FB504460D46A088D0
:100D700020F03F06684600F00BF902982749B0FBC7
:100D8000F1F189B20E43A680228822F0010222806E
:100D9000234B2A689A4209D85200B0FBF2F080B285
:100DA000042800D20420491C218423E0EB88A3F509
:100DB0003F46FF3E0BD002EBC20303EB0212B0FB37
:100DC000F2F080B240F48040020506D007E002EB6A
:100DD0004202B0FBF2F080B2F6E740F0010040F4CE
:100DE00000404FF4967251434FF47A72B1FBF2F126
:100DF000491C2184A083208840F0010020802088A5
:100E00004FF6F5310840A9886A89114301432180D2
:100E1000A8892989084320817FBD000040420F0036
:100E2000A08601001FB50020ADF804004BF6FF704E
:100E3000ADF806000A20ADF808004FF48060ADF868
:100E40000A000001ADF80C0007480090074C694605
:100E50002046FFF789FF01212046FFF70FFD012102
:100E60002046FFF7F0FC1FBD801A0600005400402A
:100E700008B500900098084400900098008808BDCC
:100E8000008AC0B27047002A02D041F0010101E09F
:100E900001F0FE01018270470182704710B50146E2
:100EA00002A000F0CDF9002010BD00003C3C2D4513
:100EB0004550524F4D2D4552524F522D3E3E2049E6
:100EC000324320B5C8B4FDB3ACCAB1216572726FAC
:100ED00072436F6465203D2025640A002DE9FC41C2
:100EE0000121202000F02AF84024009401208DF8F0
:100EF000040000218DF806108DF807008DF805100C
:100F00000B4F69463846FFF74FFC8026009669462E
:100F10003846FFF749FCA500009569463846FFF7BB
:100F200043FC03481830048006800580BDE8FC813E
:100F300000140240FEE7704770470000054A002990
:100F400003D011680143116070471168814311603B
:100F50007047000030380240054A002903D011686C
:100F600001431160704711688143116070470000B0
:100F700040380240054A002903D01168014311603E
:100F80007047116881431160704700004438024087
:100F900070B5244B196801F00C01234C00291ED0B8
:100FA000224E04291DD008291DD00460196801F0C3
:100FB000F00109091E4A545C0168E14041601C6867
:100FC00004F4E054A40A145D21FA04F484601B685C
:100FD00003F460435B0BD25CD140C16070BD046020
:100FE000E4E70660E2E70F4A121F1168C1F380557B
:100FF000116801F03F0135B1B6FBF1F11468C4F39B
:101000008814614305E0B4FBF1F11468C4F388145B
:1010100061431268C2F30142521C5200B1FBF2F16B
:101020000160C3E7083802400024F40040787D01E5
:1010300000000020704700000CB5002201920092D1
:101040002749086840F4803008604FF4A0430868DE
:1010500000F4003000900198401C0190009810B9F5
:1010600001989842F3D10868800302D501200090CE
:1010700000E000920098012831D119484030026800
:1010800042F0805202601748026842F44042026017
:101090001348083002680260026842F400420260AD
:1010A000026842F4A0520260021F0F4B13600A68EC
:1010B00042F080720A600A689201FCD50B4A40F245
:1010C00005711160016821F003010160016841F0C0
:1010D000020101600168C1F381010229FAD10CBD4E
:1010E000003802400070004019544007003C0240A4
:1010F0007047000010B51248016841F470010160AA
:101100001048016841F0010101600E4A00210832D7
:10111000116002680C4B1A400260031D0B4A1A60F2
:10112000026822F48022026006480C300160FFF75A
:1011300083FF03494FF000608039086010BD000054
:1011400088ED00E000380240FFFFF6FE103000247A
:10115000002904D0818941F400518181704781893F
:1011600021F40051818170470246002012880A4212
:1011700000D00120704700007FB504460D46208A4C
:1011800020F44051E88808432082A08941F20C6194
:101190008843A9882A8911436A8902431143A1819E
:1011A000A08A20F44071A8890843A0826846FFF70E
:1011B000EFFE1E48844202D01D48844201D10398AC
:1011C00000E00298A189090408D500EBC00101EBF9
:1011D000001029684900B0FBF1F007E000EBC00106
:1011E00001EB001029688900B0FBF1F06422B0FB2C
:1011F000F2F109010B096FF018056B4300EB830056
:10120000A3891D044FF0320307D503EBC000B0FBE8
:10121000F2F000F00700084306E003EB0010B0FB1B
:10122000F2F000F00F00084320817FBD0010014064
:1012300000140140C1F3080181807047FEE70000FF
:101240000FB4054B10B503A9044A029800F0CAF880
:1012500010BC5DF814FB0000151B000840000020C6
:1012600002E008C8121F08C1002AFAD1704770476F
:10127000002001E001C1121F002AFBD170470000CD
:101280002DE9FF5FDDE90220010DDDF838B00243F2
:1012900018D044F61050A1F2FF3141430D140F98BD
:1012A000012820D0A5EB0B00401C5FEA000A4FF09C
:1012B0000004474EDFF81C91A046504616D5CAF1EF
:1012C000000728E00F98012443A2012808D000213C
:1012D00000980F9BC0E90021C0E90243BDE8FF9FD1
:1012E0006FEA0B01F4E7CBF10000DEE7074612E0FE
:1012F000F80707D02246334640464946FFF755F8DF
:10130000804689462246334610461946FFF74DF877
:1013100004460E467F10002FEAD1DDE90201BAF142
:10132000000F42464B4602DAFFF73FF801E0FFF7B5
:10133000AEF804460E460022284BFFF72FF903D8DB
:101340004FF0FF30014607E00022254B2046314692
:10135000FEF784FFFFF70AF9102409E0002C0ADBEE
:101360000A220023FEF749FF019B30321A55641E02
:1013700050EA0102F2D1641C019AC4F11103144431
:101380000F9A012A03D0012208430DD10AE0084335
:1013900004D000204FF0110B0F9080E7A3EB0B055A
:1013A0006D1E0DE05B4504DD4FF0000205F1010507
:1013B00004E003DA4FF00002A5F10105002AECD0A9
:1013C00000980F99C0E90231C0E9004586E70000A6
:1013D000000024400000F03F300000000000F04317
:1013E0000000E03F2DE9FF4F95B09B468946064639
:1013F00000250FE2252877D100242746F84A01214D
:10140000059400E0044316F8013F203B01FA03F085
:101410001042F7D130782A2811D06FF02F0330789E
:10142000A0F13002092A16D8059A44F0020402EB12
:10143000820203EB42021044761C0590EFE759F854
:10144000042B0592002A03DA504244F4005405901C
:1014500044F00204761C30782E2816D116F8010FBD
:1014600044F004042A280DD06FF02F023078A0F148
:101470003003092B09D807EB870302EB4303C71896
:10148000761CF3E759F8047B761C30786C280FD073
:1014900006DC4C2817D068280DD06A2814D104E047
:1014A000742810D07A280FD10DE044F400140AE01B
:1014B00044F4801401E044F440147278824202D172
:1014C00004F58014761C761C307866280BD013DC6B
:1014D000582877D009DC002875D04528F6D0462852
:1014E000F4D047281AD19DE118E0632835D064284C
:1014F00079D0652812D195E1702873D008DC67286F
:10150000F1D069286FD06E280DD06F2806D1B5E0D4
:1015100073282CD0752875D0782874D05A4617991E
:1015200090476D1C75E1C4F30250022809D00328CE
:101530000DD0D9F8001004280DD00D6009F1040970
:1015400067E1D9F80010EA17C1E90052F6E7D9F8C7
:1015500000100D80F2E70D70F0E719F8041B8DF80C
:10156000001000208DF80100EA46012003E059F840
:1015700004AB4FF0FF3061074FF0000102D40DE0E3
:1015800008F101018846B9420FDA8045F8DB1AF804
:1015900008100029F4D108E008F1010188468142D1
:1015A000FADB1AF808100029F6D105985B46A0EB83
:1015B000080721463846179A00F094FA284400EBB1
:1015C000080507E04DE029E10DE01AF8010B5A4645
:1015D00017999047B8F10108F7D25B462146384683
:1015E000179A13E142E00A220092C4F302524FF02C
:1015F000000A022A08D059F804CB032A4FEAEC71FA
:101600000AD00DE029E02AE009F1070121F00702E4
:10161000F2E802C1914609E00FFA8CFC4FEAEC7146
:10162000042A03D14FFA8CFC4FEAEC71002907DA47
:101630000A460021DCF1000C61EB02012D2202E0E0
:10164000220504D52B228DF80420012203E0E207B5
:1016500001D02022F7E7904659E00A2102E010224B
:101660000DE010214FF0000A00910BE010224FF026
:10167000000A44F004040827009203E008224FF017
:10168000000A0092C4F30252022A05D059F804CB92
:101690000021032A08D009E009F1070121F007021F
:1016A000F2E802C1914605E01FFA8CFC042A01D140
:1016B0000CF0FF0C4FF00008220728D5702806D048
:1016C000009B83F0100353EA0A0305D00EE040228A
:1016D0008DF80420012208E05CEA010206D03022E5
:1016E0008DF804208DF8050002229046009B83F0BF
:1016F000080353EA0A030AD15CEA010201D1620736
:1017000005D530228DF804204FF001087F1E58289F
:1017100004D034A003900EA802900DE036A0F9E7A3
:1017200053466046009AFEF768FD84460398825C43
:101730000298401E029002705CEA0100F0D102980B
:1017400006A9081A00F1200A600702D524F48034A3
:1017500000E00127574502DDA7EB0A0000E000206A
:1017600000EB0A01009005984144401A0590E003FF
:1017700006D45B462146179A059800F0B3F9054454
:10178000002706E001A85A46C05D179990476D1CD6
:101790007F1C4745F6DBE0030CD55B462146179AD4
:1017A000059800F09FF9054404E030205A46179947
:1017B00090476D1C0099481E00900029F5DC08E058
:1017C000029802995A460078491C0291179990474D
:1017D0006D1CBAF10001AAF1010AF1DC65E100001B
:1017E00009280100303132333435363738396162F7
:1017F00063646566000000003031323334353637BB
:1018000038394142434445460000000000F058F991
:101810000544761C307800287FF4ECAD19B02846DA
:10182000BDE8F08F620700D4062709F1070222F015
:10183000070CFCE80223E14603F000485FEA080CCD
:1018400002D00FF2702C0DE05FEA045C02D50FF2BB
:10185000682C07E05FEAC47C02D00FF2602C01E044
:10186000AFF2700C4FF0FF3823F00043CDF850C0BA
:1018700065280CD006DC452809D046281DD047280D
:101880003DD13DE0662818D067287ED138E00021A0
:10189000112F01DB112000E0781CCDE9000106A921
:1018A0000EA8FFF7EDFCDDE90F010E9A0391002170
:1018B000009207F1010A04914DE04FF000400097BB
:1018C000CDE9011006A90EA8FFF7DAFCDDE90F0249
:1018D00003920E9B11990022DDF80CA00093049254
:1018E00011B9791C00EB010AB7EB0A0004D4C0F16E
:1018F000FF3007F1010A0490AAEB0700019044E0D1
:10190000012F00DA01270021112F01DD112000E055
:101910003846CDE9000106A90EA8FFF7B1FCDDE9C4
:101920000F010E9A0391002104910092BA462107FB
:101930000CD40399514500DA8A46BAF1010F05DD4E
:10194000009AAAF10101515C302908D0B84202DAAC
:1019500010F1040F06DA0121CDE9011015E0AAF11A
:101960000101E9E7002805DC049901440491AAEB90
:10197000000102E0411C514500DD8A460499401AED
:10198000401C01904FF000400290200704D40198C1
:10199000504501DBCDF8048000208DF84F000298FF
:1019A0000DF14F07B0F1004F25D02B200E9002987B
:1019B0004FF0020800280CDA404202902D200E90D1
:1019C00007E00A210298FEF702FC3031029007F886
:1019D000011DB8F10001A8F10108F2DC029800280D
:1019E000EFD1791E0E980870307800F0200040F09A
:1019F000450007F8020D12A8C01B00F10708149853
:101A0000007800B1012000EB0A01019801EBE071C0
:101A100005984144401A401E0590E00306D45B46F9
:101A20002146179A059800F05DF80544149800784F
:101A300018B15A46179990476D1CE00324D55B46B0
:101A40002146179A059800F04DF805441CE00498CB
:101A5000002807DBDDE90301884203DD0098405CD4
:101A6000179901E0179930205A469047049805F1DC
:101A70000105401C04900198401E019004D12E20C5
:101A80005A46179990476D1CBAF10001AAF1010A54
:101A9000DDDC05E017F8010B5A46179990476D1CDD
:101AA000B8F10001A8F10108F4DC5B462146179A61
:101AB0000598ABE62D0000002B0000002000000080
:101AC0002DE9F041044600251E461746880404D43B
:101AD00005E039462020B0476D1C641EF9D5284624
:101AE000BDE8F0812DE9F041044600251E469046F0
:101AF000C80301D5302700E02027880404D505E07D
:101B000041463846B0476D1C641EF9D52846BDE8ED
:101B1000F081000070B50446064DE1B22846FFF79B
:101B200089FB80212846FFF71FFB0028F9D02046BB
:101B300070BD000000100140FFF7D0F95948402166
:101B400001808021018057498015891C0880FEF79B
:101B5000DFFD55A0FFF774FBFEF7DAFF5CA0FFF78F
:101B60006FFB01215E4800F061F95EA0FFF768FBA2
:101B70005B4C60A06168FFF763FB0421201D00F04F
:101B800055F960A0FFF75CFB042104F1080000F0A8
:101B90004DF960A0FFF754FB94ED060B63A053ECE6
:101BA000102BFFF74DFB082104F1180000F03EF95F
:101BB00061A0FFF745FB04F12000FEF701FB401C8C
:101BC000C1B204F1200000F031F960A0FFF738FB4A
:101BD00004F10C00FEF7F4FA401CC1B204F10C0051
:101BE00000F024F95EA0FFF72BFB0822002104F18E
:101BF0001800FEF723FF082200216048FEF74AFE86
:101C00005FA0FFF71DFB08215C4800F00FF95B4C5B
:101C100046A094ED000B53EC102BFFF711FB62A0D4
:101C2000FFF70EFB2E4804220021001DFEF706FFE1
:101C3000042200212046FEF72DFE62A0FFF700FBE4
:101C40000421204600F0F2F82AA02168FFF7F8FAF4
:101C500065A0FFF7F5FA22482030FEF7B1FA401CE4
:101C600082B21F4800212030FEF7E8FE1C482030D9
:101C7000FEF7A6FA401C82B200212046FEF70AFEBB
:101C80005EA0FFF7DDFA16482030FEF799FA401CF7
:101C9000C1B2204600F0CAF8214661A0FFF7D0FA91
:101CA000FEE70000181402400D0A20D5E2CAC7D290
:101CB000BBB8F6454550524F4D20B4E6B4A2B8F734
:101CC000D6D6CAFDBEDDB5C4CAB5D1E9200D0A001D
:101CD0000D0AD7D6BDDACAFDBEDDA3BA00000000EA
:101CE000100000200D0A34D7D6BDDACAFDBEDDA330
:101CF000BA0000000D0ACAFDBEDD3A307825303248
:101D0000780000000D0AB8A1B5E3D0CDCAFDBEDD54
:101D1000A3BA00000D0A646F75626C65B8A1B5E3E3
:101D2000D0CDCAFDBEDDA3BA000000000D0ACAFD79
:101D3000BEDD3A25660000000D0AD3A2CEC4D7D678
:101D4000B7FBB4AECAFDBEDDA3BA00000D0AD6D003
:101D5000CEC4D7D6B7FBB4AECAFDBEDDA3BA000071
:101D60000D0AB4E6B4A2646F75626C65CAFDBEDD8F
:101D7000B5BD454550524F4D0D0A000044000020AE
:101D80000D0AB4D3454550524F4DB6C1BBD8C0B46F
:101D9000B5C4746573745F646F75626C65CAFDBEAB
:101DA000DD3A0D0A000000000D0AB4E6B4A2D5FB2E
:101DB000D0CDCAFDBEDDB5BD454550524F4D0D0AD3
:101DC000000000000D0AB4D3454550524F4DB6C136
:101DD000BBD8C0B4B5C4746573745F3332626974C0
:101DE000CAFDBEDD3A0D0A000D0AB4E6B4A2D3A2C4
:101DF000CEC4CAFDBEDD0D0A000000000D0AB4D33A
:101E0000454550524F4DB6C1BBD8C0B4B5C4656E40
:101E1000675F74657874CAFDBEDD3A0D0A00000084
:101E20000D0ACAFDBEDD3A257300000070B50546F7
:101E30000E46314607A0FFF703FA002406E0297892
:101E40000CA0FFF7FDF96D1C641CE4B2B442F6D39C
:101E500070BD00000D0A73697A65203D2025642C51
:101E60006461746120696E2062797465733A0D0A49
:101E70000000000030782530327820009C1E0008D9
:101E8000000000204400000060120008E01E00086E
:101E9000440000202404000070120008000000002C
:101EA00001020304010203040607080902000000FE
:101EB000785634126666A63FD6D0CEC40000000025
:101EC00000000000CDCCCCCCCCCCF43F616263648C
:101ED000656667000000000000A000000000000030
:040000050800018965
:00000001FF
