:020000040800F2
:10000000000400209D010008E70200087F020008AC
:10001000E5020008E50100082504000800000000D2
:1000200000000000000000000000000009030008BC
:10003000E701000800000000E9020008C50300080D
:10004000B7010008B7010008B7010008B7010008B0
:10005000B7010008B7010008B7010008B7010008A0
:10006000B7010008B7010008B7010008B701000890
:10007000B7010008B7010008B7010008B701000880
:10008000B7010008B7010008B7010008B701000870
:10009000B7010008B7010008B7010008B701000860
:1000A000B7010008B7010008B7010008B701000850
:1000B000B7010008B7010008B7010008B701000840
:1000C000B7010008B7010008B7010008B701000830
:1000D000B7010008B7010008B7010008B701000820
:1000E000B7010008B7010008B7010008B701000810
:1000F000B7010008B7010008B7010008B701000800
:10010000B7010008B7010008B7010008B7010008EF
:10011000B7010008B7010008B7010008B7010008DF
:10012000B7010008B7010008B7010008B7010008CF
:10013000B7010008B7010008B7010008B7010008BF
:10014000B7010008B7010008B7010008B7010008AF
:10015000B7010008B7010008B7010008B70100089F
:10016000B7010008B7010008B7010008B70100088F
:10017000B7010008B7010008B7010008B70100087F
:10018000B7010008B7010008DFF80CD000F018F83C
:100190000048004745040008000400200648804746
:1001A00006480047FEE7FEE7FEE7FEE7FEE7FEE75C
:1001B000FEE7FEE7FEE7FEE7C90300088901000845
:1001C000064C074D06E0E06840F0010394E80700A4
:1001D00098471034AC42F6D3FFF7DAFF2C0500083D
:1001E0004C050008FEE7704701B502E00098401E8C
:1001F000009000980028F9D108BD2DE9F0410022B7
:1002000001274FF0030C07FA02F50B682B40AB42B5
:100210002CD1066853000CFA03F4A64306600E794D
:10022000D0F800809E4046EA080606600E79012E4E
:1002300001D0022E12D18668A64386604E79D0F88E
:1002400008809E4046EA080686604668AE434660DF
:1002500045688E799640B6B235434560C568A5437A
:10026000C560CC799C40C3681C43C460521C102AF2
:10027000C9D3BDE8F0814183704701837047FEE731
:100280002DE9FC4115490878401C08700121202007
:1002900000F02CF84024009401218DF80410002077
:1002A0008DF806008DF807108DF805000C4F694693
:1002B0003846FFF7A2FF8026009669463846FFF7CA
:1002C0009CFFA500009569463846FFF796FF044855
:1002D0001830048006800580BDE8FC810000001015
:1002E00000140240FEE7704770470000054A0029ED
:1002F00003D0116801431160704711688143116098
:100300007047000030380240704700000CB50022F2
:10031000019200922749086840F4803008604FF449
:10032000A043086800F4003000900198401C019040
:10033000009810B901989842F3D10868800302D55B
:100340000120009000E000920098012831D1194866
:100350004030026842F0805202601748026842F45E
:10036000404202601348083002680260026842F4AA
:1003700000420260026842F4A0520260021F0F4B6A
:1003800013600A6842F080720A600A689201FCD524
:100390000B4A40F205711160016821F00301016010
:1003A000016841F0020101600168C1F38101022985
:1003B000FAD10CBD003802400070004019544007CB
:1003C000003C02407047000010B51248016841F43B
:1003D000700101601048016841F0010101600E4A9E
:1003E00000210832116002680C4B1A400260031DA4
:1003F0000B4A1A60026822F48022026006480C3020
:100400000160FFF783FF03494FF000608039086007
:1004100010BD000088ED00E000380240FFFFF6FE4E
:1004200010300024FEE702E008C8121F08C1002AAD
:10043000FAD170477047002001E001C1121F002A65
:10044000FBD17047FFF71CFF374CDFF8DCA01A34F4
:100450004FF040086FF07F474FF080094FF48076EF
:10046000A51E40215046FFF706FF3846FFF7BCFEA9
:1004700040215046FFF701FF80215046FFF7FBFE69
:100480003846FFF7B1FE80215046FFF7F6FE3146B1
:100490005046FFF7F0FE3846FFF7A6FE31465046BD
:1004A000FFF7EBFEA4F80080A5F800902E803846F8
:1004B000FFF79AFEA5F80080A4F800902E80384639
:1004C000FFF792FEA5F80080A5F800902680384638
:1004D000FFF78AFEA4F80080A4F800902E8038462A
:1004E000FFF782FEA4F80080A5F800902680384629
:1004F000FFF77AFEA5F80080A4F800902680384621
:10050000FFF772FEA4F80080A4F800902680384619
:10051000FFF76AFEA5F80080A5F800902E80384607
:10052000FFF762FE9DE70000001402404C05000842
:100530000000002000040000360400084C050008FC
:0C05400000000010E80300003604000872
:040000050800018965
:00000001FF
