:020000040800F2
:10000000300400204501000805130008071300080C
:100010000B1300080F130008131300080000000062
:10002000000000000000000000000000171300089E
:1000300019130008000000001B1300081D1300081E
:100040005F0100085F0100085F0100085F01000810
:100050005F0100085F0100083F1300085F0100080E
:100060005F0100085F0100085F0100085F010008F0
:100070005F0100085F0100085F0100085F010008E0
:100080005F0100085F0100085F0100085F010008D0
:100090005F0100085F0100085F0100085F010008C0
:1000A0005F0100085F0100085F0100085F010008B0
:1000B0005F0100085F0100085F0100085F010008A0
:1000C0005F0100085F0100085F0100085F01000890
:1000D0005F0100081F1300085F0100085F010008AE
:1000E000611300085F0100085F0100085F0100085C
:1000F0005F0100085F0100085F0100085F01000860
:100100005F0100085F0100085F0100085F0100084F
:100110005F0100085F0100085F0100085F0100083F
:100120005F0100085F0100085F0100085F0100082F
:10013000DFF80CD001F0C8FA004800474D11000864
:10014000300400200648804706480047FEE7FEE7E7
:10015000FEE7FEE7FEE7FEE7FEE7FEE7FEE7FEE777
:1001600047020008310100080CB500200190009002
:100170006C48006840F480306A49086000BF6948F4
:10018000006800F4003000900198401C0190009835
:1001900018B90198B0F5A06FF1D16248006800F479
:1001A000003010B10120009001E000200090009884
:1001B000012843D15C48006840F010005A490860AB
:1001C0000846006820F0030008600846006840F018
:1001D0000200086053484068524948600846406839
:1001E00048600846406840F48060486008464068BF
:1001F00020F47C1048600846406840F4E8104860ED
:100200000846006840F08070086000BF45480068FC
:1002100000F000700028F9D04248406820F0030048
:10022000404948600846406840F00200486000BF0E
:100230003C48406800F00C000828F9D10CBD10B50E
:10024000FFF792FF10BD10B53648006840F001007E
:1002500034490860084640683449084031494860DC
:1002600008460068324908402E4908600846006880
:1002700020F4802008600846406820F4FE004860B2
:100280004FF41F008860FFF7DAFF4FF00060294944
:10029000086010BD10B5002100200022214B5B68D2
:1002A00003F00C0121B1042906D0082928D107E068
:1002B000214B224C236027E01F4B204C236023E07E
:1002C000184B5B6803F47010164B5B6803F48032C4
:1002D000022303EB904022B9194B4343174C236090
:1002E0000DE0104B5B6803F4003323B1144B434320
:1002F000124C236003E0104B4343104C236003E097
:100300000D4B0E4C236000BF00BF064B5B68C3F370
:1003100003130C4CE15C094B1B68CB40074C23607A
:1003200010BD000000100240002002400000FFF855
:10033000FFFFF6FE08ED00E000127A00000000204A
:1003400000093D000400002031490143314A116099
:10035000704770B5002100230F22C47804B32D4CE0
:10036000246804F4E064C4F5E064210AC1F10403E4
:10037000CA40447804FA03F1847814402143090107
:10038000254C0678A155047804F01F050124AC40E3
:1003900005786D11AD0005F1E025C5F8004109E0D3
:1003A000047804F01F050124AC401C4D067876113A
:1003B00045F8264070BD1A4A0A400243154B1B1FE0
:1003C0001A60704739B1134A121D12680243114B6B
:1003D0001B1D1A6006E00F4A121D126882430D4B66
:1003E0001B1D1A607047042808D14FF0E0210969ED
:1003F00041F004014FF0E022116107E04FF0E021ED
:10040000096921F004014FF0E022116170470000FA
:100410000000FA050CED00E000E400E080E100E0FF
:1004200080FFFF1F002044490860091D0860091D66
:100430000860091D086041483F4914310860704751
:1004400000213D498279002A3AD00A4612680368A1
:100450009A430B461A600A1D126803689A430B1DE3
:100460001A60027911440A6803681A430A60324A22
:100470000832126803689A432F4B08331A601A1D1A
:10048000126803689A432C4B0C331A604279102A85
:100490000ED11A1F126803681A43274B08331A60DB
:1004A0001A1D126803681A43234B0C331A600DE0BF
:1004B0002149427911440A6803681A430A6005E039
:1004C000027911440A6803689A430A607047002160
:1004D000016001710C214171002181717047164941
:1004E000103109680143144A103211607047014607
:1004F0000020114A143212680A400AB1012000E0BB
:10050000002070470C4914310860704701460020F4
:100510000022094B1B6803EA0102074B14331B68D6
:100520000B4013B10AB1012000E0002070470249DE
:10053000143108607047000000040140FFFF0F0005
:1005400010B50446CC48844208D10121042000F0B3
:1005500093FB0021042000F08FFB46E0C748844253
:1005600008D10121082000F087FB0021082000F0BD
:1005700083FB3AE0C248844208D10121102000F0F8
:100580007BFB0021102000F077FB2EE0BD48844269
:1005900008D10121202000F06FFB0021202000F075
:1005A0006BFB22E0B848844208D10121402000F0D2
:1005B00063FB0021402000F05FFB16E0B34884425B
:1005C00008D10121802000F057FB0021802000F09D
:1005D00053FB0AE0AE48844207D10121801500F0A8
:1005E0004BFB0021A01500F047FB10BD10B5012109
:1005F000084600F041FB0021012000F03DFB10BD4A
:100600002DE9F041024600250026002000230024A9
:10061000002791F803C00CF00F0591F803C00CF00F
:10062000100CBCF1000F03D091F802C04CEA050594
:1006300091F800C0BCF1000F31D0146800202BE00D
:100640004FF0010C0CFA00F3B1F800C00CEA0306FD
:100650009E4220D183004FF00F0C0CFA03F7BC43ED
:1006600005FA03FC4CEA040491F803C0BCF1280F1E
:1006700006D14FF0010C0CFA00FCC2F814C00AE0DD
:1006800091F803C0BCF1480F05D14FF0010C0CFAF2
:1006900000FCC2F810C0401C0828D1D31460B1F887
:1006A00000C0BCF1FF0F34DD546800202EE000F1E3
:1006B000080C4FF0010808FA0CF3B1F800C00CEA7E
:1006C00003069E4221D183004FF00F0C0CFA03F772
:1006D000BC4305FA03FC4CEA040491F803C0BCF1E6
:1006E000280F05D100F1080C08FA0CF8C2F81480A4
:1006F00091F803C0BCF1480F07D100F1080C4FF08E
:10070000010808FA0CF8C2F81080401C0828CED363
:100710005460BDE8F0814FF6FF71018002218170C5
:100720000421C17070470246002093680B400BB152
:10073000012000E0002070470146886880B27047C1
:1007400002460020D3680B400BB1012000E00020DE
:1007500070470146C86880B27047016170474161C7
:1007600070470AB1016100E041617047C1607047A4
:100770004FF480320A4382618161826182698269B9
:10078000704702460020434B18684FF680731840AC
:1007900040EA021008433F4B186070473E49C86169
:1007A0007047F0B50A46002300240021002500F020
:1007B0000046B6F1004F02D1364EF16901E0354EE8
:1007C0007168C0F3034583B200F44016B6F5401FCC
:1007D00008D121F070612F4E766826F070662D4F9B
:1007E0007E6012E000F48016B6F5801F06D1032665
:1007F00006FA05F4A14341F0706106E0460D3601AA
:1008000003FA06F6B14341F0706122B1460D36019C
:1008100003FA06F6314300F00046B6F1004F02D16C
:100820001C4EF16101E01B4E7160F0BD30B500223D
:100830008B071C0F0F2303FA04F2164B08338C109E
:1008400053F824309343134C08348D1044F825306A
:1008500023468C1053F824308C07240F00FA04F43C
:1008600023430C4C08348D1044F8253030BD0A4920
:10087000DC3108607047000000080140000C0140B6
:10088000001001400014014000180140001C01400C
:1008900000200140000001400000204210B501216D
:1008A000080700F0F6F900214FF0805000F0F1F950
:1008B00010BD2A49086270472849086170470146FF
:1008C0000020274A106820F0E000084310607047BD
:1008D0002249A0310860704710B502460020204B25
:1008E000186820F00300104318601E4B1B6843F08B
:1008F00004031C4C2360012901D130BF00E020BF5C
:10090000184B1B6823F00403164C236010BD1448D9
:10091000006840F00400124908600846006840F092
:10092000020008600F48006840F004000D490860AC
:1009300000BF00BF30BF704701460020084A526820
:100940000A400AB1012000E000207047044909680C
:1009500041EA8001024A11607047000000000E4227
:100960000070004010ED00E0DF48006840F001003A
:10097000DD49086008464068DC490840DA494860BB
:1009800008460068DA490840D74908600846006808
:1009900020F4802008600846406820F4FE0048608B
:1009A0004FF41F0088607047CF49096821F48031F7
:1009B000CD4A11601146096821F480211160B0F51B
:1009C000803F03D0B0F5802F0ED106E0C6490968FC
:1009D00041F48031C44A116007E0C349096841F419
:1009E000A021C14A116000E000BF00BF704710B5F0
:1009F00001460022002300204A11012A02D1BA4CEC
:100A0000236806E0022A02D1B74C236A01E0B64C03
:100A1000636A01F01F02012494401C400CB10120C4
:100A200000E0002010BD38B5002000900024002513
:100A300000BF3120FFF7DBFF05460098401C009007
:100A40000098B0F5A06F01D0002DF2D03120FFF753
:100A5000CEFF08B1012400E00024204638BD014645
:100A60000020A14A106820F0F80040EAC1001060A0
:100A70007047A04908607047024600209A4B5868AA
:100A800020F47C1042EA01031843974B58607047EA
:100A900098490866704701460020934A506820F044
:100AA00003000843506070478F48406800F00C0016
:100AB0007047014600208C4A506820F0F00008433F
:100AC0005060704701460020874A506820F4E0607B
:100AD00008435060704701460020834A506820F464
:100AE000605040EAC1005060704729B17E4A527A96
:100AF00002437D4B5A7204E07B4A527A82437A4B1E
:100B00005A7270477B49D83108607047014600200F
:100B1000754A506820F440400843506070470021F7
:100B2000714A20321170704A82F82010012802D0D8
:100B300004280AD104E001216B4A2032117005E03B
:100B40000521694A2032117000E000BF00BF7047E4
:100B50006949086070476449096A0143624A116241
:100B60007047654944390860704730B5002100225C
:100B7000002400235C4D6D6805F00C0121B10429AF
:100B800005D0082923D105E05C4D056022E05B4DCE
:100B900005601FE0544D6D6805F47012524D6D688C
:100BA00005F48034022505EB92421CB9544D55439F
:100BB00005600BE04C4D6D6805F400351DB1504DDE
:100BC0005543056002E04D4D5543056002E04B4D35
:100BD000056000BF00BF444D6D6805F0F0010909D4
:100BE000484D6B5C0568DD4045603F4D6D6805F420
:100BF000E061090A434D6B5C4568DD4085603A4D14
:100C00006D6805F46051C90A3E4D6B5C4568DD4076
:100C1000C560354D6D6805F44041890B3A4D6B5CFC
:100C2000C568B5FBF3F5056130BD29B12E4A52699F
:100C300002432D4B5A6104E02B4A526982432A4BEE
:100C40005A61704729B1284A92690243264B9A613A
:100C500004E0254A92698243234B9A61704729B187
:100C6000214AD2690243204BDA6104E01E4AD2696C
:100C700082431D4BDA61704729B11B4AD268024397
:100C8000194BDA6004E0184AD2688243164BDA60E6
:100C9000704729B1144A12690243134B1A6104E0E8
:100CA000114A12698243104B1A6170471249403948
:100CB000086070470F49C86470470B49C871704796
:100CC0000948406A40F08070074948627047014611
:100CD0000020054A92680A400AB1012000E0002085
:100CE0007047014988727047001002400000FFF809
:100CF000FFFFF6FE000042428004424200127A00EA
:100D000000093D00140000202400002010B5044616
:100D1000FB48844209D101218803FFF7ADFF002180
:100D20004FF48040FFF7A8FF32E0F648844209D133
:100D300001214804FFF7ADFF00214FF40030FFF719
:100D4000A8FF25E0F048844209D101218804FFF77B
:100D5000A0FF00214FF48020FFF79BFF18E0EB4835
:100D6000844209D10121C804FFF793FF00214FF409
:100D70000020FFF78EFF0BE0E548844208D10121F7
:100D80000805FFF786FF00214FF48010FFF781FF71
:100D900010BD2DE9F04786B005460E460024A24658
:100DA00000BFA1460027B08900B100BF2F462C8AA2
:100DB0004CF6FF700440F08804432C82AC894EF658
:100DC000F3100440B0883189084371890843044313
:100DD000AC81AC8A4FF6FF400440B0890443AC823A
:100DE00001A8FFF7C2FEC648874202D1DDF810A075
:100DF00001E0DDF80CA0A88900F4004040B10AEB46
:100E0000CA0000EB0A1031684900B0FBF1F807E0B6
:100E10000AEBCA0000EB0A1031688900B0FBF1F858
:100E20006420B8FBF0F004012009642101FB108963
:100E3000A88900F4004040B1322000EBC900B0FBAB
:100E4000F1F000F00700044308E0322000EB091045
:100E50006421B0FBF1F000F00F0004432C8106B0D8
:100E6000BDE8F0874FF41651016000218180C180F8
:100E700001810C21418100218181704710B502461A
:100E80000020108A4FF2FF0318400B884C88234340
:100E90008C882343CC8823431843108210BD002143
:100EA000018041808180C180704721B1828942F4F4
:100EB0000052828104E082894DF6FF731A408281DC
:100EC0007047F0B50346002400260025002040F6B8
:100ED0006A17B94200D100BF1846C1F3421401F0AD
:100EE0001F06012707FA06F5012C01D10C3004E09A
:100EF000022C01D1103000E014301AB107682F43E2
:100F0000076002E00768AF430760F0BD1AB1838A4B
:100F10000B43838202E0838A8B4383827047028A79
:100F20004FF6F0731A400282028A0A430282704727
:100F300082894FF2FF731A40828182890A4382813B
:100F4000704721B1828942F00202828104E08289E5
:100F50004FF6FD731A4082817047028A4FF6DF73A5
:100F60001A400282028A0A430282704721B1028A31
:100F700042F48042028204E0028A4BF6FF731A4078
:100F800002827047C1F30802828070470146888858
:100F9000C0F308007047818941F0010181817047E9
:100FA000028BD2B20283028B42EA01220283704793
:100FB000028B02F47F420283028B0A430283704752
:100FC00021B1828A42F02002828204E0828A4FF6B6
:100FD000DF731A408282704721B1828A42F0100288
:100FE000828204E0828A4FF6EF731A408282704751
:100FF00021B1828A42F00802828204E0828A4FF69E
:10100000F7731A408282704721B1828942F400420C
:10101000828103E08289C2F30E028281704721B18E
:10102000828A42F40062828204E0828A4FF2FF7375
:101030001A4082827047828A4FF6FB731A4082827E
:10104000828A0A438282704721B1828A42F0020278
:10105000828204E0828A4FF6FD731A4082827047D2
:1010600002460020B1F5007F00D100BF13880B407D
:101070000BB1012000E00020704701F40072B2F5CE
:10108000007F00D100BFCA430280704770B502469E
:10109000002400230025002040F66A16B14200D14A
:1010A00000BFC1F3421501F01F03012606FA03F346
:1010B000012D02D19689334006E0022D02D1168A15
:1010C000334001E0968A33400C12012606FA04F4FC
:1010D0001688344013B10CB1012000E0002070BD2F
:1010E00010B50022002340F66A14A14200D100BFCF
:1010F0000A1201249440A3B2DC43048010BD000016
:10110000003801400044004000480040004C0040CE
:101110000050004010B54FF48030FFF745FC00BF91
:101120003120FFF764FC0128FAD1FFF7B1FC00BFC2
:101130003920FFF75CFC0128FAD10220FFF7ABFC55
:1011400000BFFFF7B1FC0828FBD110BD8AB0002416
:10115000002500F044F900F03EFA00F0FFF9082005
:1011600021494861486121A000F0E0FA08201E49A9
:1011700048610420486136E021A000F0D7FA24A09D
:1011800000F0D4FA26A000F0D1FA01210020FFF7E8
:10119000A3FBFFF789FC044605A8FFF7E6FCFFF771
:1011A000B9FFFFF781FC05466846FFF7DEFC20A08B
:1011B00000F0BCFA214623A000F0B8FA28A0059957
:1011C00000F0B4FA30A000F0B1FA294635A000F0E2
:1011D000ADFA3AA0009900F0A9FA41A000F0A6FAF1
:1011E00043A000F0A3FAC7E700100140CDA3D6B991
:1011F000C4A3CABDD1DDCABE0A0A0A0A00000000A3
:101200000D0ABFAACABC7768696C65D1ADBBB700CF
:101210000D0ACDA3D6B9C7B0B5C4D0C5CFA20000C2
:101220000D0ABDF8C8EBCDA3D6B9D7B4CCAC00003D
:101230000D0AB8D5BBBDD0D1B5C4CAB1D6D3D7B4C9
:10124000CCAC00000D0A70725F636C6F636B5F73F0
:101250006F7572636573203D20307825780000003B
:101260000D0A70725F636C6F636B5F667265712EDF
:10127000535953434C4B5F4672657175656E637984
:10128000203D2025640000000D0AD6D8D0C2C5E458
:10129000D6C3CFB5CDB3CAB1D6D3BAF3B5C4D7B4DC
:1012A000CCAC00000D0A636C6F636B5F736F75727B
:1012B000636573203D203078257800000D0A636C4B
:1012C0006F636B5F667265712E535953434C4B5F6E
:1012D0004672657175656E6379203D202564000056
:1012E0000D0ABBBDD0D1BAF3B5C4D0C5CFA20000A2
:1012F0000D0ABDF8C8EBD5FDB3A3D4CBD0D0D7B47D
:10130000CCAC0000704700BFFEE700BFFEE700BFA7
:10131000FEE700BFFEE7704770477047704710B5A3
:1013200040F225511848FFF7B1FE38B11648FFF7D3
:101330002DFEC4B221461448FFF724FE10BD10B59F
:101340000120FFF7E3F850B108201049086104209C
:1013500008610FA000F0EAF90120FFF7E8F810BDDE
:1013600010B54FF40050FFF7D1F858B108200749E5
:101370000861042008610BA000F0D8F94FF4005078
:10138000FFF7D5F810BD0000003801400010014003
:101390000D0AB0B4BCFC31D6D0B6CFB7FECEF1BA90
:1013A000AFCAFD000D0AB0B4BCFC32D6D0B6CFB780
:1013B000FECEF1BAAFCAFD0008B54FF4A060FEF74B
:1013C000C3FF25208DF8000001208DF801008DF865
:1013D00002008DF803006846FEF7BBFF08BD00B5AC
:1013E00085B001210420FFF72DFC01218803FFF7C0
:1013F00029FC4FF40070ADF8100018208DF8130090
:1014000003208DF8120004A95248FFF7F9F84FF4B1
:101410008060ADF8100004208DF8130004A94D4839
:10142000FFF7EEF84FF4E13000900020ADF8040033
:10143000ADF80600ADF80800ADF80C000C20ADF8D2
:101440000A0069464448FFF7A4FCFFF7B5FF0122F4
:1014500040F225514048FFF734FD01213E48FFF797
:1014600024FD05B000BD70B504460D462946204652
:10147000FFF788FD00BF80212046FFF7F1FD00281F
:10148000F9D070BD2DE9F04107460D4616460024FF
:1014900005E0295D3846FFF7E6FF601CC4B2B442A0
:1014A000F7DB00BF40213846FFF7DAFD0028F9D00E
:1014B000BDE8F08170B506460C46002500BF615DB1
:1014C0003046FFF7D0FF6D1C605D0028F7D100BFEC
:1014D00040213046FFF7C4FD0028F9D070BD2DE94A
:1014E000F04105460C46260AE7B231462846FFF78A
:1014F00049FD00BF80212846FFF7B2FD0028F9D042
:1015000039462846FFF73EFD00BF80212846FFF7F9
:10151000A7FD0028F9D0BDE8F08170B504460D465E
:10152000E1B20D48FFF72EFD00BF80210A48FFF70A
:1015300097FD0028F9D0204670BD10B5044600BFC5
:1015400020210548FFF78CFD0028F9D00248FFF75D
:101550001DFD10BD000801400038014008B5012103
:101560001020FFF76FFB0420ADF8000010208DF86D
:10157000030003208DF8020069460948FFF740F890
:101580000820ADF8000069460548FFF739F8042146
:101590000348FFF7E2F808210148FFF7DEF808BD2D
:1015A0000010014008B54FF4C060FEF7CDFE0620E4
:1015B0008DF8000001208DF801008DF802008DF8F3
:1015C00003006846FEF7C5FE28208DF80000684637
:1015D000FEF7BFFE08BD0EB501210520FFF732FB67
:1015E000FFF7E0FF0120ADF8080004208DF80B00A4
:1015F00002A91A48FFF704F800210846FFF716F978
:101600000120009000208DF8040008208DF80500CE
:1016100001208DF806006846FEF712FF4FF40050D7
:10162000ADF8080004208DF80B0002A90C48FEF765
:10163000E7FF0D210220FFF7F9F84FF4005000906A
:1016400000208DF804000C208DF8050001208DF895
:1016500006006846FEF7F4FE0EBD000000080140DB
:10166000001001402DE9F05F0546002092469B46A0
:1016700088460646814640241BE0284641464746A8
:10168000224600F042F853465A46C01A914110D300
:1016900011461846224600F029F82D1A67EB01087A
:1016A0004F4622460120002100F020F817EB0009E8
:1016B0004E41201EA4F10104DFDC484631462A4693
:1016C0004346BDE8F09F0000064C074D06E0E06889
:1016D00040F0010394E8070098471034AC42F6D379
:1016E000FEF72AFD2C1A00084C1A0008202A04DBF9
:1016F000203A00FA02F1002070479140C2F1200325
:1017000020FA03F3194390407047202A04DB203A63
:1017100021FA02F00021704721FA02F3D040C2F111
:101720002002914008431946704700000FB4054B52
:1017300010B503A9044A029800F018F810BC5DF82F
:1017400014FB00001B1500082800002002E008C858
:10175000121F08C1002AFAD170477047002001E02B
:1017600001C1121F002AFBD1704700002DE9FF4F75
:101770008DB09B460F460446002606E025280BD078
:101780005A460F999047641C761C20780028F5D1A2
:1017900011B03046BDE8F08F0025A84601229849D7
:1017A00000E0054314F8013F203B02FA03F0084231
:1017B000F7D120782E2817D114F8010F45F0040531
:1017C0002A280ED06FF02F022078A0F130010929CD
:1017D0000AD808EB880102EB410100EB0108641C08
:1017E000F2E757F8048B641C20786C280DD004DCD9
:1017F0004C2812D06A2811D104E074280DD07A2820
:101800000CD10AE045F4001507E0617845F4801535
:10181000814202D1641C05F58015641C2278692A76
:1018200045D008DC002AB3D0582A69D0632A10D0EA
:10183000642A08D13BE0702A67D0732A13D0752A36
:101840005CD0782A5CD010465A460F999047761C97
:10185000D3E017F8040B8DF8000000208DF801008C
:10186000E946012003E057F8049B4FF0FF30690779
:101870004FF0000501D40AE06D1C45450DDA8542A4
:10188000FADB19F805100029F6D106E06D1C854237
:10189000FCDB19F805100029F8D12E4404E019F8F2
:1018A000010B5A460F9990476D1EF8D2A5E00A2009
:1018B0000021CDE90801C5F3025002280DD001CF67
:1018C000C117031E71F100030DDA4FF0000CD0EBCD
:1018D0000C006CEB01012D2308E0FF1D27F007072A
:1018E000F7E80201EDE72B0504D52B238DF828300E
:1018F00001233BE0EB0739D02023F7E70A2000E083
:1019000010200021CDE9080107E01020002145F05A
:101910000405CDE908014FF00808C5F3025002287C
:101920000FD001CF00214FF0000A2B071FD5702ADE
:101930000DD0DDE908C38CF0100C5CEA030C0CD070
:1019400015E0FF1D27F00707F7E80201EBE740224B
:101950008DF828204FF0010A0BE050EA010306D071
:1019600030238DF828308DF8292002239A46582AF2
:1019700004D024A20DF120090B9209E026A2F9E778
:10198000DDE90823FFF76EFE0B9B9B5C09F8013D28
:1019900050EA0102F4D1ADEB09002030089068074D
:1019A00001D44FF001080899884502DDA8EB010039
:1019B00000E000208046002506E00AA85A46405D67
:1019C0000F9990476D1C761C5545F6DB04E03020DE
:1019D0005A460F999047761CB8F10001A8F101080A
:1019E000F5DC05E019F8010B5A460F999047761C73
:1019F0000899481E08900029F4DC641CC5E6000024
:101A000009280100303132333435363738396162D4
:101A10006364656600000000303132333435363798
:101A20003839414243444546000000004C1A000842
:101A3000000000202C0000004C170008781A000855
:101A40002C000020040400005C17000800A24A04D7
:101A5000000000000000000001020304060708095E
:101A60000000000001020304010203040607080944
:081A700002040608000000005A
:0400000508000131BD
:00000001FF
