:020000040800F2
:10000000D84800209D010008471A0008E1090008AF
:10001000451A000825070008F91F00080000000025
:10002000000000000000000000000000F11D0008BA
:100030002707000800000000491A0008AD1E00084C
:10004000B7010008B7010008B7010008B7010008B0
:10005000B7010008B7010008B7010008B7010008A0
:10006000B7010008B7010008B7010008B701000890
:10007000B7010008B7010008B7010008B701000880
:10008000B7010008B7010008B7010008B701000870
:10009000B7010008B7010008B7010008B701000860
:1000A000B7010008B7010008B7010008B701000850
:1000B000B7010008B7010008B7010008B701000840
:1000C000B7010008B7010008B7010008B701000830
:1000D000B7010008B7010008B7010008B701000820
:1000E000B7010008B7010008B7010008B701000810
:1000F000B7010008B7010008B7010008B701000800
:10010000B7010008B7010008B7010008B7010008EF
:10011000B7010008B7010008B7010008B7010008DF
:10012000B7010008B7010008B7010008B7010008CF
:10013000B7010008B7010008B7010008B7010008BF
:10014000B7010008B7010008B7010008B7010008AF
:10015000B7010008B7010008B7010008B70100089F
:10016000B7010008B7010008B7010008B70100088F
:10017000B7010008B7010008B7010008B70100087F
:10018000B7010008B7010008DFF80CD000F02AFA28
:100190000048004745290008D84800200648804705
:1001A00006480047FEE7FEE7FEE7FEE7FEE7FEE75C
:1001B000FEE7FEE7FEE7FEE7B11E00088901000842
:1001C00000F0004230F000400AD0C10D01F560712E
:1001D000C0F3160042EA0151C208400711437047BC
:1001E00000200146704730B50B4601460020202212
:1001F000012409E021FA02F59D4205D303FA02F534
:10020000491B04FA02F52844151EA2F10102F1DC93
:1002100030BD2DE9F05F0546002092469B4688469A
:100220000646814640241BE0284641464746224672
:1002300000F0F9F953465A46C01A914110D31146BD
:100240001846224600F0E0F92D1A67EB01084F46E8
:1002500022460120002100F0D7F917EB00094E419A
:10026000201EA4F10104DFDC484631462A464346FD
:10027000BDE8F09F2DE9FE4F804681EA0300C00FE4
:100280000C46009021F0004123F00045B8EB02003D
:10029000A94105D24046214690461C460B460246DF
:1002A00023F00040104347D0270DC7F30A00C3F3E3
:1002B0000A510290401A019040286BDAC3F31300F0
:1002C00040F4801B0098924620B10023D2EB030A31
:1002D00063EB0B0B01985946C0F14002504600F009
:1002E00093F906460D4650465946019A00F0ABF97F
:1002F00010EB08006141002487EA115284EAE77399
:100300001A4340D0009A62B3019A012A4FEA075279
:1003100015DC001B61EB02014FF0004202EA0752BC
:10032000CDE90042001C41F5801132462B4600F019
:10033000ABF903B0BDE8F08F40462146F9E7001B5A
:1003400061EB0201001C41F5801300185B4120188D
:10035000A2F5001747EB030140EAD570B6196D41CD
:1003600011E06D084FEA360645EAC0754FEA0752BC
:10037000001B61EB0201001C41F5801149084FEAA6
:1003800030000019514132462B4603B0BDE8F04F12
:1003900000F06BB90098012240000023D0EB02026C
:1003A00063EBE073009821464FEAE074B8EB00007D
:1003B00061EB0401E9E783F000435BE781F0004172
:1003C00058E72DE9FE4F81EA030404F0004421F0D0
:1003D000004100944FF0000B23F0004350EA010469
:1003E0005ED052EA03045BD0C3F30A54C1F30A554A
:1003F0002C44A4F2F3340194A0FB0254C1F3130182
:1004000041F48011C3F3130343F4801301FB02444E
:1004100000FB034E840A970A44EA815447EA835753
:10042000A4FB076802958D0A05FB07854FEA932C0C
:1004300004FB0C542705029D4FEA065847EA16377D
:10044000B5EB08056EEB070C870E920E47EA811795
:1004500042EA8312A7FB0201B6EB0B0164EB000436
:100460002B0D43EA0C335E1844EB1C50DA46514620
:10047000E7FB0201C5F313044FEA0B3343EA1453BD
:100480004FEA0432019C43EA0603A4F10C040294EF
:10049000009CCDE900B400F0F7F803B0BDE8F08FA0
:1004A00000200146F9E72DE9F04D81EA030404F04C
:1004B000004B21F0004514464FF0000A23F00041A4
:1004C00050EA050220D054EA01021DD0C5F30A57B4
:1004D0000246C5F31303C1F31300C1F30A5640F4F7
:1004E000801543F48013A7EB0608101BD64608F2CC
:1004F000FD3873EB050002D308F1010801E0921802
:100500005B41B8F1000F03DA00200146BDE8F08D31
:1005100000204FF48011064684460EE0171B73EB53
:10052000050705D3121B63EB050306434CEA010CD8
:1005300049084FEA300092185B4150EA0107EDD1BB
:1005400052EA030012D082EA040083EA050108435C
:1005500005D0101BAB4106D20122002306E0002289
:100560004FF0004302E06FF0010253101AEB060057
:100570004CEB085110EB0A0041EB0B01BDE8F04DCC
:1005800000F073B8C1F30A52C1F3130140F2FF3314
:1005900041F480119A4202DA00200146704740F28D
:1005A00033439A42A2F2334202DC524200F03BB89B
:1005B00000F02AB830B5041E71F1000404DB4FF0DE
:1005C0000044404264EB0101141E73F1000405DB9A
:1005D0001C464FF00043524263EB0403994208BFAC
:1005E000904230BD064C074D06E0E06840F0010344
:1005F00094E8070098471034AC42F6D3FFF7C8FDE3
:10060000CC410008EC410008202A04DB203A00FA23
:1006100002F1002070479140C2F1200320FA03F359
:10062000194390407047202A04DB203A21FA02F057
:100630000021704721FA02F3D040C2F1200291401C
:10064000084319467047202A06DBCB17203A41FAA7
:1006500002F043EAE07306E041FA02F3D040C2F14F
:100660002002914008431946704710B5141E73F1DB
:10067000000408DA401C41F1000192185B411A4362
:1006800001D120F0010010BD2DE9F04D92469B46AE
:1006900011B1B1FA81F202E0B0FA80F22032904654
:1006A000FFF7B2FF04460F4640EA0A0041EA0B0199
:1006B00053465A46084313D0114653EA010019D055
:1006C000C8F140025046FFF7AEFF05460E465046C1
:1006D00059464246FFF798FF084305D0012004E041
:1006E00020463946BDE8F08D0020054346EAE07615
:1006F0002C4337430A986305E40AA0EB0800002264
:10070000FD0A44EA47540A3002D500200146E9E7D1
:10071000010510196941DDE9084500196941BDE885
:10072000F04DA2E7FEE7704770B586B0012108469C
:1007300001F0C6F90121102001F0DEF91E4E07225A
:100740000A21304600F012F907220921304600F054
:100750000DF900248DF8164001208DF817000225B0
:100760008DF81450410204918DF8155004A93046BB
:1007700000F0BEF88DF814506802049004A93046C9
:1007800000F0B6F84FF4E1300090ADF80440ADF859
:100790000640ADF80840ADF80C400C20ADF80A005A
:1007A000064C6946204601F0C5FB0121204601F0B8
:1007B000ADFB06B070BD000000000240001001401B
:1007C00001B502E00098401E009000980028F9D181
:1007D00008BD01B502E00098401E00900098002876
:1007E000F9D108BD8000A0F1C040002904D0016803
:1007F00041F00101016070470168024A1140016047
:1008000070470000FEFF0F0070B501688900A1F17C
:10081000C0410B68344A1340D0E901242243D0E997
:1008200003452C4322434469224384692243C4691B
:100830002243046A2243446A2243846A2243C46AEC
:100840002243046B22431A430A608168082907D1B6
:1008500001688900A1F1C0410A6842F040020A60C3
:100860000168491C8A00A2F1C042116801F04044AD
:10087000416BD1E9003543EA05138D688E892D025D
:1008800045EA06452B430D8A43EA05530D7D8969E8
:1008900043EA05630B4323431360C16AB1F5804FFC
:1008A00008D000686FF070418000A0F1C040C0F82F
:1008B000041170BD01688900A1F1C041D1F8042183
:1008C0000A4B1A40806BD0E9003443EA0413846871
:1008D0008589240244EA0544806923430343134382
:1008E000C1F8043170BD00008000F7FF0000F0CFB8
:1008F0002DE9F041002201274FF0030C07FA02F521
:100900000B682B40AB422CD1066853000CFA03F461
:10091000A64306600E79D0F800809E4046EA08069D
:1009200006600E79012E01D0022E12D18668A643F0
:1009300086604E79D0F808809E4046EA08068660B8
:100940004668AE43466045688E799640B6B23543F8
:100950004560C568A543C560CC799C40C3681C430D
:10096000C460521C102AC9D3BDE8F08110B54B07F2
:10097000DB0E9A40C90800EB8100016A0F249C40FD
:10098000A1430162016A1143016210BD41837047B6
:100990000183704770B505460C460F4E307800282D
:1009A00003D101F03BF901203070220AE1B2A13AF3
:1009B000C2EB021000EB421001EB4000A1388102B3
:1009C000C81701EB5070C11004488022014428462A
:1009D00001F0FEF8002070BD5000002000604E00C5
:1009E000FEE70000054A4FF40071002802D01046CF
:1009F000FFF7CEBF1046FFF7C9BF0000001402404A
:100A000070B514461D462B46224600F05DFC044995
:100A100004FB05F00989BDE8704000F0EDBA000064
:100A20003800002010B5014600F0A4FEC38803483A
:100A30004288BDE810400020FFF7E2BF38000020E8
:100A400001B502E00098401E009000980028F9D1FE
:100A500008BD00002DE9F041154620231A4600F09C
:100A600033FC2C204FF0D044208029461548FFF756
:100A700091FF0021134E144F250116F821000302A7
:100A800006EB810042781A431202837813431A025C
:100A900090F803C04CEA020C0020FA883B8925FA42
:100AA00000F818EA0C0F01D0628000E06380401C5F
:100AB000C0B22028F3D3491CC9B22029DDD3BDE838
:100AC000F081000058440020380000202DE9F04358
:100AD000203A97B2184EF568AA88EB8802FB03F417
:100AE0004FEAE47C04EB5C74C4F3C7042D6807FB95
:100AF000045500F0E9FB2C204FF0D04CACF800007E
:100B0000002115E00020F3883289802715F8018044
:100B100027FA00F918EA090F02D0ACF8023001E018
:100B2000ACF80220401CC0B20828EFD3491CC9B25F
:100B3000A142E7D3BDE8F08338000020F0B50546B8
:100B40000E4600240F4F19E0F8687B888188214405
:100B5000994203D90024C18829448DB2C088B9883C
:100B60002844884201D90024002529462046FFF761
:100B7000ADFF761CF8688088204484B23278002A61
:100B8000E2D1F0BD380000202DE9F04105460E46C7
:100B900000241F4F37E07E2A1AD8F8687B888188A6
:100BA0002144994203D90024C18829448DB2C088C8
:100BB000B9882844884201D90024002529462046C6
:100BC000FFF784FFF8688088204484B2761C1AE01E
:100BD000798804F12000884202D900242035ADB282
:100BE000B98805F12000884201D900240025308809
:100BF000010201EB102082B229462046FFF72AFFAE
:100C00002034A4B2B61C3278002AC4D1BDE8F081E9
:100C1000380000202DE9FE4F0446DDE90C5A0F464E
:100C2000904699464646DFF8C0B057E02F49A219D2
:100C30004B889A4203D9002407EB090297B28988AE
:100C400007EB09028A4201D90024002780281FD916
:100C500046462888010201EB102081B22448FFF7A4
:100C600099FE234A0121CDE90028029120214B461B
:100C70003246084600F0C0FCCDE900BA4B46324689
:100C80003946204600F038F8A01984B2AD1C25E0A2
:100C90004FEA58062038C1B216480023C288B0F87F
:100CA00004C0006802FB0CF24A43D11702EB5171F9
:100CB000CDE9018300EBE10000904B463246202154
:100CC000102000F099FCCDE900BA4B463246394677
:100CD000204600F011F8A01984B26D1C2878002875
:100CE000A4D1BDE8FE8F000058000020380000208D
:100CF00058440020480000202DE9F0431746DDE964
:100D00000748994600254B463A4600F0DDFA2C206C
:100D10004FF0D04210800A4B0EE000201989DE8887
:100D200007E014F801CBC44501D1518000E05680A2
:100D3000401CB842F5D36D1C4D45EED3BDE8F083A1
:100D4000380000202DE9FF4F85B007468846002473
:100D500016B20320A0EB42000FFA80F994E0089845
:100D6000E8B3254642E0381908EB050A04901FFA5B
:100D70008AF180B200F02CFC1FFA8AF1A7EB040A7A
:100D80001FFA8AF000F024FC08EB040081B2A7EB04
:100D9000050B03901FFA8BF000F01AFCA8EB04007F
:100DA00081B202901FFA8BF000F012FCA8EB050B49
:100DB0001FFA8BF11FFA8AF000F00AFC04981FFA60
:100DC0008BF180B200F004FC029807EB050A81B2B7
:100DD0001FFA8AF000F0FCFB039881B200E008E003
:100DE0001FFA8AF000F0F4FB6D1C2DB2B542BADD9B
:100DF00037E0381908EB06050190A9B280B200F07F
:100E0000E7FBA7EB040AA9B21FFA8AF000F0E0FBA7
:100E100008EB040081B2A7EB060B00901FFA8BF0E1
:100E200000F0D6FBA8EB0405A9B21FFA8BF000F086
:100E3000CFFBA8EB060B1FFA8BF11FFA8AF000F02C
:100E4000C7FB01981FFA8BF180B200F0C1FBA9B279
:100E5000BD19A8B200F0BCFB009881B2A8B200F0A6
:100E6000B7FB641C24B2B9F1000F05DA09EB84006A
:100E7000801D0FFA80F907E0A01B09EB80000A3003
:100E80000FFA80F9761E36B2B4427FF768AF09B028
:100E9000BDE8F08F2DE9FE4F00250026171AA3EBC1
:100EA000010882468B46681E002F03DD4FF00101CA
:100EB000019107E003D14FF00001019102E00190A0
:100EC000C7F10007B8F1000F03DD4FF001000090FB
:100ED00007E003D14FF00000009002E00090C8F15D
:100EE0000008474501DD3C4600E044464FF000095C
:100EF000601C029017E05946504600F069FB3D44E3
:100F00004644A54204DD2D1B019850441FFA80FA87
:100F1000A64204DD361B009858441FFA80FB09F1F5
:100F200001091FFA89F902988145E4DDBDE8FE8FC9
:100F30002DE9F041064606980F4614461D46002846
:100F40000DD02B4622463946304600F0BDF91349F4
:100F500004FB05F0C988BDE8F04100F04DB8344409
:100F6000641EA2B23B4639463046FFF793FF3D442C
:100F70006D1EABB2A2B2A9B23046FFF78BFFABB287
:100F8000324639463046FFF785FFABB2A2B2A0B277
:100F90003946BDE8F041FFF77DBF00003800002072
:100FA00000B597B00121084600F098FD0421019199
:100FB0000B20039088060790002002900490059073
:100FC00006900891099008210A9110210B910C902C
:100FD0000E900F901090090211911290139014909E
:100FE00001A81590169008A8FFF70EFC0121042017
:100FF000FFF7F8FB17B000BD10B500222C244FF00E
:10100000D0431C8001E05980521C8242FBD310BDAA
:101010002DE9FC5F0121782000F052FD4FF000091E
:101020008DF8069001248DF8074002258DF80450B4
:1010300003208DF805004FF4804ACDF800A06946E2
:101040007648FFF755FC0C220E217448FFF78EFC02
:10105000E003009069467148FFF74AFC0C220F211B
:101060006E48FFF783FC009469466C48FFF740FC2C
:101070000C2200216948FFF779FC00956946674812
:10108000FFF736FC0C2201216448FFF76FFC80203B
:10109000009069466248FFF72BFC0C22072160484C
:1010A000FFF764FC4FF4807BCDF800B069465C48E4
:1010B000FFF71EFC0C2208215948FFF757FC660277
:1010C000009669465648FFF713FC0C220921544844
:1010D000FFF74CFCA702009769465148FFF708FC50
:1010E0000C220A214E48FFF741FC4FF40068CDF86E
:1010F000008069464A48FFF7FBFB0C220B21484859
:10110000FFF734FC2003009069464548FFF7F0FBE9
:101110000C2211464248FFF729FC60030090694603
:101120003F48FFF7E5FB0C220D213D48FFF71EFC71
:10113000CDF800A069463A48FFF7DAFB0C220E21F1
:101140003748FFF713FCE003009069463448FFF787
:10115000CFFB0C220F213248FFF708FCCDF800B07E
:1011600069462E48FFF7C4FB0C2208212B48FFF7E5
:10117000FDFB009669462948FFF7BAFB0C220921BE
:101180002648FFF7F3FB009769462448FFF7B0FBBA
:101190000C220A212148FFF7E9FB10200090694644
:1011A0001E48FFF7A5FB0C2204211C48FFF7DEFBBD
:1011B0002020009069461948FFF79AFB0C22052170
:1011C0001648FFF7D3FB0097164F69463846FFF7DE
:1011D0008FFB0C220A213846FFF7C8FB0094124F00
:1011E00069463846FFF784FB0C2200213846FFF79A
:1011F000BDFB8DF804408DF806908DF807408DF802
:101200000550CDF8008069463846FFF771FB00961F
:1012100069463846FFF76CFBBDE8FC9F000C0240B6
:1012200000100240001802400014024010B50728C8
:1012300029D8174A1070C4074FF4F07140F25633A2
:1012400022D05380918036234FF0D0410B80400153
:1012500048802A2008800020488048805088401E0E
:10126000C0F307234B80C0B248802B2008800020A9
:10127000488048809088401EC0F307224A80C0B250
:1012800048802C20088010BD51809380DBE700004F
:101290003800002010B5FFF7BBFEFFF781FE00F01D
:1012A0007BF900F02DF8074C2078FFF7BFFF0021F5
:1012B000A38862880846FFF7A3FBBDE81040012021
:1012C000FFF790BB3800002030B52A254FF0D044FE
:1012D0002580050A6580C5B265801044401E020A5B
:1012E0006280C0B260802B202080080A6080C8B273
:1012F0006080C818401E010A6180C0B2608030BDA5
:1013000070B54FF4A0452846FFF763FAFF204FF071
:10131000D0442080FF216180982161800620608078
:101320002846FFF756FABA202080602060802846C1
:10133000FFF74FFABC202080032060800E206080E1
:1013400061206080FF2060800520608060801B201D
:101350006080102060807320608063206080FF20A8
:1013600060806080052060806080002060806080F8
:10137000D5206080D02060800120608000206080C7
:10138000402060802846FFF724FABD2020800121FC
:101390006180232161804520608067216180012078
:1013A0006080232060804520608067206080284620
:1013B000FFF70FFABE202080012060802D20608082
:1013C000CB206080A220608062206080F22060805C
:1013D000E22060802220608060802846FFF7F9F9D3
:1013E000C7212180632161802846FFF7F2F9ED21B2
:1013F00021807F2161800F2161800020608028464C
:10140000FFF7E7F9C0202080032060800B20608078
:10141000002060802846FFF7DCF9FC2020800820AF
:1014200060802846FFF7D5F9DF202080002060800B
:101430006080608060806080202060802846FFF7A8
:10144000C8F9F3202080742060802846FFF7C1F996
:10145000F920208000206080FD2060808020608056
:101460006080C02060802846FFF7B3F9B420208058
:1014700002206080608060802846FFF7AAF9F7208C
:101480002080812060802846FFF7A3F9B1202080CA
:10149000002060801320608060802846FFF799F963
:1014A000F2212180C0216180022161804021618080
:1014B000282161802846FFF78CF9C121218017205F
:1014C0006080752060806080202060802846FFF763
:1014D00080F9E020208000206080052060800820C6
:1014E00060800C2060800F206080152060800920C3
:1014F00060800720608001206080062060800920D5
:10150000608016206080142060803E2060806080B3
:10151000002060802846FFF75CF9E1202080002051
:1015200060800920608012206080608013206080CD
:101530001C2060800720608008206080052060807B
:10154000082060800320608002206080042060808A
:101550001E2060801B206080002060802846FFF7EE
:1015600038F93A202080552060802846FFF731F96D
:1015700035202080002060802846FFF72AF91120BE
:1015800020802846FFF725F9292020802846BDE83D
:101590007040FFF71EB9000070B50A4D4FF40064AB
:1015A00021462846FFF7F2F940F6FF263046FFF7BE
:1015B00047FA21462846FFF7EBF93046BDE8704070
:1015C000FFF73EBA0014024001231A46FFF77CBE23
:1015D00010B5084C628890420AD2A288914207D284
:1015E000FFF7F2FFE188BDE810400120FFF704BDDE
:1015F00010BD0000380000202DE9F04F2DED068BC6
:1016000081B09A468046109C129B174600EE108AC5
:10161000F8EE400A00EE107AB8EE400AC0EE809A6A
:1016200000EE101AF8EE400A00EE10AAB8EE400ADA
:1016300080EE80AADFED42AAB0EE6A9AB8F1300FD0
:1016400078D84046484375D0B0F5106F72DC07FB80
:101650000AF000286ED0B0F5804F6BDA394880254B
:1016600001FB08F1CA1701EB52760BB1002229E009
:10167000002211E00021A35C25FA01FC13EA0C0F03
:1016800001D0012300E0002300F8013B491C89B28E
:101690000829F0D3521C92B2B2EBE60FEADB14E059
:1016A0000021A35C25FA01FC13EA0C0F01D00123F1
:1016B00000E0002300F8013B491C89B20829F0D35F
:1016C000521C92B2B2EBE60FEADBDFF878B0ABF572
:1016D000804600252CE0B0EE6A8ABCEEC90A10EE06
:1016E000100A80B208FB00B900241BE0FCEEC88A97
:1016F00018EE900A80B219F8000030557DB918EE46
:10170000100AFEF75DFD41EC100B18EE900A53EC49
:10171000102B214680B200900BA000F06FFC38EE39
:10172000298A641CBC42E1D339EE0A9A3E446D1CFE
:101730005545D0D301B0BDEC068BBDE8F08F00005D
:1017400000000000584000200D0A2078203D202590
:10175000642C737263785F31363D25662C28756979
:101760006E7431365F7429737263785F31363D254C
:10177000640000000148C068704700003800002085
:10178000014AD08011817047380000200149C860AB
:1017900070470000380000200149C88070470000F1
:1017A000380000202DE9F04F9BB0DFF8548298F804
:1017B0000000401C88F800009248FFF7E7FF002176
:1017C0004FF47840FFF7DCFF8F4C904D00212388C9
:1017D0002A880846FFF714F9FFF7CCFF8CA10020F8
:1017E000FFF7D2F900268AA0CDE9000630231A4679
:1017F00019463046FFF70EFA85A0CDE900063823DA
:101800001A4670210020FFF705FA4FF4FC673846AE
:10181000FFF7C2FF98F800207FA102A800F0FEFBAE
:10182000FFF7A8FFC088C0EBC00080B2FFF7FAF84E
:10183000FFF7A0FFC08802A9C0EBC00080B2FFF78D
:101840007DF9FFF797FFC088C0EBC00080B2FFF7BB
:10185000E9F81F20FFF7A0FFFFF78CFFC08873A1F6
:10186000C0EBC00080B2FFF78FF94FF47840FFF76C
:1018700093FF40F213134FF4D27A5246591F32208D
:10188000FFF708FB4FF4967840F277135246414633
:101890003220FFF7FFFA3846FFF77EFF40F2DB19F0
:1018A0004B4652464FF4B9713220FFF7F3FA4B46DC
:1018B0004FF4C879524649463220FFF7EBFA1F2011
:1018C000FFF76AFF40F24513524651463220FFF7B8
:1018D000E1FA40F28B1352464FF4E1713220FFF7E8
:1018E000D9FA6FF07D4A5046FEF76AFF20882A88B1
:1018F000E03883B2E0210020FFF782F8FFF73AFFDB
:10190000C188C1EBC10080B2FFF78CF81F20FFF740
:1019100043FFFFF72FFFC08846A1C0EBC00080B295
:10192000FFF732F94FF47840FFF736FF4FF0010B25
:101930006423C82241463220CDF800B0FFF7F8FA00
:101940003846FFF729FF7823C822414664200096D5
:10195000FFF7EEFA1F20FFF71FFF9623C82241462C
:10196000FA20CDF800B0FFF7E3FA5046FEF728FF63
:1019700020882A88E03883B2E0210020FFF740F871
:10198000FFF7F8FEC088C0EBC00080B2FFF74AF84E
:101990001F20FFF701FFFFF7EDFEC08827A1C0EB76
:1019A000C00080B2FFF7F0F84FF47840FFF7F4FE84
:1019B00001233C2249469620FFF7C4F93846FFF739
:1019C000EBFE00233C224946FA20FFF7BBF91F201B
:1019D000FFF7E2FE01233C2249464FF4AF70FFF7C8
:1019E000B1F95046FEF7ECFE20882A88E03883B231
:1019F000E0210020FFF704F81BB0BDE8F08F0000E5
:101A000010000020480000203C0000203A00002088
:101A1000B1FCBBF042480000CFD4CABEB1E4C1BFA4
:101A2000BCC6CAFD203A202564200000BBADD6B15B
:101A3000CFDF3A00BBADBED8D0CE3A00BBADD4B2FA
:101A40003A000000FEE77047704700002DE9F041C2
:101A50000025164E002416F81500A040000603D5F8
:101A600013A000F0CBFA02E012A000F0C7FA641C49
:101A7000082CF0DB002406EB45077878A040000630
:101A800003D50BA000F0BAFA02E00AA000F0B6FA03
:101A9000641C082CF1DB08A000F0B0FA6D1C102DBE
:101AA000D8DBBDE8F04105A000F0A8BA1100002085
:101AB0002A000000200000000A0000000A0A0000BE
:101AC000054A002903D0116801431160704711686D
:101AD000814311607047000030380240054A0029F8
:101AE00003D0116801431160704711688143116090
:101AF0007047000038380240054A002903D01168B9
:101B00000143116070471168814311607047000004
:101B10004438024070B5244B196801F00C01234C85
:101B200000291ED0224E04291DD008291DD0046092
:101B3000196801F0F00109091E4A545C0168E1408E
:101B400041601C6804F4E054A40A145D21FA04F412
:101B500084601B6803F460435B0BD25CD140C160BE
:101B600070BD0460E4E70660E2E70F4A121F1168E7
:101B7000C1F38055116801F03F0135B1B6FBF1F1B9
:101B80001468C4F38814614305E0B4FBF1F11468F0
:101B9000C4F3881461431268C2F30142521C52001C
:101BA000B1FBF2F10160C3E7083802400024F40001
:101BB00040787D0100000020002904D0018841F018
:101BC000400101807047018821F040010180704789
:101BD0002DE9F04104460F4615460F484026068081
:101BE000032000F085F8C7F3074000F081F8C7F341
:101BF000072000F07DF8F8B200F07AF804E0FF204A
:101C000000F076F804F8010B6D1EADB2F7D2024871
:101C1000801E0680BDE8F0811A180240F0B587B03A
:101C200001214220FFF74CFF01210803FFF764FF69
:101C30002C4E052203213046FEF798FE0522042192
:101C40003046FEF793FE052211463046FEF78EFE23
:101C50000820009002258DF805508DF804500024CE
:101C60008DF806408DF8074069463046FEF740FE85
:101C70001021009169463046FEF73AFE2020009080
:101C800069463046FEF734FE4026009601278DF85F
:101C9000047069461448FEF72BFE1348183006807E
:101CA000ADF808404FF48270ADF80A00ADF80C4072
:101CB000ADF80E50ADF810702802ADF81200ADF876
:101CC0001440ADF816400720ADF81800074C02A9E3
:101CD000204600F050F801212046FFF76DFF07B0C5
:101CE000F0BD000000040240001802400030014036
:101CF0002DE9F0410746184C4FF480552560174EEA
:101D000009E02068411E216005D2002000F050F853
:101D1000C0B2BDE8F0810221304600F021F8002871
:101D2000EFD03946304600F024F8256008E02168FD
:101D30004A1E226004D2012000F03AF8C0B2E8E75F
:101D40000121304600F00CF80028F0D0304600F0B9
:101D50000EF8C0B2DDE70000340000200030014082
:101D60000246002012890A4200D001207047808973
:101D700070478181704730B5028802F441530A8868
:101D80004C88CD8822438C882C4322430C892243E3
:101D90004C8922438C892243CC8922431A430280F6
:101DA000828B22F400628283098A018230BD0000A6
:101DB00010B5014602A000F021F9002010BD00007E
:101DC0003C3C2D464C4153482D4552524F522D3EDE
:101DD0003E2053504920B5C8B4FDB3ACCAB121650B
:101DE00072726F72436F6465203D2025640A0000A3
:101DF000704700000CB50022019200922749086844
:101E000040F4803008604FF4A043086800F40030CC
:101E100000900198401C0190009810B901989842D8
:101E2000F3D10868800302D50120009000E0009201
:101E30000098012831D119484030026842F08052A0
:101E400002601748026842F44042026013480830BA
:101E500002680260026842F400420260026842F4D2
:101E6000A0520260021F0F4B13600A6842F080729A
:101E70000A600A689201FCD50B4A40F205711160B4
:101E8000016821F003010160016841F00201016075
:101E90000168C1F381010229FAD10CBD003802406A
:101EA0000070004019544007003C02407047000099
:101EB00010B51248016841F47001016010480168D2
:101EC00041F0010101600E4A0021083211600268F0
:101ED0000C4B1A400260031D0B4A1A60026822F480
:101EE0008022026006480C300160FFF783FF03493F
:101EF0004FF000608039086010BD000088ED00E000
:101F000000380240FFFFF6FE10300024002904D004
:101F1000818941F4005181817047818921F4005108
:101F2000818170470246002012880A4200D00120B9
:101F3000704700007FB504460D46208A20F44051CA
:101F4000E88808432082A08941F20C618843A9886F
:101F50002A8911436A8902431143A181A08A20F48E
:101F60004071A8890843A0826846FFF7D3FD1E4848
:101F7000844202D01D48844201D1039800E00298B7
:101F8000A189090408D500EBC00101EB0010296804
:101F90004900B0FBF1F007E000EBC00101EB0010DD
:101FA00029688900B0FBF1F06422B0FBF2F109016D
:101FB0000B096FF018056B4300EB8300A3891D0428
:101FC0004FF0320307D503EBC000B0FBF2F000F096
:101FD0000700084306E003EB0010B0FBF2F000F04E
:101FE0000F00084320817FBD001001400014014014
:101FF000C1F3080181807047FEE700000FB4054B74
:1020000010B503A9044A029800F0EEF810BC5DF880
:1020100014FB000021290008540000200FB4084BD5
:1020200010B504A902AA039800F0DEF8044602A93C
:10203000002000F070FC204610BC5DF814FB00008E
:102040001729000802E008C8121F08C1002AFAD1A7
:1020500070477047002001E001C1121F002AFBD128
:10206000704700002DE9FF5F82B00021DDE90430F8
:10207000020DDDF840B0034318D044F61050A2F230
:10208000FF3242431514119801281FD0A5EB0B0015
:10209000401C5FEA000A4FF000064E4FDFF838910F
:1020A000B046504615D5CAF1000413E0119801243A
:1020B0004AA3012801D16FEA0B010298119AC0E9E5
:1020C0000031C0E9024206B0BDE8F09FCBF100004C
:1020D000DFE704460021404A491842EB0450CDE9AD
:1020E000001012E0E00707D032463B464046494622
:1020F000FEF767F98046894632463B461046194648
:10210000FEF75FF906460F466410002CEAD1DDE9C0
:102110000401DDE90023BAF1000F06DAFEF751F9F8
:1021200042464B46FEF74DF905E0FEF7BCF9424644
:102130004B46FEF7B8F904460E460022284BFEF740
:1021400039FA03D84FF0FF30014607E00022254B53
:1021500020463146FEF78EF8FEF714FA102409E007
:10216000002C0ADB0A220023FEF753F8039B3032CF
:102170001A55641E50EA0102F2D1641C039AC4F19C
:1021800011031444119A012A03D0012208430DD1EE
:102190000AE0084304D000204FF0110B119072E7C1
:1021A000A3EB0B056D1E0DE05B4504DD4FF0000257
:1021B00005F1010504E003DA4FF00002A5F1010585
:1021C000002AECD002981199C0E90231C0E900451B
:1021D00079E70000000014400000F03F30000000EC
:1021E0000000F0430000E03F2DE9FF4F95B09B4613
:1021F0008946064600250FE2252877D10024274688
:10220000F84A0121059400E0044316F8013F203B01
:1022100001FA03F01042F7D130782A2811D06FF07C
:102220002F033078A0F13002092A16D8059A44F01D
:10223000020402EB820203EB42021044761C05907A
:10224000EFE759F8042B0592002A03DA504244F4D0
:102250000054059044F00204761C30782E2816D1E4
:1022600016F8010F44F004042A280DD06FF02F0255
:102270003078A0F13003092B09D807EB870302EB74
:102280004303C718761CF3E759F8047B761C3078B3
:102290006C280FD006DC4C2817D068280DD06A288F
:1022A00014D104E0742810D07A280FD10DE044F442
:1022B00000140AE044F4801401E044F440147278FD
:1022C000824202D104F58014761C761C3078662890
:1022D0000BD013DC582877D009DC002875D04528AE
:1022E000F6D04628F4D047281AD19DE118E063289B
:1022F00035D0642879D0652812D195E1702873D043
:1023000008DC6728F1D069286FD06E280DD06F28BF
:1023100006D1B5E073282CD0752875D0782874D0F4
:102320005A46179990476D1C75E1C4F30250022874
:1023300009D003280DD0D9F8001004280DD00D6065
:1023400009F1040967E1D9F80010EA17C1E9005260
:10235000F6E7D9F800100D80F2E70D70F0E719F8F4
:10236000041B8DF8001000208DF80100EA460120C2
:1023700003E059F804AB4FF0FF3061074FF0000164
:1023800002D40DE008F101018846B9420FDA804518
:10239000F8DB1AF808100029F4D108E008F101016F
:1023A00088468142FADB1AF808100029F6D1059810
:1023B0005B46A0EB080721463846179A00F094FACE
:1023C000284400EB080507E04DE029E10DE01AF88C
:1023D000010B5A4617999047B8F10108F7D25B46AE
:1023E00021463846179A13E142E00A220092C4F3CC
:1023F00002524FF0000A022A08D059F804CB032AEF
:102400004FEAEC710AD00DE029E02AE009F107015A
:1024100021F00702F2E802C1914609E00FFA8CFCB4
:102420004FEAEC71042A03D14FFA8CFC4FEAEC71AD
:10243000002907DA0A460021DCF1000C61EB0201F9
:102440002D2202E0220504D52B228DF80420012242
:1024500003E0E20701D02022F7E7904659E00A2185
:1024600002E010220DE010214FF0000A00910BE075
:1024700010224FF0000A44F004040827009203E001
:1024800008224FF0000A0092C4F30252022A05D03B
:1024900059F804CB0021032A08D009E009F107010B
:1024A00021F00702F2E802C1914605E01FFA8CFC18
:1024B000042A01D10CF0FF0C4FF00008220728D5A8
:1024C000702806D0009B83F0100353EA0A0305D05E
:1024D0000EE040228DF80420012208E05CEA0102AF
:1024E00006D030228DF804208DF805000222904697
:1024F000009B83F0080353EA0A030AD15CEA010255
:1025000001D1620705D530228DF804204FF0010873
:102510007F1E582804D034A003900EA802900DE02E
:1025200036A0F9E753466046009AFDF772FE8446EE
:102530000398825C0298401E029002705CEA0100DF
:10254000F0D1029806A9081A00F1200A600702D506
:1025500024F4803400E00127574502DDA7EB0A0090
:1025600000E0002000EB0A01009005984144401A69
:102570000590E00306D45B462146179A059800F0C3
:10258000B3F90544002706E001A85A46C05D179933
:1025900090476D1C7F1C4745F6DBE0030CD55B467E
:1025A0002146179A059800F09FF9054404E0302071
:1025B0005A46179990476D1C0099481E00900029B3
:1025C000F5DC08E0029802995A460078491C02910D
:1025D000179990476D1CBAF10001AAF1010AF1DCCC
:1025E00065E10000092801003031323334353637D7
:1025F000383961626364656600000000303132334F
:1026000034353637383941424344454600000000EE
:1026100000F058F90544761C307800287FF4ECADC2
:1026200019B02846BDE8F08F620700D4062709F1EB
:10263000070222F0070CFCE80223E14603F0004801
:102640005FEA080C02D00FF2702C0DE05FEA045C28
:1026500002D50FF2682C07E05FEAC47C02D00FF2CB
:10266000602C01E0AFF2700C4FF0FF3823F0004314
:10267000CDF850C065280CD006DC452809D0462886
:102680001DD047283DD13DE0662818D067287ED16F
:1026900038E00021112F01DB112000E0781CCDE98A
:1026A000000106A90EA8FFF7DDFCDDE90F010E9A77
:1026B00003910021009207F1010A04914DE04FF0CF
:1026C00000400097CDE9011006A90EA8FFF7CAFC4B
:1026D000DDE90F0203920E9B11990022DDF80CA098
:1026E0000093049211B9791C00EB010AB7EB0A00C0
:1026F00004D4C0F1FF3007F1010A0490AAEB0700EF
:10270000019044E0012F00DA01270021112F01DDA3
:10271000112000E03846CDE9000106A90EA8FFF718
:10272000A1FCDDE90F010E9A0391002104910092B2
:10273000BA4621070CD40399514500DA8A46BAF10A
:10274000010F05DD009AAAF10101515C302908D082
:10275000B84202DA10F1040F06DA0121CDE90110C6
:1027600015E0AAF10101E9E7002805DC049901441C
:102770000491AAEB000102E0411C514500DD8A46AC
:102780000499401A401C01904FF00040029020072D
:1027900004D40198504501DBCDF8048000208DF869
:1027A0004F0002980DF14F07B0F1004F25D02B20BC
:1027B0000E9002984FF0020800280CDA4042029076
:1027C0002D200E9007E00A210298FDF70CFD303114
:1027D000029007F8011DB8F10001A8F10108F2DC30
:1027E00002980028EFD1791E0E980870307800F01A
:1027F000200040F0450007F8020D12A8C01B00F1B0
:1028000007081498007800B1012000EB0A01019834
:1028100001EBE07105984144401A401E0590E00329
:1028200006D45B462146179A059800F05DF80544EA
:102830001498007818B15A46179990476D1CE00318
:1028400024D55B462146179A059800F04DF80544BB
:102850001CE00498002807DBDDE90301884203DD62
:102860000098405C179901E0179930205A4690472C
:10287000049805F10105401C04900198401E019048
:1028800004D12E205A46179990476D1CBAF10001C9
:10289000AAF1010ADDDC05E017F8010B5A46179989
:1028A00090476D1CB8F10001A8F10108F4DC5B460B
:1028B0002146179A0598ABE62D0000002B0000007A
:1028C000200000002DE9F041044600251E46174671
:1028D000880404D405E039462020B0476D1C641EEE
:1028E000F9D52846BDE8F0812DE9F04104460025E0
:1028F0001E469046C80301D5302700E020278804F3
:1029000004D505E041463846B0476D1C641EF9D534
:102910002846BDE8F0810A68531C0B6010707047B0
:1029200070B50446064DE1B22846FFF761FB8021F1
:102930002846FFF7F7FA0028F9D0204670BD0000BE
:1029400000100140FEF7A6FCFDF7EEFE0648FFF77B
:1029500055FB0648FFF752FB0620FEF767FCFFF722
:1029600075F8FEF71FFFFCE73041000874410008CE
:102970000000000000000000000000000000000057
:102980000000000000000000000000000000000047
:102990000000000000000000000000000000000037
:1029A0000000000000000000000000000000000027
:1029B0000000000000000000000000000380038011
:1029C00001800180018001800180018001800180FF
:1029D000018001800180018000000000038003C0AD
:1029E0000380000000000000000000000000000064
:1029F0000000000000000000000000000E700E70DB
:102A00000E700E700E700C300C30000000000000D4
:102A100000000000000000000000000000000000B6
:102A200000000000000000000000000000000000A6
:102A30000000000000000000000000000000000096
:102A400006180638063006307FFE7FFE0C300C304C
:102A50000C300C307FFE7FFE0C601C60186018602C
:102A600018600000000000000000000000000000EE
:102A70000000000000000000000000C000C000C016
:102A800007F81FF838C031C0318039803D801F8081
:102A900007F001F803BC031C030C031C233C3FF8A4
:102AA0003FE00700060006000000000000000000F4
:102AB0000000000000000000000000001C077E066F
:102AC000630C6318633863307E603CE000C00180B3
:102AD00003800338067E0CC61CC618C630C670EECE
:102AE000607C00000000000000000000000000000A
:102AF00000000000000000000000000000000FC007
:102B00001FE018703870387018701CE00FC00F008C
:102B10003F8C3B8C71CC60EC607C7038707C3FFEED
:102B20001FCF0000000000000000000000000000B7
:102B300000000000000000000000000003C003C00F
:102B400003800180018001800180000000000000FE
:102B50000000000000000000000000000000000075
:102B60000000000000000000000000000000000065
:102B700000000000000000000000000000300060C5
:102B800000E001C0038003000700070006000E00FC
:102B90000E000E000E000E000E00060007000700DB
:102BA0000380038001C000E00070003000000000DE
:102BB0000000000000000000000000000C000E00FB
:102BC0000700038001C001C000E000E00060007069
:102BD00000700070007000700060006000E000E0B5
:102BE00001C001C0038007000E000C0000000000BF
:102BF00000000000000000000000000001800180D3
:102C0000018819980FF803C003C01FF819980180B4
:102C100001800180000000000000000000000000B2
:102C200000000000000000000000000000000000A4
:102C30000000000000000000000000000000000094
:102C400000000000000001800180018001800180FF
:102C500001807FFE7FFE0180018001800180018074
:102C60000000000000000000000000000000000064
:102C70000000000000000000000000000000000054
:102C80000000000000000000000000000000000044
:102C900000000000000000000000038003C003C02B
:102CA00001C001C001C007801F001000000000002B
:102CB0000000000000000000000000000000000014
:102CC0000000000000000000000000000000000004
:102CD00000000FF00FF000000000000000000000F6
:102CE00000000000000000000000000000000000E4
:102CF00000000000000000000000000000000000D4
:102D000000000000000000000000000000000000C3
:102D10000000000000000000000003C003C003C06A
:102D200003C00000000000000000000000000000E0
:102D3000000000000000000000000000001C00185F
:102D40000038003000700060006000C000C001C0AA
:102D5000018003800300070006000E000C000C0039
:102D600018001800380030000000000000000000CB
:102D70000000000000000000000000000000000053
:102D800007F01FF81838381C300C303C707E71EE9C
:102D900073CE7F0E7E0E380C300C381C1C381FF0A2
:102DA00007E000000000000000000000000000003C
:102DB0000000000000000000000000000000000013
:102DC00003C00FC03FC039C001C001C001C001C075
:102DD00001C001C001C001C001C001C001C03FFC71
:102DE0003FFC0000000000000000000000000000A8
:102DF00000000000000000000000000000000000D3
:102E00000FE03FF018380038001800180038003084
:102E1000007000E001C0038007000E001C003FFCB2
:102E20003FFC000000000000000000000000000067
:102E30000000000000000000000000000000000092
:102E40001FE01FF00038003800380038007007E03D
:102E500007F00078001C001C001C001C00383FF02C
:102E60003FC0000000000000000000000000000063
:102E70000000000000000000000000000000000052
:102E800000F001F001B00330073006300C301C3088
:102E90003830303070307FFE7FFE00300030003040
:102EA00000300000000000000000000000000000F2
:102EB0000000000000000000000000000000000012
:102EC0001FF81FF8180018001800180018001FE05D
:102ED0001FF80038001C001C001C001800381FF0F0
:102EE0001FC0000000000000000000000000000003
:102EF00000000000000000000000000000000000D2
:102F000001F807F80E001C001800380031C03FF827
:102F10003E3C301C300C300C380C380C1C1C1FF89C
:102F200007E00000000000000000000000000000BA
:102F30000000000000000000000000000000000091
:102F40003FFC3FFC001C001800380030007000609F
:102F500000E000C001C001800380070007000E00F0
:102F60000E00000000000000000000000000000053
:102F70000000000000000000000000000000000051
:102F80000FF01E78381C381C381C3C181E780FE0D7
:102F900007E01E783C3C381C300C300C381C1FF805
:102FA0000FF0000000000000000000000000000022
:102FB0000000000000000000000000000000000011
:102FC0000FE01E783838301C701C700C300C381C28
:102FD0003EFC0FEC001C001C0018003800F01FE045
:102FE0001F000000000000000000000000000000C2
:102FF00000000000000000000000000000000000D1
:10300000000000000000000003C003C003C00180F6
:1030100000000000000000000000018003C003C0A9
:1030200003C00000000000000000000000000000DD
:103030000000000000000000000000000000000090
:10304000000000000000000003C003C003C00180B6
:103050000000000000000000000003C003C003C027
:1030600001C001C001C007800F0000000000000087
:103070000000000000000000000000000000000050
:103080000000000000100038007001E003C00700DD
:103090000E003C001C000E00078001C000E000781C
:1030A0000010000000000000000000000000000010
:1030B0000000000000000000000000000000000010
:1030C00000000000000000000000000000003FFCC5
:1030D0000000000000003FFC3FFC0000000000007A
:1030E00000000000000000000000000000000000E0
:1030F00000000000000000000000000000000000D0
:103100000000000008001C000E00070003C000E0E3
:103110000070003C0038007001E0038007001E00D2
:103120000800000000000000000000000000000097
:103130000000000000000000000000000E000FC0B2
:1031400003E000700038003800380038007803F0E1
:1031500003C0030003000300000000000700078015
:103160000700000000000000000000000000000058
:1031700000000000000000000000000001E007F86F
:103180000E1C1C0E18063006300361F363F3663321
:10319000E673CE63CC63CC66CC66CCE6CFFCC73C92
:1031A00060006000600030003C301FF00000000054
:1031B000000000000000000000000000000000000F
:1031C00003C003C007E006E006600E700C700C3010
:1031D0001C381838381C3FFC3FFC700E700E60061F
:1031E000E0070000000000000000000000000000F8
:1031F00000000000000000000000000000000000CF
:103200003FF03FF83838381C381C381838383FF051
:103210003FF0383C381C380C380C381C383C3FF830
:103220003FE000000000000000000000000000007F
:10323000000000000000000000000000000000008E
:1032400007FC0FFC1E0038003800300070007000D2
:10325000700070007000300038003C001E040FFC4D
:1032600003FC00000000000000000000000000005F
:10327000000000000000000000000000000000004E
:103280003FE03FF03038301C300C300E300E300E46
:10329000300E300E300E300C301C301C30783FF0C9
:1032A0003F8000000000000000000000000000005F
:1032B000000000000000000000000000000000000E
:1032C0001FF81FF8180018001800180018001FF841
:1032D0001FF81800180018001800180018001FF830
:1032E0001FF80000000000000000000000000000C7
:1032F00000000000000000000000000000000000CE
:103300001FF81FF8180018001800180018001FF800
:103310001FF81800180018001800180018001800EE
:103320001800000000000000000000000000000085
:10333000000000000000000000000000000000008D
:1033400007FC0FFC1C00380030007000700070FC9F
:1033500070FC700C700C700C300C380C1C0C0FFCDA
:1033600007FC00000000000000000000000000005A
:10337000000000000000000000000000000000004D
:10338000300C300C300C300C300C300C300C3FFC5E
:103390003FFC300C300C300C300C300C300C300C4E
:1033A000300C0000000000000000000000000000E1
:1033B000000000000000000000000000000000000D
:1033C0003FFC3FFC01800180018001800180018081
:1033D00001800180018001800180018001803FFC2B
:1033E0003FFC0000000000000000000000000000A2
:1033F00000000000000000000000000000000000CD
:103400001FF01FF00030003000300030003000307E
:1034100000300030003000300030003010701FE00D
:103420001FC00000000000000000000000000000BD
:10343000000000000000000000000000000000008C
:10344000381C3838387038E038C039803B003F00CD
:103450003F003B003B8039C038E038703838383C9A
:10346000381C000000000000000000000000000008
:10347000000000000000000000000000000000004C
:103480001C001C001C001C001C001C001C001C005C
:103490001C001C001C001C001C001C001C001FFC4D
:1034A0001FFC000000000000000000000000000001
:1034B000000000000000000000000000000000000C
:1034C000381C381C6C3E6C3E6C6E666E666E67CE49
:1034D00063CE6386618660066006600660066006ED
:1034E0006006000000000000000000000000000076
:1034F00000000000000000000000000000000000CC
:10350000380C3C0C3C0C3E0C360C370C330C338C1A
:10351000318C31CC30CC30EC306C307C303C303CB9
:10352000301C00000000000000000000000000004F
:10353000000000000000000000000000000000008B
:103540000FF01FF8381C381C700E700E700E6006DD
:1035500060066006700E700E700C381C3C381FF848
:103560000FE000000000000000000000000000006C
:10357000000000000000000000000000000000004B
:103580003FE03FF8383C381C380C380C380C381CFD
:1035900038783FF03FC03800380038003800380035
:1035A00038000000000000000000000000000000E3
:1035B000000000000000000000000000000000000B
:1035C0000FF01FF8381C381C700E700E700E60065D
:1035D00060066006700E700E700C381C3C381FF8C8
:1035E0000FE00180018001E200FF003C00000000CC
:1035F00000000000000000000000000000000000CB
:103600003FE03FF8383838183818381838383FF065
:103610003FC039E03860387038383838381C381CCA
:10362000380E000000000000000000000000000054
:10363000000000000000000000000000000000008A
:103640000FF81FF838003800300038001E000F80D7
:1036500007F000F8003C001C001C001C003C3FF878
:103660003FE000000000000000000000000000003B
:10367000000000000000000000000000000000004A
:103680007FFE7FFE0180018001800180018001803A
:103690000180018001800180018001800180018022
:1036A0000180000000000000000000000000000099
:1036B000000000000000000000000000000000000A
:1036C000300C300C300C300C300C300C300C300C1A
:1036D000300C300C300C300C300C301C381C1FF807
:1036E0000FE00000000000000000000000000000EB
:1036F00000000000000000000000000000000000CA
:10370000E0077006700E700E380C381C38181C1844
:103710001C380C300E700E70066007E007E003C026
:1037200003C00000000000000000000000000000D6
:103730000000000000000000000000000000000089
:10374000600660066006600660066006618663C605
:1037500073C673CE76EE366C366C3C7C3C3C3C3C9F
:10376000381C000000000000000000000000000005
:103770000000000000000000000000000000000049
:10378000700E381C1C381C380E7006E007E003C0B1
:1037900003C003C007E00E701C301C38381C701EBC
:1037A000700E00000000000000000000000000009B
:1037B0000000000000000000000000000000000009
:1037C000E006700E380C381C1C381C300E70066079
:1037D00007E003C001800180018001800180018039
:1037E0000180000000000000000000000000000058
:1037F00000000000000000000000000000000000C9
:103800003FFC3FFC001C00380070006000E001C07D
:103810000380038007000E000C001C0038003FFCF2
:103820003FFC00000000000000000000000000005D
:1038300000000000000000000000000007F007F09A
:103840000600060006000600060006000600060048
:103850000600060006000600060006000600060038
:103860000600060006000600060007F00000000043
:1038700000000000000000000000000038001800F8
:103880001C000C000C00060006000700030003806B
:10389000018001C000C000E0006000600030003026
:1038A00000380018001C000C0000000000000000A0
:1038B0000000000000000000000000000FE00FE02A
:1038C00000600060006000600060006000600060F8
:1038D00000600060006000600060006000600060E8
:1038E000006000600060006000600FE00000000009
:1038F00000000000000000000000000000000000C8
:10390000038003C006E006600C301C381818301C19
:1039100000000000000000000000000000000000A7
:103920000000000000000000000000000000000097
:103930000000000000000000000000000000000087
:103940000000000000000000000000000000000077
:103950000000000000000000000000000000000067
:103960000000000000000000FFFFFFFF000000005B
:103970000000000000000000000000001C000E001D
:1039800007000180000000000000000000000000AF
:103990000000000000000000000000000000000027
:1039A0000000000000000000000000000000000017
:1039B0000000000000000000000000000000000007
:1039C00000000000000000001FF01EF80018001C9E
:1039D000001C07FC1FFC3C1C381C301C387C3FFCC6
:1039E0001FDC0000000000000000000000000000DC
:1039F0000000000000000000000000003800380057
:103A000038003800380038003BF03FF83E1C380CD6
:103A1000380C380C380C380C380C381C38383FF05F
:103A20001FE0000000000000000000000000000097
:103A30000000000000000000000000000000000086
:103A4000000000000000000003F80FF81E001C003A
:103A5000380038003800380038001C001E000FF80D
:103A600003F800000000000000000000000000005B
:103A7000000000000000000000000000001C001C0E
:103A8000001C001C001C001C07FC1FFC181C381C20
:103A9000301C301C301C301C301C383C387C1FDC87
:103AA0000F9C00000000000000000000000000006B
:103AB0000000000000000000000000000000000006
:103AC000000000000000000007F01E78181C381CE1
:103AD000300C3FFC3FFC3000300038001C001FFC65
:103AE00007FC0000000000000000000000000000D3
:103AF000000000000000000000000000007E01FE49
:103B000003C0038003000300030003007FFC7FFC6D
:103B1000030003000300030003000300030003008D
:103B20000300000000000000000000000000000092
:103B30000000000000000000000000000000000085
:103B400000000000000000000FFE1C7E183838182E
:103B5000381838381C781FF03B80300038001FF8C8
:103B60001FFC300E700E700C3C3C1FF801800000F2
:103B700000000000000000000000000038003800D5
:103B800038003800380038003BF03FF83C18381C4B
:103B9000381C381C381C381C381C381C381C381C85
:103BA000381C0000000000000000000000000000C1
:103BB000000000000000000000000000018003C0C1
:103BC00003C00180000000001FC01FC001C001C071
:103BD00001C001C001C001C001C001C001C03FFC63
:103BE0003FFC00000000000000000000000000009A
:103BF00000000000000000000000000000600070F5
:103C000000700070000000003FF03FF00070007096
:103C10000070007000700070007000700070007024
:103C2000007000700070006039E03FC006000000C6
:103C30000000000000000000000000001800180054
:103C40001800180018001800181C1838187019E00F
:103C50001BC01F001B8019C019E018F01878183C11
:103C6000181E00000000000000000000000000001E
:103C70000000000000000000000000001FC01FC086
:103C800001C001C001C001C001C001C001C001C02C
:103C900001C001C001C001C001C001C001C03FFCA2
:103CA0003FFC0000000000000000000000000000D9
:103CB0000000000000000000000000000000000004
:103CC00000000000000000006F3C6FEC79CE71CE68
:103CD000718E718E718E718E718E718E718E718EEC
:103CE000718E0000000000000000000000000000D5
:103CF00000000000000000000000000000000000C4
:103D0000000000000000000033F03FF83C18381CB1
:103D1000381C381C381C381C381C381C381C381C03
:103D2000381C00000000000000000000000000003F
:103D30000000000000000000000000000000000083
:103D400000000000000000000FF01FF8381C300CCD
:103D5000300C700E700E700E300C381C38381FF896
:103D60000FE0000000000000000000000000000064
:103D70000000000000000000000000000000000043
:103D800000000000000000003BF03FF83E1C380C33
:103D9000380C380C380C380C380C381C38383FF0DC
:103DA0003FE03800380038003800380000000000DC
:103DB0000000000000000000000000000000000003
:103DC000000000000000000007FC1F7C181C381CCD
:103DD000301C301C301C301C301C383C387C1FDC44
:103DE0000F9C001C001C001C001C001C000000009C
:103DF00000000000000000000000000000000000C3
:103E0000000000000000000019F81BFC1E0C1C0C38
:103E1000180E1800180018001800180018001800D4
:103E2000180000000000000000000000000000007A
:103E30000000000000000000000000000000000082
:103E400000000000000000000FF81E3818001800E5
:103E50001C000F8007F000F80038001C00181FF845
:103E60001FE0000000000000000000000000000053
:103E70000000000000000000000000000000000042
:103E800006000600060006007FFC7FFC0600060018
:103E9000060006000600060006000600070003FCF8
:103EA00001FC000000000000000000000000000015
:103EB0000000000000000000000000000000000002
:103EC0000000000000000000381C381C381C381CA2
:103ED000381C381C381C381C381C383C187C1FFC1B
:103EE0000F9C000000000000000000000000000027
:103EF00000000000000000000000000000000000C2
:103F00000000000000000000700E300C381C181873
:103F10001C381C300C300E70066007E007C003C070
:103F200003C00000000000000000000000000000CE
:103F30000000000000000000000000000000000081
:103F40000000000000000000600660066006618658
:103F5000718E73CE33CC32EC366C366C3C7C3C3C90
:103F60001C380000000000000000000000000000FD
:103F70000000000000000000000000000000000041
:103F80000000000000000000381C1C181C380E70D7
:103F900007E003C003C003C007E00E701C38381CE4
:103FA000781E00000000000000000000000000007B
:103FB0000000000000000000000000000000000001
:103FC0000000000000000000700E300C381C1818B3
:103FD0001C381C380E300E70066007E003E003C08A
:103FE00003C00380038007007E007C000000000007
:103FF00000000000000000000000000000000000C1
:1040000000000000000000001FF81FF800380070DA
:1040100000E001C00380030007000E001C003FFC0D
:104020003FFC000000000000000000000000000055
:1040300000000000000000000000000000F801F88F
:1040400001800380038003800380038003800300DA
:104050003F003C000F0003000380038003800380C7
:10406000038003800380018001E000F8000000006D
:1040700000000000000001800180018001800180BB
:104080000180018001800180018001800180018028
:104090000180018001800180018001800180018018
:1040A000018001800180018001800180000000000A
:1040B0000000000000000000000000001E001F8043
:1040C000018001C001C001C001C001C001C000C029
:1040D00000FC003C00E000C001C001C001C001C004
:1040E00001C001C001C0018007801F000000000066
:1040F00000000000000000000000000000000000C0
:1041000000000000000000000000000000001E0091
:104110003F06738661FC60FC0000000000000000A8
:10412000000000000000000000000000000000008F
:104130000D0A202A2A2A2A2A2A2A2A2A2A20D2BAF8
:10414000BEA7C6C1D6D0CEC4CFD4CABEB3CCD0F2DF
:10415000A3A8D7D6BFE2D4DACDE2B2BF464C4153D2
:1041600048A3A92A2A2A2A2A2A2A2A2A2A2A200DC0
:104170000A0000000D0A20C8F4BABAD7D6CFD4CAB4
:10418000BEB2BBD5FDB3A3A3ACC7EBD4C4B6C1B913
:10419000A4B3CCD6D0B5C4726561646D652E747855
:1041A00074CEC4BCFECBB5C3F7A3ACB8F9BEDDD2A8
:1041B000AAC7F3B8F8464C415348D6D8CBA2D7D6B5
:1041C000C4A3CAFDBEDD0D0A00000000EC410008DA
:1041D000000000205800000044200008444200086D
:1041E0005800002080480000542000080000000013
:1041F000010203040102030406070809000100216B
:104200000811080910092001007FF80008000800C3
:10421000083FF80008000800087FF80008000000C8
:1042200000A0000006005603E001FFFF00000000B0
:104230004800002070290008100020000000000045
:04424000000000007A
:040000050800018965
:00000001FF
