:020000040800F2
:10000000C02A002045010008851300088713000856
:100010008B1300088F1300089313000800000000E2
:10002000000000000000000000000000971300081E
:1000300099130008000000009B1300089D1300089E
:100040005F0100085F0100085F0100085F01000810
:100050005F0100085F0100085F0100085F01000800
:100060005F0100085F0100085F0100085F010008F0
:100070005F0100085F0100085F0100085F010008E0
:100080005F0100085F0100085F0100085F010008D0
:100090005F0100085F0100085F0100085F010008C0
:1000A0005F0100085F0100085F0100085F010008B0
:1000B0005F0100085F0100085F0100085F010008A0
:1000C0005F0100085F0100085F0100085F01000890
:1000D0005F0100085F0100085F0100085F01000880
:1000E0005F0100085F0100085F0100085F01000870
:1000F0005F0100085F0100085F0100085F01000860
:100100005F0100085F0100085F0100085F0100084F
:100110005F0100085F0100085F0100085F0100083F
:100120005F0100085F0100085F0100085F0100082F
:10013000DFF80CD004F0C2FB004800475D11000856
:10014000C02A00200648804706480047FEE7FEE731
:10015000FEE7FEE7FEE7FEE7FEE7FEE7FEE7FEE777
:1001600047020008310100080CB500200190009002
:100170006C48006840F480306A49086000BF6948F4
:10018000006800F4003000900198401C0190009835
:1001900018B90198B0F5A06FF1D16248006800F479
:1001A000003010B10120009001E000200090009884
:1001B000012843D15C48006840F010005A490860AB
:1001C0000846006820F0030008600846006840F018
:1001D0000200086053484068524948600846406839
:1001E00048600846406840F48060486008464068BF
:1001F00020F47C1048600846406840F4E8104860ED
:100200000846006840F08070086000BF45480068FC
:1002100000F000700028F9D04248406820F0030048
:10022000404948600846406840F00200486000BF0E
:100230003C48406800F00C000828F9D10CBD10B50E
:10024000FFF792FF10BD10B53648006840F001007E
:1002500034490860084640683449084031494860DC
:1002600008460068324908402E4908600846006880
:1002700020F4802008600846406820F4FE004860B2
:100280004FF41F008860FFF7DAFF4FF00060294944
:10029000086010BD10B5002100200022214B5B68D2
:1002A00003F00C0121B1042906D0082928D107E068
:1002B000214B224C236027E01F4B204C236023E07E
:1002C000184B5B6803F47010164B5B6803F48032C4
:1002D000022303EB904022B9194B4343174C236090
:1002E0000DE0104B5B6803F4003323B1144B434320
:1002F000124C236003E0104B4343104C236003E097
:100300000D4B0E4C236000BF00BF064B5B68C3F370
:1003100003130C4CE15C094B1B68CB40074C23607A
:1003200010BD000000100240002002400000FFF855
:10033000FFFFF6FE08ED00E000127A00000000204A
:1003400000093D000400002010B50446CC4884425A
:1003500008D10121042000F02DFB0021042000F031
:1003600029FB46E0C748844208D10121082000F05B
:1003700021FB0021082000F01DFB3AE0C248844226
:1003800008D10121102000F015FB0021102000F001
:1003900011FB2EE0BD48844208D10121202000F04D
:1003A00009FB0021202000F005FB22E0B848844230
:1003B00008D10121402000F0FDFA0021402000F08A
:1003C000F9FA16E0B348844208D10121802000F0F8
:1003D000F1FA0021802000F0EDFA0AE0AE488442F4
:1003E00007D10121801500F0E5FA0021A01500F0E9
:1003F000E1FA10BD10B50121084600F0DBFA00213A
:10040000012000F0D7FA10BD2DE9F0410246002589
:100410000026002000230024002791F803C00CF0E0
:100420000F0591F803C00CF0100CBCF1000F03D0C5
:1004300091F802C04CEA050591F800C0BCF1000F2C
:1004400031D0146800202BE04FF0010C0CFA00F3BF
:10045000B1F800C00CEA03069E4220D183004FF0A1
:100460000F0C0CFA03F7BC4305FA03FC4CEA040436
:1004700091F803C0BCF1280F06D14FF0010C0CFA23
:1004800000FCC2F814C00AE091F803C0BCF1480FA8
:1004900005D14FF0010C0CFA00FCC2F810C0401C52
:1004A0000828D1D31460B1F800C0BCF1FF0F34DDCF
:1004B000546800202EE000F1080C4FF0010808FA03
:1004C0000CF3B1F800C00CEA03069E4221D1830070
:1004D0004FF00F0C0CFA03F7BC4305FA03FC4CEA8F
:1004E000040491F803C0BCF1280F05D100F1080CF9
:1004F00008FA0CF8C2F8148091F803C0BCF1480F58
:1005000007D100F1080C4FF0010808FA0CF8C2F806
:100510001080401C0828CED35460BDE8F0814FF60F
:10052000FF710180022181700421C1707047024671
:10053000002093680B400BB1012000E000207047C1
:100540000146886880B2704702460020D3680B409D
:100550000BB1012000E0002070470146C86880B25E
:10056000704701617047416170470AB1016100E065
:1005700041617047C16070474FF480320A43826125
:100580008161826182698269704702460020434B23
:1005900018684FF68073184040EA021008433F4B3A
:1005A000186070473E49C8617047F0B50A4600239D
:1005B00000240021002500F00046B6F1004F02D1D2
:1005C000364EF16901E0354E7168C0F3034583B2E0
:1005D00000F44016B6F5401F08D121F070612F4E8F
:1005E000766826F070662D4F7E6012E000F480166B
:1005F000B6F5801F06D1032606FA05F4A14341F0A3
:10060000706106E0460D360103FA06F6B14341F08B
:10061000706122B1460D360103FA06F6314300F04F
:100620000046B6F1004F02D11C4EF16101E01B4EB5
:100630007160F0BD30B500228B071C0F0F2303FA49
:1006400004F2164B08338C1053F824309343134CA8
:1006500008348D1044F8253023468C1053F824308C
:100660008C07240F00FA04F423430C4C08348D103B
:1006700044F8253030BD0A49DC310860704700007D
:1006800000080140000C014000100140001401402E
:1006900000180140001C0140002001400000014002
:1006A00000002042DF48006840F00100DD4908609A
:1006B00008464068DC490840DA4948600846006856
:1006C000DA490840D74908600846006820F48020CD
:1006D00008600846406820F4FE0048604FF41F00A0
:1006E00088607047CF49096821F48031CD4A116094
:1006F0001146096821F480211160B0F5803F03D0D4
:10070000B0F5802F0ED106E0C649096841F480316A
:10071000C44A116007E0C349096841F4A021C14AF5
:10072000116000E000BF00BF704710B50146002215
:10073000002300204A11012A02D1BA4C236806E0A6
:10074000022A02D1B74C236A01E0B64C636A01F079
:100750001F02012494401C400CB1012000E0002045
:1007600010BD38B5002000900024002500BF3120C6
:10077000FFF7DBFF05460098401C00900098B0F59D
:10078000A06F01D0002DF2D03120FFF7CEFF08B1CD
:10079000012400E00024204638BD01460020A14A83
:1007A000106820F0F80040EAC10010607047A049CE
:1007B00008607047024600209A4B586820F47C106D
:1007C00042EA01031843974B5860704798490866FE
:1007D000704701460020934A506820F00300084308
:1007E000506070478F48406800F00C007047014629
:1007F00000208C4A506820F0F00008435060704799
:1008000001460020874A506820F4E06008435060A9
:10081000704701460020834A506820F4605040EA47
:10082000C1005060704729B17E4A527A02437D4B25
:100830005A7204E07B4A527A82437A4B5A7270476A
:100840007B49D8310860704701460020754A5068DE
:1008500020F440400843506070470021714A203224
:100860001170704A82F82010012802D004280AD1A1
:1008700004E001216B4A2032117005E00521694A2C
:100880002032117000E000BF00BF70476949086066
:1008900070476449096A0143624A116270476549B9
:1008A00044390860704730B500210022002400233D
:1008B0005C4D6D6805F00C0121B1042905D00829B3
:1008C00023D105E05C4D056022E05B4D05601FE033
:1008D000544D6D6805F47012524D6D6805F4803406
:1008E000022505EB92421CB9544D554305600BE0BF
:1008F0004C4D6D6805F400351DB1504D55430560F4
:1009000002E04D4D5543056002E04B4D056000BFD0
:1009100000BF444D6D6805F0F0010909484D6B5C5E
:100920000568DD4045603F4D6D6805F4E061090AEA
:10093000434D6B5C4568DD4085603A4D6D6805F45C
:100940006051C90A3E4D6B5C4568DD40C560354D60
:100950006D6805F44041890B3A4D6B5CC568B5FB89
:10096000F3F5056130BD29B12E4A526902432D4B82
:100970005A6104E02B4A526982432A4B5A617047FC
:1009800029B1284A92690243264B9A6104E0254A1C
:1009900092698243234B9A61704729B1214AD269F7
:1009A0000243204BDA6104E01E4AD26982431D4BA8
:1009B000DA61704729B11B4AD2680243194BDA60E9
:1009C00004E0184AD2688243164BDA60704729B1B6
:1009D000144A12690243134B1A6104E0114A126966
:1009E0008243104B1A6170471249403908607047C2
:1009F0000F49C86470470B49C87170470948406A7D
:100A000040F0807007494862704701460020054A5F
:100A100092680A400AB1012000E0002070470149B5
:100A200088727047001002400000FFF8FFFFF6FEDA
:100A3000000042428004424200127A0000093D0058
:100A4000140000202400002010B50446BE48844253
:100A500008D101218014FFF7ADFF0021A014FFF79A
:100A6000A9FF16E0B948844208D101210014FFF71C
:100A7000AEFF00212014FFF7AAFF0AE0B448844229
:100A800007D10121C013FFF7A2FF0021E013FFF7F8
:100A90009EFF10BD10B50022028802F441520B885F
:100AA0004C8823438C882343CC8823430C892343DD
:100AB0004C8923438C892343CC8923431A430280E6
:100AC000838B4FF2FF74234083830B8A038210BD14
:100AD0002DE9F04F85B005460C464FF0000902277E
:100AE0004FF000084FF0010B0026B246A88B4FF2E2
:100AF00040010840A88302202884B5F81C90A06813
:100B0000022801D100BF38E0A08810B94FF0010BD6
:100B100001E04FF0020B8D48854200D100E000BF9C
:100B20006846FFF7C0FEDDF800A0E088B0F5007F62
:100B30000AD14FEA1A2000EB80004000A168B0FB08
:100B4000F1F0401D86B20BE04FEA4B10BAFBF0F01B
:100B500000EB80004000A168B0FBF1F0401D86B2C0
:100B60000A20B6FBF0F606F00108A6EB0800C0F379
:100B70004F074FF6FF7000EA0828022F01DBFF2F16
:100B800002DD02274FF00008E08840EA0800384301
:100B90002884A088A18908436188084321880843E4
:100BA00040F4006040EA0909A5F81C9005B0BDE8D2
:100BB000F08F0021018041808180C18001814181CD
:100BC0008181C1810721018270470021018041801C
:100BD0008180C1800221816000218181704721B123
:100BE000028842F04002028004E002884FF6BF73A0
:100BF0001A400280704721B1828B42F48062828366
:100C000004E0828B4FF6FF331A408283704730B581
:100C1000002400230C110125A540ABB21AB1858830
:100C20001D43858002E085889D43858030BD1AB1D3
:100C300083880B43838002E083888B4383807047E3
:100C4000818170470146888970474FF6FF62914263
:100C500004D0028842F48072028004E002884FF6D9
:100C6000FF631A400280704721B1828842F004027B
:100C7000828004E082884FF6FB731A4082807047BE
:100C800002884FF2FF731A40028002880A430280F2
:100C90007047018841F480510180704721B102887A
:100CA00042F40052028004E002884DF6FF731A40BD
:100CB0000280704702460020012901D0108B00E01D
:100CC000908A70470146088A7047B1F5804F04D179
:100CD000028842F48042028004E002884BF6FF73EF
:100CE0001A40028070470246002013890B400BB166
:100CF000012000E000207047CA4302817047F0B530
:100D00000246002000240023002501F00F070126E1
:100D1000BE40B4B20B1101269E40B3B2968806EADB
:100D200003051689264016B10DB1012000E0002010
:100D3000F0BD10B5002201F00F040123A3409AB2C8
:100D4000D343038110BD0000003001400038004053
:100D5000003C004010B50446FB48844209D1012103
:100D60008803FFF727FE00214FF48040FFF722FEA3
:100D700032E0F648844209D101214804FFF727FEFA
:100D800000214FF40030FFF722FE25E0F0488442B6
:100D900009D101218804FFF71AFE00214FF48020B9
:100DA000FFF715FE18E0EB48844209D10121C80481
:100DB000FFF70DFE00214FF40020FFF708FE0BE0C7
:100DC000E548844208D101210805FFF700FE002113
:100DD0004FF48010FFF7FBFD10BD2DE9F04786B002
:100DE00005460E460024A24600BFA1460027B08952
:100DF00000B100BF2F462C8A4CF6FF700440F088EB
:100E000004432C82AC894EF6F3100440B08831893B
:100E10000843718908430443AC81AC8A4FF6FF4014
:100E20000440B0890443AC8201A8FFF73CFDC648EA
:100E3000874202D1DDF810A001E0DDF80CA0A889FE
:100E400000F4004040B10AEBCA0000EB0A10316820
:100E50004900B0FBF1F807E00AEBCA0000EB0A100A
:100E600031688900B0FBF1F86420B8FBF0F00401B0
:100E70002009642101FB1089A88900F4004040B1D9
:100E8000322000EBC900B0FBF1F000F00700044392
:100E900008E0322000EB09106421B0FBF1F000F013
:100EA0000F0004432C8106B0BDE8F0874FF41651C3
:100EB000016000218180C18001810C2141810021DC
:100EC0008181704710B502460020108A4FF2FF035F
:100ED00018400B884C8823438C882343CC882343B9
:100EE0001843108210BD0021018041808180C180A3
:100EF000704721B1828942F40052828104E08289E4
:100F00004DF6FF731A4082817047F0B50346002406
:100F100000260025002040F66A17B94200D100BF24
:100F20001846C1F3421401F01F06012707FA06F51F
:100F3000012C01D10C3004E0022C01D1103000E072
:100F400014301AB107682F43076002E00768AF4307
:100F50000760F0BD1AB1838A0B43838202E0838A63
:100F60008B4383827047028A4FF6F0731A400282E5
:100F7000028A0A430282704782894FF2FF731A4045
:100F8000828182890A438281704721B1828942F03D
:100F90000202828104E082894FF6FD731A40828149
:100FA0007047028A4FF6DF731A400282028A0A43B0
:100FB0000282704721B1028A42F48042028204E038
:100FC000028A4BF6FF731A4002827047C1F308028F
:100FD0008280704701468888C0F308007047818985
:100FE00041F0010181817047028BD2B20283028BF2
:100FF00042EA012202837047028B02F47F4202839D
:10100000028B0A430283704721B1828A42F0200298
:10101000828204E0828A4FF6DF731A408282704730
:1010200021B1828A42F01002828204E0828A4FF665
:10103000EF731A408282704721B1828A42F008021F
:10104000828204E0828A4FF6F7731A4082827047E8
:1010500021B1828942F40042828103E08289C2F395
:101060000E028281704721B1828A42F4006282823C
:1010700004E0828A4FF2FF731A4082827047828AAC
:101080004FF6FB731A408282828A0A43828270473B
:1010900021B1828A42F00202828204E0828A4FF603
:1010A000FD731A408282704702460020B1F5007F2E
:1010B00000D100BF13880B400BB1012000E00020DD
:1010C000704701F40072B2F5007F00D100BFCA433F
:1010D0000280704770B502460024002300250020DE
:1010E00040F66A16B14200D100BFC1F3421501F0CB
:1010F0001F03012606FA03F3012D02D1968933401E
:1011000006E0022D02D1168A334001E0968A334070
:101110000C12012606FA04F41688344013B10CB1FF
:10112000012000E0002070BD10B50022002340F631
:101130006A14A14200D100BF0A1201249440A3B254
:10114000DC43048010BD0000003801400044004032
:1011500000480040004C00400050004000F07EF984
:1011600000F01EF941A003F0BBFB012246A1474855
:1011700002F076F846490870084600780D2813D129
:1011800044A003F0ADFB002211463FA002F0D1FFC6
:101190003F4908700846007800285CD0084601786E
:1011A00041A003F09DFB56E039480078002852D159
:1011B0003748017841A003F093FB0B2244A14C482F
:1011C00002F079F8324908700846017849A003F026
:1011D00087FB4C4B26224C49454802F01BFA2C4910
:1011E00008700846017849A003F07AFB404802F0F5
:1011F0006FFB274908700846017849A003F070FB8F
:10120000012233A13A4802F056F8214908700846F5
:10121000017847A003F064FB4A4B4FF480624A49CF
:10122000334802F005F91A49087026234548026838
:101230000846017845A003F053FB43494DA003F055
:101240004FFB2B4802F044FB114908700846017817
:1012500033A003F045FB00BFFEE701B502E00098B4
:10126000401E009000980028F9D108BD0D0A20D535
:10127000E2CAC7CEC4BCFECFB5CDB3D2C6D6B2CAC1
:10128000B5D1E9200D0A0000313A00006C000020C1
:10129000280000200D0A206265666F726520666D69
:1012A0006B667320000000000D0A20665F6D6B66A0
:1012B00073207265733D2564000000000D0A2066EE
:1012C0005F6D6F756E74207265733D25640000005C
:1012D000313AD6D0CEC4B3A4CEC4BCFEC3FB616E3B
:1012E00064656E676C6973682E7478740000000022
:1012F0009C1000200D0A206F70656E207265733D92
:101300002564000050000020290000200D0A2066FE
:101310007772697465207265733D25640000000072
:101320000D0A20636C6F7365207265733D25640040
:101330000D0A20722D6F70656E207265733D2564F5
:101340000000000054000020C02000200D0A207280
:10135000656164207265733D25642C62723D25646D
:101360002C73697A656F6620777269746562756639
:101370003D2564000D0A726561646275663D2573E2
:1013800000000000704700BFFEE700BFFEE700BF9F
:10139000FEE700BFFEE770477047704770470000E8
:1013A00000B585B001210420FFF7EAFA0121880386
:1013B000FFF7E6FA4FF40070ADF8100018208DF832
:1013C000130003208DF8120004A92248FFF71CF82F
:1013D0004FF48060ADF8100004208DF8130004A9CC
:1013E0001C48FFF711F84FF4E13000900020ADF8F1
:1013F0000400ADF80600ADF80800ADF80C000C20B4
:10140000ADF80A0069461448FFF7E7FC01211248CD
:10141000FFF76FFD05B000BD70B504460D46E1B2A3
:101420000D48FFF7D3FD00BF80210B48FFF73CFEBE
:101430000028F9D0204670BD10B5044600BF202119
:101440000548FFF731FE0028F9D00348FFF7C2FD39
:1014500010BD0000000801400038014008B501211E
:101460001020FFF78DFA0420ADF8000010208DF851
:10147000030003208DF8020069460948FEF7C4FF07
:101480000820ADF8000069460548FEF7BDFF0421BD
:101490000348FFF766F808210148FFF762F808BD26
:1014A0000010014000B587B001210803FFF768FA7A
:1014B0000121C420FFF764FA1020ADF804000320D6
:1014C0008DF8060010208DF8070001A9FE48FEF7F0
:1014D0009BFF2020ADF8040018208DF8070001A91B
:1014E000F948FEF791FF4020ADF8040001A9F64845
:1014F000FEF78AFF8020ADF8040001A9F248FEF74C
:1015000083FF1021F048FFF72CF80020ADF8080009
:101510004FF48270ADF80A000020ADF80C000220F4
:10152000ADF80E000120ADF810004002ADF8120039
:101530000820ADF814000020ADF816000720ADF823
:10154000180002A9E148FFF7A5FA0121DF48FFF7DB
:1015500046FB07B000BD10B504462146DCA003F0F1
:10156000BFF9002010BD10B504464FF48050E44987
:1015700008600AE0E2490868411EE14A116020B9AA
:101580000020FFF7E8FFC0B210BD0221CF48FFF7EF
:10159000AAFB0028EED02146CC48FFF751FB4FF4C0
:1015A0008050D74908600AE0D5490868411ED44AEE
:1015B000116020B90120FFF7CEFFC0B2E4E701219E
:1015C000C248FFF790FB0028EED0C048FFF73AFB77
:1015D000C0B2D9E710B500241021BB48FEF7C3FF05
:1015E0000520FFF7C0FF00BFFF20FFF7BCFF044648
:1015F00004F001000028F7D11021B348FEF7B1FF35
:1016000010BD10B51021B048FEF7ADFF0620FFF762
:10161000AAFF1021AC48FEF7A4FF10BD10B5044688
:10162000FFF7EFFFFFF7D6FF1021A748FEF79BFF5C
:101630002020FFF798FFC4F30740FFF794FFC4F39F
:101640000720FFF790FFE0B2FFF78DFF10219E48C3
:10165000FEF787FFFFF7BEFF10BD10B5FFF7D1FF04
:1016600010219948FEF77FFFC720FFF77CFF10216C
:101670009548FEF776FFFFF7ADFF10BD70B5054644
:101680000C461646FFF7BDFF10218F48FEF76BFF93
:101690000220FFF768FFC4F30740FFF764FFC4F3BD
:1016A0000720FFF760FFE0B2FFF75DFFB6F5807F30
:1016B00004DD4FF4807693A003F012F903E028785C
:1016C000FFF751FF6D1C3000A6F101018EB2F6D17B
:1016D00010217D48FEF745FFFFF77CFF70BD2DE927
:1016E000F05F07460E4614464FF00008C146C2465A
:1016F0000025AB4606F0FF0ACAF10000C5B220463D
:10170000E11704EB1161C1F30728E11704EB116144
:101710000912A4EB012101F0FF09BAF1000F20D159
:10172000B8F1000F05D1224631463846FFF7A6FF33
:1017300064E009E04FF4807231463846FFF79EFFBF
:1017400006F5807607F580775FEA0800A8F10101C9
:1017500001F0FF08EED14A4631463846FFF78EFFCA
:101760004CE0B8F1000F18D1A94510DDA9EB050038
:1017700000F0FF0B2A4631463846FFF77FFF2E4424
:101780002F445A4631463846FFF778FF36E0224666
:1017900031463846FFF772FF30E0601B84B22046C6
:1017A000E11704EB1161C1F30728E11704EB1161A4
:1017B0000912A4EB012101F0FF092A4631463846FF
:1017C000FFF75CFF2E442F4409E04FF4807231464E
:1017D0003846FFF753FF06F5807607F580775FEA16
:1017E0000800A8F1010101F0FF08EED1B9F1000FE6
:1017F00004D04A4631463846FFF740FFBDE8F09F27
:1018000070B505460C46164610212F48FEF7ABFE74
:101810000320FFF7A8FEC4F30740FFF7A4FEC4F3BC
:101820000720FFF7A0FEE0B2FFF79DFE04E0FF20D7
:10183000FFF799FE28706D1C3000A6F101018EB2F1
:10184000F5D110212048FEF78CFE70BD2DE9F04146
:10185000002400250026002710211B48FEF783FEE8
:101860009F20FFF780FEFF20FFF77DFE0546FF204B
:10187000FFF779FE0646FF20FFF775FE07461021A9
:101880001148FEF76EFE280440EA062040EA0704ED
:101890002046BDE8F08110B5002410210A48FEF76B
:1018A00062FEAB20FFF75FFEFF20FFF75CFEFF202C
:1018B000FFF759FEFF20FFF756FEFF20FFF753FE0C
:1018C00004461021004837E0000801400030014084
:1018D0003C3C2D464C4153482D4552524F522D3ED3
:1018E0003E2053504920B5C8B4FDB3ACCAB1216500
:1018F00072726F72436F6465203D2025640A000098
:10190000580000203C3C2D464C4153482D45525236
:101910004F522D3E3E205350495F464C4153485F45
:1019200050616765577269746520746F6F206C61D0
:10193000726765210A000000FEF713FE204610BD05
:1019400010B5044610213248FEF70DFE0320FFF7C4
:101950000AFEC4F30740FFF706FEC4F30720FFF7B3
:1019600002FEE0B2FFF7FFFD10BD10B5FF20FFF74C
:10197000FAFD10BD10B504464FF4805025490860AB
:1019800009E024490868411E224A116018B9022062
:10199000FFF7E1FD10BD02211F48FFF7A4F9002861
:1019A000EFD021461C48FFF74BF94FF480501949FE
:1019B000086009E017490868411E164A116018B905
:1019C0000320FFF7C8FDE5E701211348FFF78BF976
:1019D0000028EFD01048FFF735F9DBE710B51021EC
:1019E0000B48FEF7C0FDB920FFF7BDFD10210848E8
:1019F000FEF7B7FD10BD10B510210548FEF7B3FD89
:101A0000AB20FFF7B0FD10210148FEF7AAFD10BD85
:101A100000080140580000200030014070B5044625
:101A20000026002524B1012C04D0022C10D10DE099
:101A3000284670BDFFF70AFF06464448864201D19A
:101A4000002501E045F001052846F2E72846F0E7C9
:101A50000120EEE710B5044624B1012C04D0022C7D
:101A60000AD107E0284610BDFFF71CFD0120FFF753
:101A7000D5FFF8E72846F6E70120F4E72DE9F04125
:101A800006460F4614461D4626B1012E05D0022EED
:101A900011D10EE04046BDE8F08104F202244FF679
:101AA000FF7000EA053221033846FFF7A9FE002047
:101AB000F1E74046EFE70420EDE72DE9F041064667
:101AC0000F4614461D4626B1012E05D0022E14D114
:101AD00011E04046BDE8F08104F202242003FFF744
:101AE0009DFD4FF6FF7000EA053221033846FFF7EF
:101AF000F6FD0020EEE74046ECE70420EAE710B5EB
:101B0000034623B1012B04D0022B1AD117E0204643
:101B100010BD012904D0022906D003290BD107E00A
:101B200040F2FE50106006E04FF48050108002E05A
:101B30000120106000BF00BF00242046E8E72046D7
:101B4000E6E70420E4E70020704700001740EF00BC
:101B500070B503460C4603E014F8015B03F8015B23
:101B60001500A2F10102F7D170BD30B5034601E0C6
:101B700003F8011B1400A2F10102F9D130BDF0B548
:101B800003461C460D46002000BF1600A2F10102CC
:101B900007D014F8017B15F801CBA7EB0C06300039
:101BA000F3D0F0BD024600E0521C107810B110785E
:101BB0008842F9D1107870472DE9F041044600279A
:101BC0002079F8B1E56A607801232A4604F13001F2
:101BD000FFF773FF08B1012714E000202071206A8D
:101BE000281AA16988420DD2E67809E0A069054467
:101BF000607801232A4604F13001FFF75EFF761E6C
:101C0000022EF3D23846BDE8F08170B504460D4689
:101C10000026E06AA84210D02046FFF7CDFF064616
:101C20005EB9607801232A4604F13001FFF726FFF0
:101C300010B14FF0FF350126E562304670BD70B53A
:101C400004462046FFF7B8FF0546002D59D12078FD
:101C500003284FD1607901284CD16289002104F119
:101C60003000FFF782FF552184F82E12AA2184F854
:101C70002F12522084F83000522131200155612169
:101C800032200155412133200155722184F814126C
:101C900084F81512412184F81612612184F8171274
:101CA000217C84F81812208A010A84F8191220690C
:101CB000010C84F81A122069010E84F81B12217B92
:101CC00084F81C12A089010A84F81D12E068010C36
:101CD00084F81E12E068010E84F81F12E069401CAF
:101CE000E0626078012304F13001E26AFFF7E5FE6B
:101CF00000206071607800221146FFF700FF00B1FC
:101D00000125284670BD0246891E5069801E884202
:101D100001D8002070479378906A01FB0300F9E72F
:101D20002DE9F05F04460D46022D02D36069A842FA
:101D300002D84FF001098FE04FF0FF3920780128D9
:101D400004D002283CD003287ED157E02F4607EB71
:101D500057076089B7FBF0F0216A00EB010A514692
:101D60002046FFF752FF00B175E038467F1C6189BD
:101D7000B0FBF1F201FB120104F1300010F8018018
:101D80006089B7FBF0F0216A00EB010A514620465A
:101D9000FFF73BFF00B15EE06089B7FBF0F100FBAD
:101DA000117104F13000405C48EA002805F00100A0
:101DB00010B14FEA181001E0C8F30B0081464AE069
:101DC000B4F80AA00AEBDA704010B5FBF0F0216A13
:101DD00000EB010B59462046FFF717FF00B13AE030
:101DE00068006189B0FBF1F201FB120104F13000DF
:101DF0000E183078717840EA01292CE0B4F80AA076
:101E00004FEAEA700AEB90708010B5FBF0F0216A9F
:101E100000EB010B59462046FFF7F7FE00B11AE030
:101E2000A8006189B0FBF1F201FB120104F130005E
:101E30000E18F0780006B17840EA0140717840EA67
:101E400001203178084300E002E020F0704902E010
:101E50004FF0010900BF00BF4846BDE8F09F2DE9E3
:101E6000F05F04460E461746022E02D36069B04268
:101E700002D84FF00208B3E02078012804D00228ED
:101E800052D0032872D172E0B14609EB590960893A
:101E9000B9FBF0F0216A00EB010A51462046FFF73A
:101EA000B4FE8046B8F1000F00D098E0484609F132
:101EB00001096189B0FBF1F201FB120104F130006C
:101EC0000D1806F0010020B1F9B2287861F31F1057
:101ED00000E038462870012020716089B9FBF0F0DD
:101EE000216A00EB010A51462046FFF78EFE80462C
:101EF000B8F1000F00D072E06089B9FBF0F100FB8F
:101F0000119104F130000D1806F0010010B1C7F373
:101F1000071005E0287800F0F000C7F3032108431C
:101F20002870012020715AE0B4F80AA00AEBDA7098
:101F30004010B6FBF0F0216A00EB010B5946204639
:101F4000FFF763FE8046B8F1000F00D047E0700055
:101F50006189B0FBF1F201FB120104F130000D18B0
:101F60002F70380A68700120207138E034E0B4F82E
:101F70000AA04FEAEA700AEB90708010B6FBF0F00E
:101F8000216A00EB010B59462046FFF73EFE8046D2
:101F9000B8F1000F00D022E0B0006189B0FBF1F28F
:101FA00001FB120104F130000D18E8780006A97851
:101FB00040EA0140697840EA01202978084300F0AE
:101FC000704007432F70380A6870380CA870380EBC
:101FD000E8700120207102E04FF0020800BF00BF4E
:101FE0004046BDE8F09F2DE9F04104460E46022E22
:101FF00002D36069B04201D8022727E0002721E020
:1020000031462046FFF78CFE054605B91DE0012D3F
:1020100001D1022719E0681C08B9012715E0002248
:1020200031462046FFF71BFF074607B10DE0206948
:10203000401C30B12069401C2061607940F00100F3
:1020400060712E466069B042DAD800BF3846BDE8FC
:10205000F0812DE9F04704468946B9F1000F06D119
:10206000E76817B16069B84215D8012713E04946FF
:102070002046FFF755FE0646022E02D20120BDE89B
:10208000F087701C08B93046F9E76069B04201D9A1
:102090003046F4E74F463D4600BF6D1C6069A842DC
:1020A00004D80225BD4201D90020E8E72946204690
:1020B000FFF736FE064606B909E0701C08B1012E8E
:1020C00001D13046DBE7BD42E7D10020D7E700BFB2
:1020D0006FF0704229462046FFF7C1FE8046B8F1F6
:1020E000000F08D1B9F1000F05D02A464946204615
:1020F000FFF7B5FE8046B8F1000F0BD1E56020690F
:10210000401C78B12069401E2061607940F00100D8
:10211000607107E0B8F1010F02D14FF0FF3000E02D
:10212000012005462846AAE72DE9F04104460E465F
:10213000E680A568012D03D020684069A84202D836
:102140000220BDE8F0812DB920680078032801D174
:102150002068456A45B920680089B04201D802204C
:10216000EFE72068476A24E021684889C11700EB3F
:10217000D16149112268927801FB02F812E02946E8
:102180002068FFF7CDFD0546681C08B90120D8E797
:10219000022D03D320684069A84201D80220D0E76D
:1021A000A6EB08064645EAD229462068FFF7ABFDB4
:1021B0000746E5600FB90220C3E721684889C117C7
:1021C00000EBD1614911B6FBF1F13944216121687D
:1021D0004889C11700EBD1614911B6FBF1F201FB4F
:1021E00012612268303202EB411161610020A8E7E0
:1021F0002DE9F04104468846E088461CB0B208B19B
:10220000206910B90420BDE8F08121684889C11710
:1022100000EBD1614911B6FBF1F201FB126100291B
:1022200071D12069401C2061E06828B920680089CC
:10223000B04268D80420E6E721684889C11700EB5E
:10224000D1614911B6FBF1F122689278521E11401A
:10225000002958D1E1682068FFF762FD0546012D8D
:1022600001D80220CFE7681C08B90120CBE720681D
:102270004069A84241D8B8F1000F01D10420C2E75B
:10228000E1682068FFF7E5FE05460DB90720BAE7CB
:10229000012D01D10220B6E7681C08B90120B2E780
:1022A0002068FFF789FC08B10120ACE721684A8962
:1022B00001F130000021FFF758FC29462068FFF7A4
:1022C00022FD2168C86200270EE001202168087104
:1022D0002068FFF771FC08B1012094E72068C06A0C
:1022E000401C2168C8627F1C20688078B842ECD806
:1022F0002068C06AC01B2168C862E5602946206862
:10230000FFF701FD2061E68021684889C11700EBD5
:10231000D1614911B6FBF1F201FB12612268303242
:1023200002EB4111616100206DE72DE9F0410446A7
:102330000E4600212046FFF7F7FE0546EDB90027BF
:1023400000BF21692068FFF760FC054605B113E076
:1023500060690078E52802D06069007820B9781CAF
:102360000746B04201D107E0002701212046FFF7D0
:102370003FFF0546002DE4D000BF042D00D1072506
:102380002846BDE8F08110B502468C7ECB7E44EA3B
:1023900003201378032B05D10C7D4B7D44EA0323E6
:1023A00040EA034010BD81760B0AC3760A0C027521
:1023B0000B0E437570472DE9F04780460C46A17E11
:1023C000E07E41EA002010B10020BDE8F0872078CF
:1023D00000F03F00401E00EB800101EBC0064FF013
:1023E0000109002524E0F848405D205CF649495D7C
:1023F0002144497840EA0127B9F1000F11D0FF2E9E
:102400000BD2384602F012FA82463146761C38F872
:10241000110002F00BFA824501D00020D5E7B94641
:1024200005E04FF6FF70874201D00020CDE76D1C1C
:102430000D2DD8D3207800F0400038B1B9F1000F4D
:1024400004D038F8160008B10020BEE70120BCE730
:10245000F0B504468F7EC87E47EA002008B1002010
:10246000F0BD087800F03F00401E00EB800707EB4E
:10247000C002012600231AE0D348C05C085CD24F9A
:10248000FF5C0F447F7840EA07254EB1FF2A01D355
:102490000020E5E72E461046521C24F8105005E0B7
:1024A0004FF6FF70854201D00020D9E75B1C0D2B51
:1024B000E2D3087800F0400030B1FF2A01D30020B9
:1024C000CEE7002024F812000120C9E7F0B5044649
:1024D0001D464D730F27CF7200270F738F76BC46B2
:1024E00081F81BC0571E07EB870C0CEBC7060027B3
:1024F00038463B4600BF4FF6FF77B84203D0374619
:10250000761C34F81700DFF8C0C21CF803C001F8CD
:102510000C000712DFF8B0C21CF803C08C448CF822
:10252000017008B94FF6FF705F1C3B460D2FE2D3D8
:102530004FF6FF77B84202D034F816700FB942F068
:1025400040020A70F0BD2DE9FF4F83B00746914667
:102550001E460B2238460499FFF7FAFA052E19D9C0
:10256000B04612E039F802BB00250CE0584668F38B
:102570005F0080464FEA6B0B08F4803010B193483F
:1025800088EA00086D1C102DF0D3B9F8000000286F
:10259000E8D14646072500BF06F00F0000F1300ADB
:1025A000BAF1390F03DD0AF1070000F0FF0A2846EF
:1025B0006D1E01A901F800A03609002EECD17E2085
:1025C000485500240BE0385D812807DB385DFE2884
:1025D00004DC681EA04200D106E0641C641CAC420E
:1025E00002D2385D2028EED100BF00BF082D04D2F2
:1025F00028466D1C01A9095C00E020212046641CCE
:102600003954082CF2D307B0BDE8F08F30B501463D
:1026100000200B2200BF431003EBC01411F8015B34
:102620006319D8B2531E1A00F5D130BD2DE9F04719
:10263000044600212046FFF777FD074617B13846CC
:10264000BDE8F0874FF0FF09CA464FF6FF702084BF
:1026500000BF21692068FFF7D8FA074607B157E0A5
:1026600065692E780EB9042752E0E87A00F03F0839
:10267000E52E05D008F0080040B1B8F10F0F05D0E5
:102680004FF0FF094FF6FF7020843AE0B8F10F0FCA
:102690001CD1E06978B306F0400030B195F80DA088
:1026A00026F04006B146E08820844E450AD1687B7A
:1026B000504507D12946E069FFF77DFE10B1A9F129
:1026C000010000E0FF2000F0FF091AE0B9F1000F5F
:1026D00005D12846FFF79AFF504500D118E0A069C0
:1026E000C07A00F0010038B90B222846A169FFF733
:1026F00046FA08B90CE004E04FF0FF094FF6FF700E
:10270000208400212046FFF773FD0746002FA0D04C
:1027100000BF384694E72DE9F05F04468A464FF043
:10272000FF09CB46042753E021692068FFF76DFAC3
:10273000074607B14FE0666935780DB904274AE0CE
:10274000F07A00F03F08E52D0AD02E2D08D028F0B1
:102750002000082801D1012000E00020504502D0CF
:102760004FF0FF0929E0B8F10F0F1AD105F0400032
:1027700030B196F80DB025F04005A946E0882084D8
:102780004D450AD1707B584507D13146E069FFF7C6
:102790005FFE10B1A9F1010000E0FF2000F0FF0989
:1027A0000BE0B9F1000F04D13046FFF72FFF584579
:1027B00002D04FF6FF7020840DE000212046FFF785
:1027C00017FD074627B106E0D84A0008211001008E
:1027D00020690028A8D100BF0FB100202061384631
:1027E000BDE8F09F2DE9FE4F0446D4F81880D4F8D8
:1027F0001C900C2241466846FFF7AAF900BF9DF8DD
:102800000B0000F0010020B3002088F80B00E0610D
:1028100001260CE033464A4669464046FFF793FEE0
:102820002046FFF703FF054605B102E0761C642E43
:10283000F0D300BF642E02D10720BDE8FE8F042D27
:1028400001D02846F9E79DF80B0088F80B00C4F882
:102850001C909DF80B0000F0020060B1002600E023
:10286000761C39F816000028FAD106F119000D215E
:10287000B0FBF1F700E0012739462046FFF755FD90
:10288000054645BB781E070025D0E088C11B2046C1
:10289000FFF74AFC0546F5B9A069FFF7B7FE824687
:1028A00000BF21692068FFF7B0F9054605B111E0C6
:1028B000FAB253466169E069FFF708FE012021681A
:1028C000087100212046FFF793FC054615B9781ED4
:1028D0000700E6D100BFC5B921692068FFF795F967
:1028E000054695B9202200216069FFF73EF90B22C9
:1028F000D4E90501FFF72CF9A069C07A00F01800AF
:1029000061690873012021680871284695E770B550
:102910000446E688208C4FF6FF72904201D1304683
:1029200000E0208C01462046FFF7FEFB05460DBB6C
:1029300000BF21692068FFF768F9054605B115E079
:10294000202200216069FFF710F9E5206169087015
:10295000012021680871E088B04200D306E0002120
:102960002046FFF745FC0546002DE2D000BF042DB0
:1029700000D10225284670BD2DE9F05F80460D4646
:1029800005F10907D8F81000002843D0D8F8144002
:10299000002626E03046761C14F80090B9F1200F8E
:1029A00000D11EE0B9F1050F01D14FF0E509092E64
:1029B00002D12E2007F8010BB9F1410F0EDBB9F15E
:1029C0005A0F0BDC207B092E01D3102100E00821D7
:1029D000084018B109F1200000F0FF0907F8019B39
:1029E00000BF0B2ED6D3E07A2872E07F0106A07FCD
:1029F00041EA0041607F41EA0020217F08432860CE
:102A0000217E607E41EA0020A880A17DE07D41EA30
:102A10000020E88000203870A86998B30026AF69CC
:102A2000D8F8100060B3E86950B3B8F820004FF64A
:102A3000FF71884224D0D8F81CB01BE0002150461A
:102A400001F0BAFE8246BAF1000F01D1002616E06D
:102A5000BAF1FF0F04DD4FEA2A223046761C3A54C1
:102A6000E869401EB04201D8002608E03046761CD6
:102A700007F800A03BF8021B5FEA010ADED100BFA5
:102A80000020B855BDE8F09F2DE9F34F83B0814693
:102A900004980068019002E00198401C01900198A0
:102AA00000782F28F8D0019800785C28F4D0D9F865
:102AB0001CA000252F4600BF38467F1C01990C5CE6
:102AC000202C03DB2F2C01D05C2C00D132E0FF2D19
:102AD00003D3062005B0BDE8F08FE4B2812C13DBF0
:102AE000E0B2FE2810DC38467F1C01990E5C06EB34
:102AF000042084B2402E01DB7E2E05DD802E01DB1A
:102B0000FE2E01DD0620E5E70121204601F054FEFE
:102B100004460CB90620DDE7802C06DA2146F8A031
:102B2000FFF740F808B10620D4E728466D1C2AF8C4
:102B30001040C1E700BF0198C11904980160202C22
:102B400001DA042000E00020804608E0681E3AF820
:102B50001040202C02D02E2C00D002E06D1E002D43
:102B6000F4D100BF0DB90620B4E700202AF8150003
:102B70000B222021D9F81800FEF7F7FF002700E00C
:102B80007F1C3AF817002028FAD03AF817002E28B0
:102B9000F6D00FB148F0030800E06D1E25B1681EA5
:102BA0003AF810002E28F8D10020064602904FF087
:102BB000080B00BF38467F1C3AF8104004B963E0A8
:102BC000202C03D02E2C04D1AF4202D048F00308B1
:102BD000F0E70298584501D2AF4214D1BBF10B0F78
:102BE00002D148F003084FE0AF4201D048F003089B
:102BF000AF4200D948E02F46082002904FF00B0B5F
:102C0000B006060ED6E7802C09DB204601F00EFE4A
:102C10000021009001F0D0FD044648F00208FF2C8E
:102C200011DDABF101000299884204D848F0030895
:102C3000CDF808B0BEE72212D9F818300298411C2E
:102C400002911A5419E024B12146B0A0FEF7AAFF60
:102C500018B15F2448F003080FE0412C04DB5A2C24
:102C600002DC46F0020608E0612C06DB7A2C04DC6C
:102C700046F00106A4F1200084B2D9F81830029879
:102C8000411C02911C5495E700BFD9F81800007848
:102C9000E52803D10520D9F818100870BBF1080FFA
:102CA00001D1B006060E06F00C000C2803D006F089
:102CB0000300032801D148F0020808F0020058B9C7
:102CC00006F00300012801D148F0100806F00C00BE
:102CD000042801D148F00808D9F8180080F80B80C2
:102CE0000020F7E62DE9F3410446019800782F28EB
:102CF00003D0019800785C2802D10198401C019013
:102D00000020A06001980078202807D200212046EA
:102D1000FFF70AFA05460020606128E000BF01A91C
:102D20002046FFF7B1FE054605B11FE02046FFF73C
:102D30007DFC0546A069C67A3DB1042D04D100BFD3
:102D400006F0040000B9052510E006F0040000B10B
:102D50000CE06769F87A00F0100008B9052505E075
:102D600039462068FFF70FFBA060D8E700BF284670
:102D7000BDE8FC8170B502464FF0FF301568E5B143
:102D8000116800E0491C0D78202D02D30D783A2DF2
:102D9000F8D10D783A2D0FD1146814F8015BA5F124
:102DA00030030A2B07D28C4205D1022B03D21846DE
:102DB0004D1C2946156070BD002000BFFBE770B5B3
:102DC00004460D4600202071401EE0622946204640
:102DD000FEF71BFF08B1032070BD94F82E1294F883
:102DE0002F0241EA00204AF65521884201D00220F4
:102DF000F2E794F86900010694F8680041EA00419E
:102E000094F8670041EA002094F86610084320F027
:102E10007F404049884201D10020DDE794F88500D9
:102E2000010694F8840041EA004194F8830041EAE5
:102E3000002094F88210084320F07F4035498842F2
:102E400001D10020C8E70120C6E72DE9F74F8AB07D
:102E500000210A9801600B98FFF78CFF09900998F0
:102E6000002803DA0B200DB0BDE8F08F2A4909983D
:102E700051F820400CB90C20F5E70A98046020783E
:102E800078B16078FEF7CAFD814609F0010040B9CB
:102E90000C9820B109F0040008B10A20E3E70020F3
:102EA000E1E700202070099860706078FEF7D2FD9D
:102EB000814609F0010008B10320D4E70C9820B145
:102EC00009F0040008B10A20CDE7607804F10A0295
:102ED0000221FEF714FE38B96089B0F5007F03DBEC
:102EE0006089B0F5805F01DD0120BCE7002739462D
:102EF0002046FFF764FF0546012D0FD0D5BB41E00A
:102F0000222A3A3C3E3F7C7F000000002B2C3B3DB8
:102F10005B5D0000464154005C00002000261AE082
:102F200004F5F77000EB061898F8040070B198F8F3
:102F30000B00010698F80A0041EA004198F80900E0
:102F400041EA002098F80810084300E0002002A998
:102F500041F82600761C042EE2D3002606B1761E28
:102F600000BF02A850F826702FB139462046FFF75F
:102F700026FF01E006E0022005461DB1701C064652
:102F80000428EED3032D01D101206CE70DB10D20F3
:102F900069E73B20015D94F83C0041EA002061892B
:102FA000884201D00D205EE74620015D94F847007D
:102FB00041EA002ABAF1000F0ED194F85700010639
:102FC00094F8560041EA004194F8550041EA002087
:102FD00094F8541040EA010AC4F818A04020005D9B
:102FE000E070E078012804D0E078022801D00D20BC
:102FF00039E7E0780AFB00FA3D20005DA070A07878
:1030000018B1A078411E084008B10D202BE74120DF
:10301000015D94F8420041EA002020816089C117D7
:1030200000EBD1614911228992FBF1F301FB1321DD
:1030300009B10D2017E74320015D94F8440041EAEF
:1030400000200890089870B994F85300010694F88D
:10305000520041EA004194F8510041EA002094F8FE
:103060005010084308903E20015D94F83F0041EA6B
:1030700000200190019808B90D20F4E66089C1177D
:1030800000EBD1614911228992FBF1F2019951447F
:1030900011440791DDE90710884201D20D20E2E6D4
:1030A000DDE90710401AA178B0FBF1FBBBF1000F7E
:1030B00001D10D20D7E6012540F6F670834500D3F7
:1030C00002254FF6F670834500D303250BF102006D
:1030D0006061E76101983844206207983844A06233
:1030E000032D16D1208908B10D20BCE694F85F00AD
:1030F000010694F85E0041EA004194F85D0041EA5F
:10310000002094F85C1008436062606980000690BB
:1031100014E0208908B90D20A5E6206A50446062B9
:10312000022D02D16069400007E0207D00F001001F
:10313000616901EB410100EB510006906089401E7E
:10314000069908446189B0FBF1F0A169884201D970
:103150000D2088E64FF0FF302061E0608020607134
:10316000032D5AD194F8601094F8610041EA0020D0
:10317000012852D1791C2046FEF747FDE8BB00200C
:10318000607194F82E1294F82F0241EA00204AF65A
:103190005521884241D13320005D01063220005D77
:1031A00041EA00413120005D41EA002094F83010EE
:1031B0000843FC49884230D194F81702010694F87C
:1031C000160241EA004194F8150241EA002094F801
:1031D00014120843F44988421FD194F81B020106D7
:1031E00094F81A0241EA004194F8190241EA0020D9
:1031F00094F818120843206100E00EE094F81F02D2
:10320000010694F81E0241EA004194F81D0241EAC9
:10321000002094F81C120843E0602570E348008801
:10322000401C80B2E1490880E08000201BE670B5B8
:1032300005462C4684B1206870B12068007858B1EA
:103240002068C088A188884206D121684878FEF7A6
:10325000E5FB00F0010008B1092070BD0020FCE78B
:10326000F7B582B016460398019001A8FFF782FDDA
:103270000546002D02DA0B2005B0F0BDCC4850F811
:1032800025400CB100202070029810B10020029956
:103290000870C749029841F82500029808B1012E2C
:1032A00001D00020E8E7002203A902A8FFF7CDFD26
:1032B00007463846E0E72DE9F7438CB00546164649
:1032C0001DB909200FB0BDE8F0830020286006F08A
:1032D0001F0626F001020DA903A8FFF7B6FD074659
:1032E000002F74D1CDF824D0B2480A9003A80D99CC
:1032F000FFF7F8FC0746089C0FB904B9062706F04B
:103300001C0000285CD04FB1042F03D103A8FFF7A5
:1033100069FA074646F00806089C09E0E07A00F0E2
:10332000110008B1072703E006F0040000B10827E8
:10333000002F55D106F00800002851D0FEF703FCFD
:10334000804684F80E804FEA1821E1734FEA184155
:1033500021744FEA1861617484F816804FEA1821CD
:10336000E1754FEA184121764FEA18616176002035
:10337000E072207700216177A177E17721460398F9
:10338000FFF701F8814600212046FFF70CF80120E5
:1033900003990871B9F1000F22D00398D0F82C805E
:1033A00049460398FEF71FFE0746CFB9A9F1010071
:1033B0000399C86041460398FEF727FC07460FE0D3
:1033C00077B9E07A00F0100010B1042708E02DE092
:1033D00006F0020020B1E07A00F0010000B10727FA
:1033E00047B906F0080008B146F020060398C06A05
:1033F000E8612C62D7B9AE710020E87121460398CC
:10340000FEF7C1FF2861E07F0106A07F41EA00418D
:10341000607F41EA0020217F0843E8600020A86027
:10342000A861039828602868C088A880384649E7C2
:103430002DE9FF4F85B0044615469A46DDF818B0D1
:103440000020CAF800002046FFF7F1FE049004981F
:1034500018B1049809B0BDE8F08FE07908B1E079BF
:10346000F8E7A07900F0010008B90720F2E7D4E9F5
:103470000210401A02900298854200D9029DC4E0D1
:1034800021684989A068B0FBF1F201FB1200002815
:1034900077D121684989A068B0FBF1F0216889786B
:1034A000491E084000F0FF09B9F1000F17D1A068CC
:1034B00010B92069039004E061692068FEF730FCD0
:1034C00003900398022802D20220E071C2E7039819
:1034D000401C10B90120E071BCE70398606161698C
:1034E0002068FEF710FC064616B90220E071B1E72D
:1034F0004E4420684089B5FBF0F8B8F1000F2DD09C
:1035000009EB080021688978884203D9206880780F
:10351000A0EB090821684878434632465946FEF731
:10352000ADFA10B10120E07194E7A07900F04000FD
:1035300078B1A069801B40450BD2A169891B236823
:103540005B8901FB03B021684A8904F12401FEF77D
:10355000FFFA2068408900FB08F74CE0A069B04200
:103560002AD0A07900F0400080B12168487801237A
:1035700004F12401A269FEF7A0FA18B10120E0715C
:1035800068E71AE0A07920F04000A071216848782F
:103590000123324604F12401FEF770FA60B10120E4
:1035A000E07157E75252614172724161640000203C
:1035B0005C000020C0240020A66121684989A06821
:1035C000B0FBF1F201FB1200216849890F1AAF42EA
:1035D00000D92F4621684989A068B0FBF1F201FBB0
:1035E000120104F1240008443A460146019058466D
:1035F000FEF7AEFA00BFBB44A0683844A060DAF81A
:1036000000003844CAF80000ED1B002D7FF438AFED
:1036100000201FE72DE9FF4F83B0044615469B4667
:10362000049801900020CBF800002046FFF7FFFD32
:103630000290029818B1029807B0BDE8F08FE079C7
:1036400008B1E079F8E7A07900F0020008B9072096
:10365000F2E7A0682844A168884200D20025CFE0A4
:1036600021684989A068B0FBF1F201FB1200002833
:103670007ED121684989A068B0FBF1F02168897882
:10368000491E084000F0FF0ABAF1000F1ED1A068E1
:1036900038B9276957B900212068FEF7DAFC0746D8
:1036A00004E061692068FEF7D4FC074607B9AAE088
:1036B000012F02D10220E071BEE7781C10B9012071
:1036C000E071B9E76761206900B92761A07900F06E
:1036D000400078B121684878012304F12401A269EF
:1036E000FEF7EBF910B10120E071A5E7A07920F019
:1036F0004000A07161692068FEF705FB064616B917
:103700000220E07198E7564420684089B5FBF0F943
:10371000B9F1000F31D00AEB09002168897888429D
:1037200003D920688078A0EB0A09216848784B46C5
:1037300032460199FEF7C1F910B10120E0717BE733
:10374000A069801B484511D2A069831B2068B0F88E
:103750000AC0019803FB0C012068428904F124008F
:10376000FEF7F6F9A07920F04000A071206800E093
:1037700017E0408900FB09F835E0A069B0420FD09E
:10378000D4E9020188420BD22168487801233246ED
:1037900004F12401FEF772F910B10120E0714BE74A
:1037A000A66121684989A068B0FBF1F201FB120013
:1037B00021684989A1EB0008A84500D9A8462168DD
:1037C0004989A068B0FBF1F201FB120104F1240069
:1037D0000844424600900199FEF7BAF9A07940F0FA
:1037E0004000A07100BF019840440190A06840448F
:1037F000A060DBF800004044CBF80000A5EB080512
:10380000002D7FF42DAF00BFD4E90201884201D919
:10381000A068E060A07940F02000A07100200BE7D4
:103820002DE9F04104462046FFF701FD0746002F31
:103830004CD1A07900F02000002847D0A07900F0FA
:10384000400078B121684878012304F12401A2697D
:10385000FEF733F910B10120BDE8F081A07920F026
:103860004000A071E1692068FEF7CFF90746002FFC
:103870002CD1256AE87A40F02000E872207B287776
:10388000A089010A6977E068010CA977E068010E58
:10389000E97728462169FEF786FDFEF754F90646CA
:1038A000AE75310AE975310C2976310E6976002042
:1038B000A8740021E974A07920F02000A0710120F3
:1038C000216808712068FEF7BAF907463846C3E751
:1038D00070B505462846FFF7A3FF044634B92846CD
:1038E000FFF7A5FC04460CB900202860204670BDF7
:1038F0002DE9F04704460E462046FFF798FC824625
:10390000BAF1000F02D05046BDE8F087E07908B167
:10391000E079F9E7E068B04204D2A07900F0020053
:1039200000B9E668D4F808904FF00008C4F80880A1
:10393000002E71D0206880782168498900FB01F74A
:10394000B9F1000F11D0701EB0FBF7F1A9F1010021
:10395000B0FBF7F0814208D3A9F10100791E88433A
:10396000A060A068361A656912E025697DB900215A
:103970002068FEF76EFB0546012D02D10220E071A2
:10398000C2E7681C10B90120E071BDE725616561DF
:10399000002D41D023E0A07900F0020038B1294683
:1039A0002068FEF756FB054635B93E4619E0294624
:1039B0002068FEF7B5F90546681C10B90120E071D2
:1039C000A2E7012D03D920684069A84202D802204D
:1039D000E07199E76561A0683844A060F61BBE42BB
:1039E000D9D800BFA0683044A06020684089B6FBE9
:1039F000F0F100FB116078B129462068FEF783F9E9
:103A00008046B8F1000F02D10220E0717CE7206807
:103A10004089B6FBF0F0804421684989A068B0FB7A
:103A2000F1F201FB120020B3A069404521D0A0793A
:103A300000F0400078B121684878012304F12401A6
:103A4000A269FEF73AF810B10120E0715CE7A079B5
:103A500020F04000A071216848780123424604F11B
:103A60002401FEF70BF810B10120E0714CE7C4F817
:103A70001880D4E90201884205D9A068E060A079E5
:103A800040F02000A07150463EE733B585B00446B3
:103A900014B9092007B030BD002206A904A8FFF719
:103AA000D4F905462DBB0498206001A8A061FE480A
:103AB000E06120460699FFF715F90546B5B960693A
:103AC00058B16069C07A00F0100028B161690498AB
:103AD000FEF759FCA06000E005253DB90498C088B8
:103AE000A08000212046FEF71FFB0546042D00D1D3
:103AF00005250DB1002020602846CBE770B50446AF
:103B00002046FFF794FB05460DB9002020602846AB
:103B100070BDFEB504460E462046FFF788FB0546FD
:103B20001DBB2EB900212046FEF7FEFA05461CE01B
:103B3000C4F818D0DC48E06100212046FEF7EBFD18
:103B40000546042D02D10020206100256DB93146C3
:103B50002046FEF711FF00212046FEF749FB0546EF
:103B6000042D02D10020206100252846FEBD33B57A
:103B70008DB00D4600220DA904A8FFF766F9044692
:103B800094B901A80A90C8480B9004A80D99FFF7B2
:103B9000A9F8044644B9099828B12DB1294604A8CA
:103BA000FEF7EAFE00E0062420460FB030BD2DE906
:103BB000F74F82B08A46002202A90498FFF745F920
:103BC000019004980468019800286DD1D4E904108C
:103BD000801E814203D82069CAF8000064E094F88E
:103BE00000B00026BBF1010F1CD1022700BF3946EF
:103BF0002046FEF795F8804608F1010010B9012033
:103C000001900EE0B8F1010F02D10220019008E00E
:103C1000B8F1000F00D1761C781C07466169884214
:103C2000E5D33AE06769206A00904FF0000900256B
:103C300000BFB9F1000F0ED10098421C014620468A
:103C40000092FDF7E2FF0190019800B124E004F139
:103C50003005B4F80A90BBF1020F09D128786978D1
:103C600040EA012000B9761CAD1CA9F1020910E060
:103C7000E8780006A97840EA0140697840EA012026
:103C80002978084320F0704000B9761C2D1DA9F159
:103C90000409781E0700CCD100BF2661607940F08E
:103CA00001006071CAF80060019805B0BDE8F08FAE
:103CB00070B504462046FFF7BAFA054645B9E079E3
:103CC00008B1E57904E0A07900F0020000B9072509
:103CD000002D47D1D4E90210884241D9A068E060A4
:103CE000A07940F02000A071A06838B9216920684F
:103CF000FEF779F90546002020611DE06169206822
:103D0000FEF70EF806460025701C00B90125012EAD
:103D100000D1022585B920684069B0420CD96FF006
:103D2000704261692068FEF79AF8054625B9314668
:103D30002068FEF758F9054695B9A07900F04000D3
:103D400070B121684878012304F12401A269FDF7CC
:103D5000B4FE08B1012503E0A07920F04000A07175
:103D600005B1E571284670BD71B595B000260122F8
:103D700015A90CA8FFF769F80446002C46D1CDF828
:103D800048D0494813900CA81599FEF7ABFF04469C
:103D900000BF002C3AD1119D0DB9062404E0E87A49
:103DA00000F0010000B10724FCB929460C98FEF789
:103DB000EAFA0646CEB1E87A00F01000A8B1242253
:103DC0000CA903A8FDF7C4FE0596022103A8FEF77F
:103DD000ABF904464CB9002103A8FEF79CFC04464D
:103DE00004B90724042C00D100247CB90CA8FEF7E8
:103DF0008EFD04462CB926B131460C98FEF7F3F837
:103E000004461CB90C98FDF71AFF0446204616B06C
:103E100070BD2DE9F1478DB0FDF795FE06460122F4
:103E20000DA904A8FFF711F80546002D72D101A8CD
:103E30000A901D480B9004A80D99FEF753FF054604
:103E400005B9082500BF042DF0D100210498FEF724
:103E500000F90746002507B90725012F00D10225E3
:103E6000781C00B901251DB90498FDF7A5FE05468B
:103E7000002D5ED139460498FDF745FF8146049830
:103E800000F130040498428900212046FDF76DFEC0
:103E90000B2220212046FDF768FE2E2020701020E6
:103EA000E072A675310A01E0C0240020E175310CF2
:103EB0002176310E617639462046FEF774FA2022CB
:103EC000214604F12000FDF743FE2E2084F8210056
:103ED000DDF818A004980078032804D10498406AFB
:103EE000504500D1AA46514604F12000FEF75BFA86
:103EF000049890F8028018E00498C0F82C9009F11A
:103F000001090120049908710498FDF755FE054642
:103F10000DB10DE02DE00498428900212046FDF707
:103F200024FEA8F1010000F0FF08B8F1000FE3D172
:103F300000BF1DB904A8FEF755FC054625B139465A
:103F40000498FEF750F814E0099C1020E072A67562
:103F5000310AE175310C2176310E61763946204601
:103F6000FEF721FA0120049908710498FDF767FE15
:103F7000054628460EB0BDE8F087F7B58CB00F4671
:103F8000144601220CA903A8FEF75FFF0646EEB90E
:103F9000CDF824D0F8480A9003A80C99FEF7A2FEA9
:103FA000064600BF96B9089D0DB906260EE004F03E
:103FB000270407EA0400E97AA1430843E8720120D4
:103FC000039908710398FDF73AFE064630460FB094
:103FD000F0BDF3B59BB001221BA912A8FEF735FF77
:103FE0000446002C75D112980990CDF860D0E248B3
:103FF000199012A81B99FEF775FE044600BF002C0D
:1040000067D1179808B9042463E0179800F10B01F1
:10401000152203A8FDF79CFD242212A909A8FDF78B
:1040200097FD1CA8FEF7A6FE002805DB09A81C9931
:10403000FEF758FE044600E00B2404B90824042CC3
:1040400047D109A8FEF7CEFB0446002C41D10E9DB6
:1040500013220DF10E0105F10D00FDF779FD9DF81C
:104060000C0040F02000E872012012990871E87AF3
:1040700000F0100018B30B99149888421FD02946FD
:104080001298FEF780F9074639461298FDF73BFE75
:1040900006460EB9022412E031461298FDF7B5FD2E
:1040A0000446129800F150054CB968782E2806D1C4
:1040B00028460B99FEF777F901201299087144B947
:1040C00012A8FEF724FC04461CB91298FDF7B7FDB0
:1040D000044620461DB0F0BD73B58CB00D460122DC
:1040E0000CA903A8FEF7B1FE0646FEB9CDF824D010
:1040F000A1480A9003A80C99FEF7F4FD064600BFFC
:10410000A6B9089C0CB9062610E0A879A075E88825
:104110000112E17528792076A888011261760120C4
:10412000039908710398FDF78AFD064630460EB0E4
:1041300070BD2DE9F74F90B091461198012803DD2D
:10414000132013B0BDE8F08F10A8FEF713FE0F90F8
:104150000F98002801DA0B20F3E788490F9851F8EF
:1041600020500DB90C20ECE7002028700F98C0B249
:104170000C9000200B900C98FDF76CFC01900198BE
:1041800000F0010008B10320DBE7019800F0040013
:1041900008B10A20D5E705F10A0202210C98FDF7C3
:1041A000AEFC38B96889B0F5805F03DC6889B0F58A
:1041B000007F01DA0120C4E700BF04AA01210C98A6
:1041C000FDF79DFC10B90498802801D20120B8E7C2
:1041D000119808B1002000E03F2082460498A0EB2F
:1041E0000A000490A9F1010000EA090008B14FF0AB
:1041F0000009B9F1000F1AD16889C11700EBD1513C
:1042000049124FF4FA6292FBF1F1049AB2FBF1F118
:104210000A914FF0000B01E00BF1010B584830F808
:104220001B100A988142F7D8564830F81B90B9F510
:10423000007F02D36889B9FBF0F9B9F1000F01D111
:104240004FF00109B9F1800F01D94FF080090498AE
:10425000B0FBF9F8012640F6F670804500D302263F
:104260004FF6F670804500D30326032E0CD10820AC
:1042700000EB880069890844401EB0FBF1F720205C
:1042800003900020029019E0012E05D108EB4800B0
:10429000401C4008C01C02E04FEA4800001D0746D1
:1042A00068893844401E6989B0FBF1F7012003900A
:1042B00068894FF48041B1FBF0F0029003985044BC
:1042C000079007983844069002990698084405908C
:1042D00005984844A0EB0A000499884201D90E20B1
:1042E0002FE709AA03210C98FDF709FC28B90998C2
:1042F00018B10998B0F5004F01D90120099009992A
:1043000005980844401E491E88430990099905985C
:10431000081A0990032E08D10999039808440390BC
:10432000099907980844079001E009980744DDE9D6
:104330000301081AC11B0298081AB0FBF9F8022EF3
:1043400003D140F6F670804505D3032E05D14FF614
:10435000F670804501D20E20F3E6032E02D10C2028
:104360000D9019E0012E0FD10498B0F5803F0BD2CB
:1043700001200D9010E00000C02400205C0000200F
:10438000E64A0008FC4A00080498B0F5803F01D2D4
:10439000042000E006200D9000BF119810B1F0201D
:1043A0000E9043E06A89002105F13000FDF7DDFB46
:1043B00005F5F77401206070A0700020E0700D9882
:1043C0002071FE206071049850443F21B0FBF1F051
:1043D000FF21B0FBF1F009903F21099841EA9000DC
:1043E000A0710998E0713F20207200216172A172D2
:1043F000E172049820730498010A61730498010C17
:10440000A1730498010EE173552185F82E12AA219B
:1044100085F82F120123002205F130010C98FDF7D9
:104420004CFB08B101208CE6F8200E9005F1300419
:104430006A8900212046FDF798FB0B22D0A1204677
:10444000FDF786FBB5F80AB084F80BB04FEA1B21E4
:10445000217384F80D900398A0730398010AE17307
:1044600001202074032E01D1002001E04FF40070E0
:10447000834684F811B04FEA1B21A1740498B0F56B
:10448000803F05D20498E0740498010A217510E079
:10449000049884F820000498C0F3072121200155D6
:1044A0000498C0F30741222001550498010E2320EF
:1044B00001550E9860753F20207600216176FF201F
:1044C000A076E17684F81CA04FEA1A2161774FEAC2
:1044D0001A41A1774FEA1A61E177FDF734FB0990A1
:1044E000032E3ED1099884F843000998C0F30721B0
:1044F000442001550998C0F307414520015509980A
:10450000010E4620015584F82470C7F307212520A9
:104510000155C7F3074126200155390E27200155C3
:10452000022084F82C0000212D2001552E20015559
:104530002F200155012084F830003120015506203C
:1045400084F8320033200155802084F8400029206F
:1045500084F8420013228DA104F14700FDF7F8FA18
:104560001FE0099884F827000998C0F30721282044
:1045700001550998C0F30741292001550998010EFA
:104580002A200155A775390AE175802084F8240096
:10459000292084F82600132281A104F12B00FDF7C5
:1045A000D7FA552084F8FE01AA2140F2FF100155E8
:1045B0000123524621460C98FDF77FFA08B10120ED
:1045C000BFE5032E06D101230AF1060221460C980D
:1045D000FDF773FA079808904FF0000B5FE06A89C7
:1045E00000212046FDF7C1FA0E980990032E14D041
:1045F000012E01D16F4801E06FF0FF0009990843D7
:104600000990099820700998000A60700998000CB8
:10461000A0700998000EE07019E0099860F0FF00A2
:104620000990099820700998000A60700998000C98
:10463000A0700998000EE070FF202071FF216171C9
:10464000A171E17120726172A1720F21E17208986B
:10465000411C02460123089121460C98FDF72DFAD2
:1046600008B101206DE56A8900212046FDF77DFA39
:10467000012009900EE00898411C02460123089190
:1046800021460C98FDF719FA08B1012059E509985F
:10469000401C09900998B842EDD30BF1010BBBF116
:1046A000000F9CD0032E01D1484600E002988346BB
:1046B00000BF0898411C02460123089121460C982E
:1046C000FDF7FBF908B101203BE5ABF101005FEA22
:1046D000000BEED1032E49D1522020706070612072
:1046E000A0704120E070722084F8E401722140F251
:1046F000E51001554121401C01556121401C015527
:10470000A8F1010084F8E801C0F3072140F2E910A4
:104710000155A8F10100C0F307414FF4F5700155B0
:10472000A8F10100010E40F2EB100155022084F8BF
:10473000EC01002140F2ED100155401C0155401CD8
:104740000155552084F8FE01AA2140F2FF100155C1
:1047500001230AF1010221460C98FDF7AEF901236D
:104760000AF1070221460C98FDF7A7F9002211462D
:104770000C98FDF7C4F908B10120E2E40020E0E460
:10478000EBFE904D53444F53352E30004E4F204E8C
:10479000414D452020202046415433322020200026
:1047A0004E4F204E414D4520202020464154202090
:1047B0002020200000FFFF002DE9F04102460F46B7
:1047C000802A01DA10462FE01FB12D4B45F220560A
:1047D00002E02C4B45F220560025102416E0A6EBF3
:1047E000050C0CEBDC7805EB68014FEA410C33F863
:1047F0001CC0944500D10BE04FEA410C33F81CC0BB
:10480000944501DA0D4600E00E46641E002CE6D108
:1048100000BF34B14FF0010C0CEB410C33F81CC05D
:1048200001E04FF0000C6046BDE8F08130B5802813
:1048300007DA612823DB7A2821DCA0F12005A8B261
:104840001DE00C2200234FF4F77400BFE51A03EBC0
:1048500055010D4D35F81150854200D10AE00A4D41
:1048600035F81150854201DA0B4600E00C46551E22
:104870002A00EBD100BF12B1044D35F8110030BD54
:10488000969F0108124B00081AF40208F6F7020876
:1048900030B50B46014600202022012409E021FA10
:1048A00002F59D4205D303FA02F5491B04FA02F50D
:1048B0002844151EA2F10102F1DC30BD064C074D63
:1048C00006E0E06840F0010394E8070098471034E0
:1048D000AC42F6D3FBF730FCD4FB0208F4FB020831
:1048E0000FB4054B10B503A9044A029800F018F85C
:1048F00010BC5DF814FB00001914000868000020CB
:1049000002E008C8121F08C1002AFAD17047704798
:10491000002001E001C1121F002AFBD170470000F6
:104920002DE9FF4F8BB09A460F460546002606E05C
:1049300025280BD052460D9990476D1C761C28787F
:104940000028F5D10FB03046BDE8F08F0024A04616
:104950000122604900E0044315F8013F203B02FAC0
:1049600003F00842F7D128782E2817D115F8010F47
:1049700044F004042A280ED06FF02F022878A0F10A
:10498000300109290AD808EB880102EB410100EB4C
:1049900001086D1CF2E757F8048B6D1C2878692814
:1049A0003ED006DC0028CDD063280BD0642804D18B
:1049B00036E0732810D075284BD052460D99904799
:1049C000761C85E017F8040B8DF8000000208DF8A8
:1049D0000100E946012003E057F8049B4FF0FF3047
:1049E00061074FF0000401D40AE0641C44450DDA6D
:1049F0008442FADB19F804100029F6D106E0641CA1
:104A00008442FCDB19F804100029F8D1264404E0A4
:104A100019F8010B52460D999047641EF8D257E0E1
:104A200001CF4FF00A0B002802DA40422D2102E0AC
:104A3000210504D52B218DF82410012103E0E10785
:104A400005D02021F7E70DF1200908910CE00021A5
:104A5000F9E701CF4FF00A0BF9E75946FFF718FFC6
:104A600001F1300209F8012D0028F6D1ADEB090063
:104A700000F1200B600701D44FF00108D84502DD9A
:104A8000A8EB0B0000E000208046002406E009A807
:104A90005246005D0D999047641C761C089884422C
:104AA000F5DB04E0302052460D999047761CB8F1B2
:104AB0000001A8F10108F5DC05E019F8010B5246E8
:104AC0000D999047761CBBF10001ABF1010BF4DCB2
:104AD0006D1C34E70928010001030507090E1012B7
:104AE0001416181C1E000004000200018000400083
:104AF00020001000080004000200000000800040B8
:104B000000200010000800400020001000080004F1
:104B10000002A400E8A1A700ECA1A800A7A1B00092
:104B2000E3A1B100C0A1B700A4A1D700C1A1E000DA
:104B3000A4A8E100A2A8E800A8A8E900A6A8EA00A5
:104B4000BAA8EC00ACA8ED00AAA8F200B0A8F30047
:104B5000AEA8F700C2A1F900B4A8FA00B2A8FC0000
:104B6000B9A80101A1A81301A5A81B01A7A82B01A1
:104B7000A9A84401BDA84801BEA84D01ADA86B017C
:104B8000B1A8CE01A3A8D001ABA8D201AFA8D4018F
:104B9000B3A8D601B5A8D801B6A8DA01B7A8DC0138
:104BA000B8A85102BBA86102C0A8C702A6A1C90249
:104BB000A5A1CA0240A8CB0241A8D90242A89103EC
:104BC000A1A69203A2A69303A3A69403A4A6950369
:104BD000A5A69603A6A69703A7A69803A8A6990339
:104BE000A9A69A03AAA69B03ABA69C03ACA69D0309
:104BF000ADA69E03AEA69F03AFA6A003B0A6A103D9
:104C0000B1A6A303B2A6A403B3A6A503B4A6A603A4
:104C1000B5A6A703B6A6A803B7A6A903B8A6B1036D
:104C2000C1A6B203C2A6B303C3A6B403C4A6B50308
:104C3000C5A6B603C6A6B703C7A6B803C8A6B903D8
:104C4000C9A6BA03CAA6BB03CBA6BC03CCA6BD03A8
:104C5000CDA6BE03CEA6BF03CFA6C003D0A6C10378
:104C6000D1A6C303D2A6C403D3A6C503D4A6C60344
:104C7000D5A6C703D6A6C803D7A6C903D8A60104DC
:104C8000A7A71004A1A71104A2A71204A3A71304A5
:104C9000A4A71404A5A71504A6A71604A8A717047B
:104CA000A9A71804AAA71904ABA71A04ACA71B0448
:104CB000ADA71C04AEA71D04AFA71E04B0A71F0418
:104CC000B1A72004B2A72104B3A72204B4A72304E8
:104CD000B5A72404B6A72504B7A72604B8A72704B8
:104CE000B9A72804BAA72904BBA72A04BCA72B0488
:104CF000BDA72C04BEA72D04BFA72E04C0A72F0458
:104D0000C1A73004D1A73104D2A73204D3A73304FA
:104D1000D4A73404D5A73504D6A73604D8A73704BA
:104D2000D9A73804DAA73904DBA73A04DCA73B0487
:104D3000DDA73C04DEA73D04DFA73E04E0A73F0457
:104D4000E1A74004E2A74104E3A74204E4A7430427
:104D5000E5A74404E6A74504E7A74604E8A74704F7
:104D6000E9A74804EAA74904EBA74A04ECA74B04C7
:104D7000EDA74C04EEA74D04EFA74E04F0A74F0497
:104D8000F1A75104D7A710205CA9132043A8142031
:104D9000AAA1152044A81620ACA11820AEA1192064
:104DA000AFA11C20B0A11D20B1A1252045A826201F
:104DB000ADA13020EBA13220E4A13320E5A13520C4
:104DC00046A83B20F9A1AC2080000321E6A10521E3
:104DD00047A8092148A81621EDA1212159A9602140
:104DE000F1A26121F2A26221F3A26321F4A2642163
:104DF000F5A26521F6A26621F7A26721F8A2682133
:104E0000F9A26921FAA26A21FBA26B21FCA27021FE
:104E1000A1A27121A2A27221A3A27321A4A2742132
:104E2000A5A27521A6A27621A7A27721A8A2782102
:104E3000A9A27921AAA29021FBA19121FCA19221F2
:104E4000FAA19321FDA1962149A897214AA898216A
:104E50004BA899214CA80822CAA10F22C7A1112250
:104E6000C6A115224DA81A22CCA11D22D8A11E220E
:104E7000DEA11F224EA82022CFA123224FA8252247
:104E8000CEA12722C4A12822C5A12922C9A12A2254
:104E9000C8A12B22D2A12E22D3A13422E0A13522F7
:104EA000DFA13622C3A13722CBA13D22D7A14822C0
:104EB000D6A14C22D5A1522250A86022D9A16122AC
:104EC000D4A16422DCA16522DDA1662251A867225B
:104ED00052A86E22DAA16F22DBA1952292A8992214
:104EE000D1A1A522CDA1BF2253A81223D0A1602415
:104EF000D9A26124DAA26224DBA26324DCA26424A6
:104F0000DDA26524DEA26624DFA26724E0A2682475
:104F1000E1A26924E2A27424C5A27524C6A2762463
:104F2000C7A27724C8A27824C9A27924CAA27A2465
:104F3000CBA27B24CCA27C24CDA27D24CEA27E2435
:104F4000CFA27F24D0A28024D1A28124D2A2822405
:104F5000D3A28324D4A28424D5A28524D6A28624D5
:104F6000D7A28724D8A28824B1A28924B2A28A24F5
:104F7000B3A28B24B4A28C24B5A28D24B6A28E2415
:104F8000B7A28F24B8A29024B9A29124BAA29224E5
:104F9000BBA29324BCA29424BDA29524BEA29624B5
:104FA000BFA29724C0A29824C1A29924C2A29A2485
:104FB000C3A29B24C4A20025A4A90125A5A902255A
:104FC000A6A90325A7A90425A8A90525A9A90625F9
:104FD000AAA90725ABA90825ACA90925ADA90A25C9
:104FE000AEA90B25AFA90C25B0A90D25B1A90E2599
:104FF000B2A90F25B3A91025B4A91125B5A9122569
:10500000B6A91325B7A91425B8A91525B9A9162538
:10501000BAA91725BBA91825BCA91925BDA91A2508
:10502000BEA91B25BFA91C25C0A91D25C1A91E25D8
:10503000C2A91F25C3A92025C4A92125C5A92225A8
:10504000C6A92325C7A92425C8A92525C9A9262578
:10505000CAA92725CBA92825CCA92925CDA92A2548
:10506000CEA92B25CFA92C25D0A92D25D1A92E2518
:10507000D2A92F25D3A93025D4A93125D5A93225E8
:10508000D6A93325D7A93425D8A93525D9A93625B8
:10509000DAA93725DBA93825DCA93925DDA93A2588
:1050A000DEA93B25DFA93C25E0A93D25E1A93E2558
:1050B000E2A93F25E3A94025E4A94125E5A9422528
:1050C000E6A94325E7A94425E8A94525E9A94625F8
:1050D000EAA94725EBA94825ECA94925EDA94A25C8
:1050E000EEA94B25EFA9502554A8512555A85225C6
:1050F00056A8532557A8542558A8552559A85625CC
:105100005AA857255BA858255CA859255DA85A259B
:105110005EA85B255FA85C2560A85D2561A85E256B
:1051200062A85F2563A8602564A8612565A862253B
:1051300066A8632567A8642568A8652569A866250B
:105140006AA867256BA868256CA869256DA86A25DB
:105150006EA86B256FA86C2570A86D2571A86E25AB
:1051600072A86F2573A8702574A8712575A872257B
:1051700076A8732577A8812578A8822579A8832524
:105180007AA884257BA885257CA886257DA88725E7
:105190007EA8882580A8892581A88A2582A88B25B4
:1051A00083A88C2584A88D2585A88E2586A88F2583
:1051B00087A8932588A8942589A895258AA8A0253D
:1051C000F6A1A125F5A1B225F8A1B325F7A1BC252B
:1051D0008BA8BD258CA8C625F4A1C725F3A1CB2596
:1051E000F0A1CE25F2A1CF25F1A1E2258DA8E325DE
:1051F0008EA8E4258FA8E52590A80526EFA1062610
:10520000EEA1092691A84026E2A14226E1A10030A4
:10521000A1A10130A2A10230A3A10330A8A10530B1
:10522000A9A1063065A9073096A90830B4A10930B4
:10523000B5A10A30B6A10B30B7A10C30B8A10D3022
:10524000B9A10E30BAA10F30BBA11030BEA11130F0
:10525000BFA1123093A81330FEA11430B2A11530B3
:10526000B3A11630BCA11730BDA11D3094A81E30CB
:1052700095A8213040A9223041A9233042A92430E9
:1052800043A9253044A9263045A9273046A928300E
:1052900047A9293048A94130A1A44230A2A44330F3
:1052A000A3A44430A4A44530A5A44630A6A4473006
:1052B000A7A44830A8A44930A9A44A30AAA44B30D6
:1052C000ABA44C30ACA44D30ADA44E30AEA44F30A6
:1052D000AFA45030B0A45130B1A45230B2A4533076
:1052E000B3A45430B4A45530B5A45630B6A4573046
:1052F000B7A45830B8A45930B9A45A30BAA45B3016
:10530000BBA45C30BCA45D30BDA45E30BEA45F30E5
:10531000BFA46030C0A46130C1A46230C2A46330B5
:10532000C3A46430C4A46530C5A46630C6A4673085
:10533000C7A46830C8A46930C9A46A30CAA46B3055
:10534000CBA46C30CCA46D30CDA46E30CEA46F3025
:10535000CFA47030D0A47130D1A47230D2A47330F5
:10536000D3A47430D4A47530D5A47630D6A47730C5
:10537000D7A47830D8A47930D9A47A30DAA47B3095
:10538000DBA47C30DCA47D30DDA47E30DEA47F3065
:10539000DFA48030E0A48130E1A48230E2A4833035
:1053A000E3A48430E4A48530E5A48630E6A4873005
:1053B000E7A48830E8A48930E9A48A30EAA48B30D5
:1053C000EBA48C30ECA48D30EDA48E30EEA48F30A5
:1053D000EFA49030F0A49130F1A49230F2A4933075
:1053E000F3A49B3061A99C3062A99D3066A99E30D0
:1053F00067A9A130A1A5A230A2A5A330A3A5A4307E
:10540000A4A5A530A5A5A630A6A5A730A7A5A83018
:10541000A8A5A930A9A5AA30AAA5AB30ABA5AC30E8
:10542000ACA5AD30ADA5AE30AEA5AF30AFA5B030B8
:10543000B0A5B130B1A5B230B2A5B330B3A5B43088
:10544000B4A5B530B5A5B630B6A5B730B7A5B83058
:10545000B8A5B930B9A5BA30BAA5BB30BBA5BC3028
:10546000BCA5BD30BDA5BE30BEA5BF30BFA5C030F8
:10547000C0A5C130C1A5C230C2A5C330C3A5C430C8
:10548000C4A5C530C5A5C630C6A5C730C7A5C83098
:10549000C8A5C930C9A5CA30CAA5CB30CBA5CC3068
:1054A000CCA5CD30CDA5CE30CEA5CF30CFA5D03038
:1054B000D0A5D130D1A5D230D2A5D330D3A5D43008
:1054C000D4A5D530D5A5D630D6A5D730D7A5D830D8
:1054D000D8A5D930D9A5DA30DAA5DB30DBA5DC30A8
:1054E000DCA5DD30DDA5DE30DEA5DF30DFA5E03078
:1054F000E0A5E130E1A5E230E2A5E330E3A5E43048
:10550000E4A5E530E5A5E630E6A5E730E7A5E83017
:10551000E8A5E930E9A5EA30EAA5EB30EBA5EC30E7
:10552000ECA5ED30EDA5EE30EEA5EF30EFA5F030B7
:10553000F0A5F130F1A5F230F2A5F330F3A5F43087
:10554000F4A5F530F5A5F630F6A5FC3060A9FD30E0
:1055500063A9FE3064A90531C5A80631C6A8073184
:10556000C7A80831C8A80931C9A80A31CAA80B318F
:10557000CBA80C31CCA80D31CDA80E31CEA80F315F
:10558000CFA81031D0A81131D1A81231D2A813312F
:10559000D3A81431D4A81531D5A81631D6A81731FF
:1055A000D7A81831D8A81931D9A81A31DAA81B31CF
:1055B000DBA81C31DCA81D31DDA81E31DEA81F319F
:1055C000DFA82031E0A82131E1A82231E2A823316F
:1055D000E3A82431E4A82531E5A82631E6A827313F
:1055E000E7A82831E8A82931E9A82032E5A221322C
:1055F000E6A22232E7A22332E8A22432E9A225322F
:10560000EAA22632EBA22732ECA22832EDA22932FE
:10561000EEA231325AA9A33249A98E334AA98F3357
:105620004BA99C334CA99D334DA99E334EA9A13360
:105630004FA9C43350A9CE3351A9D13352A9D23383
:1056400053A9D53354A9004EBBD2014EA1B6024E88
:105650004081034EDFC6044E4181054E4281064E15
:105660004381074EF2CD084EC9D5094EFDC80A4EFA
:10567000CFC90B4EC2CF0C4EA2D80D4EBBB20E4EB0
:10568000EBD30F4E4481104EA4D8114EF3B3124EFB
:105690004581134EA8D7144ED2C7154EA7D8164E23
:1056A000C0CA174E4681184EF0C7194EFBB11A4EAC
:1056B000B5D21B4ED4B41C4EABB61D4EBFCB1E4E46
:1056C000A9D81F4E4781204E4881214E4981224E44
:1056D000AAB6234E4A81244EBDC1254ECFD1264EB7
:1056E0004B81274EA5C9284EADD8294E4C812A4E54
:1056F000F6B82B4EBED12C4EDCE32D4ED0D62E4E1E
:105700004D812F4E4E81304EE1B7314E4F81324E9A
:10571000AEB4334E5081344ED9C1354E5181364EE0
:10572000BCD8374E5281384EE8CD394EA4B53A4EEA
:10573000AACE3B4EF7D63C4E53813D4EF6C03E4E70
:10574000D9BE3F4EAFD8404E5481414E5581424E56
:105750005681434ECBC4444E5781454EC3BE464E40
:105760005881474EB1D8484EB4C3494EE5D24A4E4F
:1057700059814B4EAED64C4EDACE4D4EA7D54E4E3D
:10578000F5BA4F4EA6B7504ED6C0514E5A81524E22
:10579000B9C6534ED2C5544EC7C7554E5B81564EFF
:1057A000D4B9574E5C81584ECBB3594ED2D25A4ED3
:1057B0005D815B4E5E815C4EBFD85D4EC5BE5E4E68
:1057C000F2C65F4EB2D2604EB0CF614EE7CF624EAE
:1057D0005F81634E6081644E6181654E6281664E79
:1057E000E9CA674E6381684E6481694EC0D86A4ECB
:1057F00065816B4E66816C4E67816D4E68816E4E21
:1058000069816F4E6A81704EF2C2714ED2C2724E81
:105810006B81734EE9C8744E6C81754E6D81764E06
:105820006E81774E6F81784E7081794E71817A4E9C
:1058300072817B4E73817C4E74817D4E75817E4E6C
:10584000ACC77F4E7681804E7781814E7881824EC3
:105850007981834E7A81844E7B81854E7C81864E10
:10586000CBC1874E7D81884EE8D3894EF9D58A4ECB
:105870007E818B4EC2CA8C4EFEB68D4EA1D88E4E06
:10588000DAD38F4EF7BF904E8081914EC6D4924EA0
:10589000A5BB934EC1D8944EE5CE954EAEBE964E66
:1058A0008181974E8281984EA8D8994E83819A4ED5
:1058B000C7D19B4EA9D09C4E84819D4E85819E4E22
:1058C00086819F4EBDD8A04EEFD9A14EF6CDA24EF7
:1058D000BABFA34E8781A44EBBBDA54EA5BAA64EA6
:1058E000E0D2A74EFAB2A84EE0BAA94EB6C4AA4E6C
:1058F0008881AB4EEDCFAC4EA9BEAD4EA4CDAE4E21
:10590000C1C1AF4E8981B04E8A81B14E8B81B24EFA
:10591000D7C7B34EF1D9B44E8C81B54EF4D9B64E3B
:105920008D81B74E8E81B84E8F81B94E9081BA4E1F
:10593000CBC8BB4EE9D8BC4E9181BD4E9281BE4EC4
:105940009381BF4EDAD2C04EB2CAC14ECAC8C24E4F
:10595000ECD8C34EEAD8C44EC6D8C54EF6BDC64E26
:10596000CDC6C74EF0B3C84E9481C94EEBD8CA4ECF
:10597000F1BDCB4EE9BDCC4E9581CD4ED4C8CE4EB7
:10598000D3B4CF4E9681D04E9781D14ED8C2D24E4D
:105990009881D34ED6B2D44ED0D7D54ECBCAD64EA0
:1059A000FBCBD74ECCD5D84EB6B8D94EC9CFDA4EF0
:1059B0009981DB4E9A81DC4E9B81DD4EDAD9DE4E39
:1059C000F0D8DF4EAAC7E04E9C81E14EEED8E24E01
:1059D0009D81E34EFAB4E44EEEC1E54ED4D2E64EDC
:1059E0009E81E74E9F81E84EEDD8E94EA081EA4EB8
:1059F000C7D2EB4EEFD8EC4EC7C3ED4EA181EE4EB1
:105A0000A281EF4EA381F04EF6D1F14EA481F24E69
:105A1000D9D6F34EF2D8F44EA581F54EF5D8F64E10
:105A2000FEBCF74EDBBCF84EA681F94EA781FA4EBC
:105A3000A881FB4ECEC8FC4EA981FD4EDDB7FE4EBF
:105A4000AA81FF4EC2B7004FAB81014FF3C6024F90
:105A5000AC81034FAD81044FAE81054FAF81064F3E
:105A6000B081074FB181084FB281094FF8D80A4F72
:105A7000C1D20B4FB3810C4FB4810D4FE9CE0E4F05
:105A8000BFBC0F4FFCB7104FA5B7114FDDD0124F61
:105A9000B581134FB681144FB781154FB881164F9A
:105AA000B981174FDAD6184FC5D3194FEFBB1A4F2C
:105AB000E1BB1B4FF1D81C4FBA811D4FBB811E4F5C
:105AC000A1C91F4FB0CE204FABB4214FBC81224F94
:105AD000F3D8234FBD81244FCBC9254FF6D8264F8D
