:020000040800F2
:100000008004002045010008F1120008F3120008E6
:10001000F7120008FB120008FF12000800000000A1
:1000200000000000000000000000000003130008B2
:10003000051300080000000007130008091300085A
:100040005F0100085F0100085F0100085F01000810
:100050005F0100085F0100085F0100085F01000800
:100060005F0100085F0100085F0100085F010008F0
:100070005F0100085F0100085F0100085F010008E0
:100080005F0100085F0100085F0100085F010008D0
:100090005F0100085F0100085F0100085F010008C0
:1000A0005F0100085F0100085F0100085F010008B0
:1000B0005F0100085F0100085F0100085F010008A0
:1000C0005F0100085F0100085F0100085F01000890
:1000D0005F0100080B1300085F0100085F010008C2
:1000E0005F0100085F0100085F0100085F01000870
:1000F0005F0100085F0100085F0100085F01000860
:100100005F0100085F0100085F0100085F0100084F
:100110005F0100085F0100085F0100085F0100083F
:100120005F0100085F0100085F0100085F0100082F
:10013000DFF80CD001F00CFE00480047391200082F
:10014000800400200648804706480047FEE7FEE797
:10015000FEE7FEE7FEE7FEE7FEE7FEE7FEE7FEE777
:1001600047020008310100080CB500200190009002
:100170006C48006840F480306A49086000BF6948F4
:10018000006800F4003000900198401C0190009835
:1001900018B90198B0F5A06FF1D16248006800F479
:1001A000003010B10120009001E000200090009884
:1001B000012843D15C48006840F010005A490860AB
:1001C0000846006820F0030008600846006840F018
:1001D0000200086053484068524948600846406839
:1001E00048600846406840F48060486008464068BF
:1001F00020F47C1048600846406840F4E8104860ED
:100200000846006840F08070086000BF45480068FC
:1002100000F000700028F9D04248406820F0030048
:10022000404948600846406840F00200486000BF0E
:100230003C48406800F00C000828F9D10CBD10B50E
:10024000FFF792FF10BD10B53648006840F001007E
:1002500034490860084640683449084031494860DC
:1002600008460068324908402E4908600846006880
:1002700020F4802008600846406820F4FE004860B2
:100280004FF41F008860FFF7DAFF4FF00060294944
:10029000086010BD10B5002100200022214B5B68D2
:1002A00003F00C0121B1042906D0082928D107E068
:1002B000214B224C236027E01F4B204C236023E07E
:1002C000184B5B6803F47010164B5B6803F48032C4
:1002D000022303EB904022B9194B4343174C236090
:1002E0000DE0104B5B6803F4003323B1144B434320
:1002F000124C236003E0104B4343104C236003E097
:100300000D4B0E4C236000BF00BF064B5B68C3F370
:1003100003130C4CE15C094B1B68CB40074C23607A
:1003200010BD000000100240002002400000FFF855
:10033000FFFFF6FE08ED00E000127A00000000204A
:1003400000093D000400002031490143314A116099
:10035000704770B5002100230F22C47804B32D4CE0
:10036000246804F4E064C4F5E064210AC1F10403E4
:10037000CA40447804FA03F1847814402143090107
:10038000254C0678A155047804F01F050124AC40E3
:1003900005786D11AD0005F1E025C5F8004109E0D3
:1003A000047804F01F050124AC401C4D067876113A
:1003B00045F8264070BD1A4A0A400243154B1B1FE0
:1003C0001A60704739B1134A121D12680243114B6B
:1003D0001B1D1A6006E00F4A121D126882430D4B66
:1003E0001B1D1A607047042808D14FF0E0210969ED
:1003F00041F004014FF0E022116107E04FF0E021ED
:10040000096921F004014FF0E022116170470000FA
:100410000000FA050CED00E000E400E080E100E0FF
:1004200080FFFF1F10B50446CC48844208D101214B
:10043000042000F02DFB0021042000F029FB46E001
:10044000C748844208D10121082000F021FB002187
:10045000082000F01DFB3AE0C248844208D1012187
:10046000102000F015FB0021102000F011FB2EE001
:10047000BD48844208D10121202000F009FB002161
:10048000202000F005FB22E0B848844208D1012179
:10049000402000F0FDFA0021402000F0F9FA16E0BB
:1004A000B348844208D10121802000F0F1FA0021F4
:1004B000802000F0EDFA0AE0AE48844207D1012125
:1004C000801500F0E5FA0021A01500F0E1FA10BD5A
:1004D00010B50121084600F0DBFA0021012000F0F0
:1004E000D7FA10BD2DE9F041024600250026002074
:1004F00000230024002791F803C00CF00F0591F8A9
:1005000003C00CF0100CBCF1000F03D091F802C036
:100510004CEA050591F800C0BCF1000F31D0146819
:1005200000202BE04FF0010C0CFA00F3B1F800C0F2
:100530000CEA03069E4220D183004FF00F0C0CFA08
:1005400003F7BC4305FA03FC4CEA040491F803C02A
:10055000BCF1280F06D14FF0010C0CFA00FCC2F8D8
:1005600014C00AE091F803C0BCF1480F05D14FF068
:10057000010C0CFA00FCC2F810C0401C0828D1D3B2
:100580001460B1F800C0BCF1FF0F34DD54680020E6
:100590002EE000F1080C4FF0010808FA0CF3B1F856
:1005A00000C00CEA03069E4221D183004FF00F0CDD
:1005B0000CFA03F7BC4305FA03FC4CEA040491F877
:1005C00003C0BCF1280F05D100F1080C08FA0CF8A3
:1005D000C2F8148091F803C0BCF1480F07D100F1B4
:1005E000080C4FF0010808FA0CF8C2F81080401C03
:1005F0000828CED35460BDE8F0814FF6FF7101802A
:10060000022181700421C170704702460020936866
:100610000B400BB1012000E00020704701468868C4
:1006200080B2704702460020D3680B400BB1012016
:1006300000E0002070470146C86880B27047016141
:100640007047416170470AB1016100E04161704744
:10065000C16070474FF480320A43826181618261D8
:1006600082698269704702460020434B18684FF642
:100670008073184040EA021008433F4B18607047EF
:100680003E49C8617047F0B50A46002300240021A6
:10069000002500F00046B6F1004F02D1364EF16958
:1006A00001E0354E7168C0F3034583B200F4401693
:1006B000B6F5401F08D121F070612F4E766826F004
:1006C00070662D4F7E6012E000F48016B6F5801F34
:1006D00006D1032606FA05F4A14341F0706106E055
:1006E000460D360103FA06F6B14341F0706122B1BE
:1006F000460D360103FA06F6314300F00046B6F126
:10070000004F02D11C4EF16101E01B4E7160F0BD43
:1007100030B500228B071C0F0F2303FA04F2164B8F
:1007200008338C1053F824309343134C08348D1045
:1007300044F8253023468C1053F824308C07240FBE
:1007400000FA04F423430C4C08348D1044F825308F
:1007500030BD0A49DC3108607047000000080140E4
:10076000000C01400010014000140140001801403D
:10077000001C014000200140000001400000204218
:10078000DF48006840F00100DD4908600846406825
:10079000DC490840DA49486008460068DA49084000
:1007A000D74908600846006820F4802008600846A1
:1007B000406820F4FE0048604FF41F0088607047D6
:1007C000CF49096821F48031CD4A1160114609688A
:1007D00021F480211160B0F5803F03D0B0F5802F67
:1007E0000ED106E0C649096841F48031C44A11605F
:1007F00007E0C349096841F4A021C14A116000E043
:1008000000BF00BF704710B5014600220023002042
:100810004A11012A02D1BA4C236806E0022A02D109
:10082000B74C236A01E0B64C636A01F01F02012451
:1008300094401C400CB1012000E0002010BD38B5F0
:10084000002000900024002500BF3120FFF7DBFFCF
:1008500005460098401C00900098B0F5A06F01D0AC
:10086000002DF2D03120FFF7CEFF08B1012400E0C7
:100870000024204638BD01460020A14A106820F01F
:10088000F80040EAC10010607047A0490860704756
:10089000024600209A4B586820F47C1042EA01037B
:1008A0001843974B5860704798490866704701464F
:1008B0000020934A506820F00300084350607047BE
:1008C0008F48406800F00C007047014600208C4AB9
:1008D000506820F0F0000843506070470146002047
:1008E000874A506820F4E060084350607047014632
:1008F0000020834A506820F4605040EAC1005060F4
:10090000704729B17E4A527A02437D4B5A7204E005
:100910007B4A527A82437A4B5A7270477B49D8316C
:100920000860704701460020754A506820F4404036
:100930000843506070470021714A20321170704A9C
:1009400082F82010012802D004280AD104E00121F5
:100950006B4A2032117005E00521694A203211707E
:1009600000E000BF00BF70476949086070476449F4
:10097000096A0143624A1162704765494439086057
:10098000704730B500210022002400235C4D6D68C3
:1009900005F00C0121B1042905D0082923D105E077
:1009A0005C4D056022E05B4D05601FE0544D6D68B5
:1009B00005F47012524D6D6805F48034022505EB84
:1009C00092421CB9544D554305600BE04C4D6D6887
:1009D00005F400351DB1504D5543056002E04D4D05
:1009E0005543056002E04B4D056000BF00BF444D1C
:1009F0006D6805F0F0010909484D6B5C0568DD4044
:100A000045603F4D6D6805F4E061090A434D6B5C3C
:100A10004568DD4085603A4D6D6805F46051C90A4E
:100A20003E4D6B5C4568DD40C560354D6D6805F435
:100A30004041890B3A4D6B5CC568B5FBF3F5056128
:100A400030BD29B12E4A526902432D4B5A6104E050
:100A50002B4A526982432A4B5A61704729B1284A6E
:100A600092690243264B9A6104E0254A92698243C7
:100A7000234B9A61704729B1214AD2690243204B26
:100A8000DA6104E01E4AD26982431D4BDA61704785
:100A900029B11B4AD2680243194BDA6004E0184AB4
:100AA000D2688243164BDA60704729B1144A126942
:100AB0000243134B1A6104E0114A12698243104B3E
:100AC0001A61704712494039086070470F49C8647D
:100AD00070470B49C87170470948406A40F0807000
:100AE00007494862704701460020054A92680A405B
:100AF0000AB1012000E00020704701498872704768
:100B0000001002400000FFF8FFFFF6FE0000424226
:100B10008004424200127A0000093D0014000020C7
:100B20002400002010B50446BE48844208D10121AB
:100B30008014FFF7ADFF0021A014FFF7A9FF16E016
:100B4000B948844208D101210014FFF7AEFF00210B
:100B50002014FFF7AAFF0AE0B448844207D101211C
:100B6000C013FFF7A2FF0021E013FFF79EFF10BDA7
:100B700010B50022028802F441520B884C882343AE
:100B80008C882343CC8823430C8923434C892343FB
:100B90008C892343CC8923431A430280838B4FF2F1
:100BA000FF74234083830B8A038210BD2DE9F04F2D
:100BB00085B005460C464FF0000902274FF00008AB
:100BC0004FF0010B0026B246A88B4FF240010840BF
:100BD000A88302202884B5F81C90A068022801D1BF
:100BE00000BF38E0A08810B94FF0010B01E04FF0D2
:100BF000020B8D48854200D100E000BF6846FFF738
:100C0000C0FEDDF800A0E088B0F5007F0AD14FEA11
:100C10001A2000EB80004000A168B0FBF1F0401DFD
:100C200086B20BE04FEA4B10BAFBF0F000EB80000D
:100C30004000A168B0FBF1F0401D86B20A20B6FB6F
:100C4000F0F606F00108A6EB0800C0F34F074FF6D8
:100C5000FF7000EA0828022F01DBFF2F02DD0227C8
:100C60004FF00008E08840EA080038432884A08854
:100C7000A1890843618808432188084340F4006043
:100C800040EA0909A5F81C9005B0BDE8F08F0021E5
:100C9000018041808180C180018141818181C18148
:100CA0000721018270470021018041808180C1803D
:100CB0000221816000218181704721B1028842F0C8
:100CC0004002028004E002884FF6BF731A4002809F
:100CD000704721B1828B42F48062828304E0828B70
:100CE0004FF6FF331A408283704730B5002400234B
:100CF0000C110125A540ABB21AB185881D43858032
:100D000002E085889D43858030BD1AB183880B43FE
:100D1000838002E083888B438380704781817047A2
:100D20000146888970474FF6FF62914204D00288DD
:100D300042F48072028004E002884FF6FF631A409A
:100D40000280704721B1828842F00402828004E070
:100D500082884FF6FB731A408280704702884FF2F8
:100D6000FF731A40028002880A430280704701889C
:100D700041F480510180704721B1028842F4005251
:100D8000028004E002884DF6FF731A40028070472B
:100D900002460020012901D0108B00E0908A7047A4
:100DA0000146088A7047B1F5804F04D1028842F4A9
:100DB0008042028004E002884BF6FF731A400280F2
:100DC00070470246002013890B400BB1012000E060
:100DD00000207047CA4302817047F0B502460020E8
:100DE00000240023002501F00F070126BE40B4B205
:100DF0000B1101269E40B3B2968806EA03051689B8
:100E0000264016B10DB1012000E00020F0BD10B564
:100E1000002201F00F040123A3409AB2D3430381BF
:100E200010BD00000030014000380040003C004090
:100E300010B50446FB48844209D101218803FFF71D
:100E400027FE00214FF48040FFF722FE32E0F648F3
:100E5000844209D101214804FFF727FE00214FF405
:100E60000030FFF722FE25E0F048844209D101213D
:100E70008804FFF71AFE00214FF48020FFF715FECB
:100E800018E0EB48844209D10121C804FFF70DFEA8
:100E900000214FF40020FFF708FE0BE0E5488442F4
:100EA00008D101210805FFF700FE00214FF4801052
:100EB000FFF7FBFD10BD2DE9F04786B005460E4655
:100EC0000024A24600BFA1460027B08900B100BFA0
:100ED0002F462C8A4CF6FF700440F08804432C8285
:100EE000AC894EF6F3100440B0883189084371890B
:100EF00008430443AC81AC8A4FF6FF400440B089FC
:100F00000443AC8201A8FFF73CFDC648874202D1EA
:100F1000DDF810A001E0DDF80CA0A88900F4004085
:100F200040B10AEBCA0000EB0A1031684900B0FB7F
:100F3000F1F807E00AEBCA0000EB0A1031688900FB
:100F4000B0FBF1F86420B8FBF0F004012009642143
:100F500001FB1089A88900F4004040B1322000EB69
:100F6000C900B0FBF1F000F00700044308E03220B4
:100F700000EB09106421B0FBF1F000F00F00044316
:100F80002C8106B0BDE8F0874FF4165101600021B6
:100F90008180C18001810C214181002181817047C4
:100FA00010B502460020108A4FF2FF0318400B884C
:100FB0004C8823438C882343CC88234318431082D6
:100FC00010BD0021018041808180C180704721B126
:100FD000828942F40052828104E082894DF6FF73D7
:100FE0001A4082817047F0B5034600240026002590
:100FF000002040F66A17B94200D100BF1846C1F37D
:10100000421401F01F06012707FA06F5012C01D151
:101010000C3004E0022C01D1103000E014301AB181
:1010200007682F43076002E00768AF430760F0BD21
:101030001AB1838A0B43838202E0838A8B438382C3
:101040007047028A4FF6F0731A400282028A0A43FE
:101050000282704782894FF2FF731A40828182892F
:101060000A438281704721B1828942F00202828163
:1010700004E082894FF6FD731A4082817047028A2C
:101080004FF6DF731A400282028A0A4302827047D7
:1010900021B1028A42F48042028204E0028A4BF6C5
:1010A000FF731A4002827047C1F3080282807047C2
:1010B00001468888C0F308007047818941F001012A
:1010C00081817047028BD2B20283028B42EA0122F5
:1010D00002837047028B02F47F420283028B0A4331
:1010E0000283704721B1828A42F02002828204E0AA
:1010F000828A4FF6DF731A408282704721B1828A5A
:1011000042F01002828204E0828A4FF6EF731A40A6
:101110008282704721B1828A42F00802828204E012
:10112000828A4FF6F7731A408282704721B1828912
:1011300042F40042828103E08289C2F30E0282817E
:10114000704721B1828A42F40062828204E0828A7E
:101150004FF2FF731A4082827047828A4FF6FB7308
:101160001A408282828A0A438282704721B1828A2F
:1011700042F00202828204E0828A4FF6FD731A4036
:101180008282704702460020B1F5007F00D100BF87
:1011900013880B400BB1012000E00020704701F4E0
:1011A0000072B2F5007F00D100BFCA4302807047D1
:1011B00070B50246002400230025002040F66A1680
:1011C000B14200D100BFC1F3421501F01F03012657
:1011D00006FA03F3012D02D19689334006E0022D71
:1011E00002D1168A334001E0968A33400C12012660
:1011F00006FA04F41688344013B10CB1012000E063
:10120000002070BD10B50022002340F66A14A142F0
:1012100000D100BF0A1201249440A3B2DC43048031
:1012200010BD00000038014000440040004800406C
:10123000004C00400050004000F08DF80FA117480E
:1012400000F0F4F816A000F095FD00F063FA1B49D9
:1012500008700846007818B919A000F08BFD02E06C
:101260001CA000F087FD1F4800F0F7FB1D48416CF3
:101270001DA000F07FFD00BFFEE70000D5E2CAC759
:10128000D2BBB8F6B4AEBFDAD6D0B6CFBDD3CAD5CE
:10129000BBD8CFD4CAB5D1E90A000000003801405C
:1012A000BBB6D3ADCAB9D3C3B1FCBBF053544D33B5
:1012B00032BFAAB7A2B0E50A0A0A0A002800002035
:1012C0000D0AB3F5CABCBBAF5344BFA8B3C9B9A696
:1012D000000000000D0ACAB6B1F0B2BBB5BD534460
:1012E000BFA80000300000206379203D2025640065
:1012F000704700BFFEE700BFFEE700BFFEE700BF8C
:10130000FEE7704770477047704710B540F22551AF
:101310000648FFF74DFF38B10448FFF7C9FEC4B2D5
:1013200021460248FFF7C0FE10BD00000038014012
:1013300008B54FF4A060FFF707F825208DF80000EE
:1013400001208DF801008DF802008DF80300684639
:10135000FEF7FFFF08BD00B585B001210420FFF7AF
:101360007DFB01218803FFF779FB4FF40070ADF896
:10137000100018208DF8130003208DF8120004A926
:101380005248FFF7AFF84FF48060ADF8100004202A
:101390008DF8130004A94D48FFF7A4F84FF4E1308D
:1013A00000900020ADF80400ADF80600ADF808008C
:1013B000ADF80C000C20ADF80A0069464448FFF770
:1013C0007AFDFFF7B5FF012240F225514048FFF7B3
:1013D0000AFE01213E48FFF7FAFD05B000BD70B5D9
:1013E00004460D4629462046FFF75EFE00BF8021D9
:1013F0002046FFF7C7FE0028F9D070BD2DE9F04167
:1014000007460D461646002405E0295D3846FFF7DD
:10141000E6FF601CC4B2B442F7DB00BF402138468F
:10142000FFF7B0FE0028F9D0BDE8F08170B50646A0
:101430000C46002500BF615D3046FFF7D0FF6D1CF4
:10144000605D0028F7D100BF40213046FFF79AFECB
:101450000028F9D070BD2DE9F04105460C46260A5A
:10146000E7B231462846FFF71FFE00BF802128461D
:10147000FFF788FE0028F9D039462846FFF714FE0A
:1014800000BF80212846FFF77DFE0028F9D0BDE887
:10149000F08170B504460D46E1B20D48FFF704FE39
:1014A00000BF80210A48FFF76DFE0028F9D02046D2
:1014B00070BD10B5044600BF20210548FFF762FE4D
:1014C0000028F9D00248FFF7F3FD10BD00080140E5
:1014D0000038014008B50021FE48FFF7EEFBFD484B
:1014E000FFF720FB00214FF48050FFF7B7FA2020D0
:1014F000ADF8000004208DF803006946F648FEF7B9
:10150000F1FF4020ADF800006946F348FEF7EAFF1E
:101510008020ADF800006946EF48FEF7E3FF4FF486
:101520008070ADF800006946EB48FEF7DBFF08BDB0
:1015300000B587B001210420FFF790FA01210803CC
:10154000FFF78CFA2020ADF8180003208DF81A0060
:1015500018208DF81B0006A9DF48FEF7C3FF802086
:10156000ADF8180006A9DC48FEF7BCFF4020ADF836
:10157000180004208DF81B0006A9D748FEF7B2FF1B
:101580004FF48070ADF8180010208DF81B0006A9EC
:10159000D148FEF7A7FF0020ADF804004FF4827099
:1015A000ADF806000020ADF808000220ADF80A00F2
:1015B0000120ADF80C004002ADF80E000020ADF89F
:1015C0001000ADF812000720ADF8140001A9C148C1
:1015D000FFF7CEFA0121BF48FFF76FFB07B000BD50
:1015E00010B5044600BF0221BA48FFF7EAFB002805
:1015F000F9D02146B748FFF791FB00BF0121B5485C
:10160000FFF7DFFB0028F9D0B248FFF789FBC0B233
:1016100010BD2DE9FC4106460C461746002546F054
:1016200040008DF80000200E8DF80100200C8DF890
:101630000200200A8DF80300E0B28DF804008DF856
:10164000057000BF04E01DF80500FFF7C9FF6D1C21
:10165000062DF8D3BDE8FC8110B5002400BF02219F
:101660009C48FFF7AEFB0028F9D0FF219948FFF70F
:1016700055FB00BF01219748FFF7A3FB0028F9D0D5
:101680009448FFF74DFBC4B2204610BD70B5054627
:1016900040F6FF7400E0641EFFF7DEFFA84201D0B1
:1016A000002CF8D10CB9FF2070BD0020FCE710B56C
:1016B0004FF480718848FEF7C4FF95220021084648
:1016C000FFF7A7FF0120FFF7E1FF08B1FF2010BDE2
:1016D00000BF4FF480718048FEF7B1FFFF20FFF795
:1016E0007FFF4FF480717C48FEF7ABFFFF220021A3
:1016F0000120FFF78EFF0020FFF7C8FF0028E8D188
:101700004FF480717448FEF79AFFFF20FFF768FFDF
:101710000020DCE710B50024FFF70AFF4FF48071CA
:101720006D48FEF78CFF00BF03E0FF20FFF758FF76
:10173000641C092CF9D9FFF7BAFF10BD08B50120C8
:1017400000909DF8000008BD7FB504460025FF26E7
:10175000711C6148FEF775FFFF2200210A20FFF788
:1017600058FF0020FFF792FF98B9FE20FFF78EFF89
:1017700040B900BF04E0FFF76FFF0DF805006D1CD6
:10178000102DF8D3FF20FFF72BFFFF20FFF728FFD6
:1017900000264FF480715048FEF751FFFF20FFF7FD
:1017A0001FFF9DF8000020709DF80100000260807E
:1017B00060889DF80210084360809DF803000006D1
:1017C000606060689DF8041040EA014060606068F5
:1017D0009DF8051040EA0120606060689DF80610E1
:1017E000084360609DF8070020729DF80800607251
:1017F0009DF809000006E060E0689DF80A1040EAE4
:101800000140E060E0689DF80B1040EA0120E060D4
:10181000E0689DF80C100843E060207C9DF80D10F6
:1018200040EA111020749DF80D000007000D608241
:10183000608A9DF80E10084360829DF80F004008F2
:10184000207501206075304604B070BD7FB5044638
:101850000025FF26711C2048FEF7F3FEFF22002121
:101860000920FFF7D6FE0020FFF710FF98B9FE20F1
:10187000FFF70CFF40B900BF04E0FFF7EDFE0DF8E5
:1018800005006D1C102DF8D3FF20FFF7A9FEFF20E7
:10189000FFF7A6FE00264FF480710F48FEF7CFFE3B
:1018A000FF20FFF79DFE9DF80000800920709DF845
:1018B0000000C0F3830060709DF8000000F003009A
:1018C000A0709DF80100E0709DF8020020719DF865
:1018D000030003E0003001400008014060719DF802
:1018E00004000001E080E0889DF8051040EA111036
:1018F000E0809DF8050000F00F0020729DF80600C2
:10190000C00960729DF80600C0F38010A0729DF8B7
:101910000600C0F34010E0729DF80600C0F300100E
:101920002073002060739DF806008007000D206181
:1019300020699DF8071040EA8100206120699DF828
:10194000081040EA911020619DF80800C0F3C20021
:1019500020759DF8080000F0070060759DF80900EB
:101960004009A0759DF80900C0F38200E0759DF85C
:1019700009008007400F2076207E9DF80A1040EA7B
:10198000D11020769DF80A00C0F3801060769DF893
:101990000A008006400EA076A07E9DF80B1040EA5B
:1019A000D110A0769DF80B0000F07F00E0769DF846
:1019B0000C00C00920779DF80C00C0F3411060773F
:1019C0009DF80C00C0F38200A0779DF80C00800702
:1019D000000FE077E07F9DF80D1040EA9110E0776E
:1019E0009DF80D00C0F3401084F82000002084F81A
:1019F00021009DF80D0000F0010084F822009DF800
:101A00000E00C00984F823009DF80E00C0F380107A
:101A100084F824009DF80E00C0F3401084F82500DF
:101A20009DF80E00C0F3001084F826009DF80E000B
:101A3000C0F3810084F827009DF80E0000F0030039
:101A400084F828009DF80F00400884F82900012040
:101A500084F82A00304604B070BD70B50446FF25F6
:101A60002046FFF7F3FE054604F12C00FFF76CFE5D
:101A700005462069401C6064217E606C891C01223F
:101A80008A4050436064217A01208840A064D4E9F0
:101A9000110148436064284670BD2DE9F0410446B9
:101AA0000F46154600264FF0FF084FF480719C4802
:101AB000FEF7C7FDFF2239461120FFF7AAFD0020DF
:101AC000FFF7E4FD90B9FE20FFF7E0FD70B900BF1D
:101AD00004E0FFF7C1FD2070641C761CAE42F8D311
:101AE000FFF7BAFDFFF7B8FD4FF000084FF4807123
:101AF0008B48FEF7A4FDFF20FFF772FD4046BDE8CE
:101B0000F0812DE9F04704460D4616461F464FF07A
:101B10000008C1464FF0FF0A4FF480718048FEF77D
:101B200090FD26E005EB0901FF221120FFF771FD72
:101B30000020FFF7ABFD10B1FF20BDE8F087FE20CD
:101B4000FFF7A4FD98B94FF0000805E0FFF784FD0A
:101B50002070641C08F10108B045F7D309F500793D
:101B6000FFF77AFDFFF778FD4FF0000A01E04FF034
:101B7000FF0A3800A7F10107D4D14FF480716848FB
:101B8000FEF75DFDFF20FFF72BFD5046D5E770B552
:101B9000002518E0FFF760FD044604F01F04052C43
:101BA00004D00B2C04D00D2C06D103E0052605E053
:101BB0000B2070BD0D20FCE7FF2600BF00BF052EE7
:101BC00000D102E06D1C402DE4D900BF00BFFFF73B
:101BD00043FD0028FBD02046EBE72DE9F041044609
:101BE0000F46154600264FF0FF084FF480714C4811
:101BF000FEF727FDFF2239461820FFF70AFD0020D7
:101C0000FFF744FDC0B9FF20FFF7EAFCFE20FFF715
:101C1000E7FC00BF04E02078FFF7E2FC641C761CC0
:101C2000AE42F8D3FFF718FDFFF716FDFFF7AFFF41
:101C3000052801D14FF000084FF480713848FEF7B5
:101C4000FEFCFF20FFF7CCFC4046BDE8F0812DE90B
:101C5000F04704460D4616461F464FF00008C146A1
:101C60004FF0FF0A4FF480712D48FEF7EAFC2CE09C
:101C700005EB0901FF221820FFF7CBFC0020FFF73E
:101C800005FD10B1FF20BDE8F087FF20FFF7A8FC9D
:101C9000FE20FFF7A5FC4FF0000805E02078FFF7D5
:101CA0009FFC641C08F10108B045F7D309F50079E1
:101CB000FFF7D2FCFFF7D0FCFFF769FF052802D140
:101CC0004FF0000A01E04FF0FF0A3800A7F10107CA
:101CD000CED14FF480711248FEF7B1FCFF20FFF720
:101CE0007FFC5046CFE710B500244FF480710C48BC
:101CF000FEF7A7FCFF2200210D20FFF78AFCFFF76B
:101D0000ABFC0446FFF7A8FC44EA00244FF48071C2
:101D10000348FEF794FCFF20FFF762FC204610BD4D
:101D20000008014030B50B46014600202022012466
:101D300009E021FA02F59D4205D303FA02F5491B99
:101D400004FA02F52844151EA2F10102F1DC30BDAF
:101D5000064C074D06E0E06840F0010394E80700F8
:101D600098471034AC42F6D3FEF7E6F9081F000896
:101D7000281F00080FB4054B10B503A9044A0298A8
:101D800000F018F810BC5DF814FB00009314000874
:101D90002C00002002E008C8121F08C1002AFAD156
:101DA00070477047002001E001C1121F002AFBD1DB
:101DB000704700002DE9FF4F89B09B46044600257F
:101DC00006E025280BD05A460B999047641C6D1CE1
:101DD00020780028F5D10DB02846BDE8F08F002707
:101DE000B8460122474900E0074314F8013F203B71
:101DF00002FA03F00842F7D120782E2819D114F8FE
:101E0000010F47F004072A280ED06FF02F02207828
:101E1000A0F1300109290CD808EB880102EB41013F
:101E200000EB0108641CF2E70A98641C50F8048B6C
:101E30000A9020780028CED0642808D0692806D0DF
:101E400075281ED05A460B9990476D1C58E00A9988
:101E50004FF00A0901C90A91002802DA40422D21F7
:101E600002E0390504D52B218DF82010012103E073
:101E7000F90704D02021F7E78A4608AE0DE00021DB
:101E8000FAE70A994FF00A0901C90A91F7E74946AA
:101E9000FFF748FF303106F8011D0028F7D1ADEB00
:101EA000060000F12009780701D44FF00108C84569
:101EB00002DDA8EB090000E000208046002706E0D4
:101EC00008A85A46C05D0B9990476D1C7F1C57456A
:101ED000F6DB04E030205A460B9990476D1CB8F1B0
:101EE0000001A8F10108F5DC05E016F8010B5A46DF
:101EF0000B9990476D1CB9F10001A9F10109F4DCBF
:101F0000641C65E709280100281F00080000002064
:101F100030000000941D0008581F00083000002009
:101F200050040000A41D000800A24A0400000000A4
:101F30000000000001020304060708090000000079
:101F4000010203040102030406070809020406084B
:081F5000000000000000000089
:0400000508000131BD
:00000001FF
