:020000040800F2
:1000000068040020450100081D04000815040008CC
:1000100019040008B90100087F0900080000000069
:10002000000000000000000000000000C105000802
:10003000BD01000800000000C9040008AD0600086A
:100040005F0100085F0100085F0100085F01000810
:100050005F0100085F0100085F0100085F01000800
:100060005F0100085F0100085F0100085F010008F0
:100070005F0100085F0100085F0100085F010008E0
:100080005F0100085F0100085F0100085F010008D0
:100090005F0100085F0100085F0100085F010008C0
:1000A0005F0100085F0100085F0100085F010008B0
:1000B0005F0100085F0100085F0100085F010008A0
:1000C0005F0100085F0100085F0100085F01000890
:1000D0005F010008110700085F0100085F010008C8
:1000E0005F0100085F0100085F0100085F01000870
:1000F0005F0100085F0100085F0100085F01000860
:100100005F0100085F0100085F0100085F0100084F
:100110005F0100085F0100085F0100085F0100083F
:100120005F0100085F0100085F0100085F0100082F
:10013000DFF80CD000F02EF8004800473D0B000817
:10014000680400200648804706480047FEE7FEE7AF
:10015000FEE7FEE7FEE7FEE7FEE7FEE7FEE7FEE777
:10016000B10600083101000830B50B4601460020F9
:100170002022012409E021FA02F59D4205D303FA69
:1001800002F5491B04FA02F52844151EA2F10102EA
:10019000F1DC30BD064C074D06E0E06840F001039D
:1001A00094E8070098471034AC42F6D3FFF7C4FF39
:1001B000A00C0008C00C000800BFFEE7704700005C
:1001C00030B5044604254FF4302000F085F805468C
:1001D000042D17D10C48006940F002000A4908615B
:1001E00008464461006940F0400008614FF4302047
:1001F00000F072F805460448006941F6FD710840B8
:1002000001490861284630BD0020024004200B4906
:10021000C96801F0010109B101200EE00749C96870
:1002200001F0040109B1022007E00449C96801F0A6
:10023000100109B1032000E00420704700200240B3
:100240000348006940F080000149086170470000E0
:100250000020024078B506460C4604250020009098
:10026000E80200F039F80546042D24D1134800694E
:1002700040F00100114908613480E80200F02CF8D8
:100280000546042D10D1B01C0090200C0099088068
:10029000E80200F021F805460848006941F6FE71C1
:1002A00008400649086106E00448006941F6FE710D
:1002B000084002490861284678BD0000002002403D
:1002C0000248034948600348486070472301674576
:1002D00000200240AB89EFCD00B502460423FFF7B2
:1002E00095FF034603E0FFF791FF0346521E012BE3
:1002F00001D1002AF7D102B90523184600BD2DE926
:10030000F04102460025002600200023002400279B
:1003100091F803C00CF00F0591F803C00CF0100C1D
:10032000BCF1000F03D091F802C04CEA050591F82A
:1003300000C0BCF1000F31D0146800202BE04FF05A
:10034000010C0CFA00F3B1F800C00CEA03069E425F
:1003500020D183004FF00F0C0CFA03F7BC4305FAD1
:1003600003FC4CEA040491F803C0BCF1280F06D149
:100370004FF0010C0CFA00FCC2F814C00AE091F82E
:1003800003C0BCF1480F05D14FF0010C0CFA00FC82
:10039000C2F810C0401C0828D1D31460B1F800C0C6
:1003A000BCF1FF0F34DD546800202EE000F1080C92
:1003B0004FF0010808FA0CF3B1F800C00CEA03068C
:1003C0009E4221D183004FF00F0C0CFA03F7BC437F
:1003D00005FA03FC4CEA040491F803C0BCF1280FB1
:1003E00005D100F1080C08FA0CF8C2F8148091F855
:1003F00003C0BCF1480F07D100F1080C4FF0010811
:1004000008FA0CF8C2F81080401C0828CED35460BB
:10041000BDE8F08100BFFEE700BFFEE7704708B50A
:100420004FF4A06000F046F825208DF80000012070
:100430008DF801008DF802008DF80300684600F089
:1004400001F808BD70B5002100230F22C47804B361
:10045000154C246804F4E064C4F5E064210AC1F199
:100460000403CA40447804FA03F184781440214319
:1004700009010E4C0678A155047804F01F050124EB
:10048000AC4005786D11AD0005F1E025C5F80041DF
:1004900009E0047804F01F050124AC40044D0678FF
:1004A000761145F8264070BD0CED00E000E400E058
:1004B00080E100E002490143024A116070470000F8
:1004C0000000FA050CED00E07047000029B1064A73
:1004D00092690243044B9A6104E0034A92698243A1
:1004E000014B9A61704700000010024030B50021B6
:1004F0000022002400232D4D6D6805F00C0121B170
:10050000042905D0082923D105E0294D056022E002
:10051000274D05601FE0254D6D6805F47012234DD1
:100520006D6805F48034022505EB92421CB9214D1B
:10053000554305600BE01D4D6D6805F400351DB198
:100540001C4D5543056002E0194D5543056002E01E
:10055000174D056000BF00BF144D6D6805F0F00138
:100560000909154D6B5C0568DD4045600F4D6D68F0
:1005700005F4E061090A104D6B5C4568DD4085605B
:100580000A4D6D6805F46051C90A0B4D6B5C4568F6
:10059000DD40C560054D6D6805F44041890B074D90
:1005A0006B5CC568B5FBF3F5056130BD001002401A
:1005B00000127A0000093D00000000201000002019
:1005C000704710B500F002F810BD00000CB5002017
:1005D000019000903348006840F480303149086051
:1005E00000BF3048006800F4003000900198401CC3
:1005F0000190009818B90198B0F5A06FF1D1294881
:10060000006800F4003010B10120009001E00020EB
:1006100000900098012843D12348006840F0100062
:10062000214908600846006820F003000860084679
:10063000006840F0020008601A48406819494860A4
:100640000846406848600846406840F4806048605A
:100650000846406820F47C1048600846406840F432
:10066000E81048600846006840F08070086000BFED
:100670000C48006800F000700028F9D00948406874
:1006800020F00300074948600846406840F0020037
:10069000486000BF0348406800F00C000828F9D10A
:1006A0000CBD000000100240002002407047000016
:1006B00010B51348006840F0010011490860084671
:1006C0004068104908400E494860084600680E49D5
:1006D00008400B4908600846006820F48020086044
:1006E0000846406820F4FE0048604FF41F00886010
:1006F000FFF767FF4FF000600449086010BD00007D
:10070000001002400000FFF8FFFFF6FE08ED00E0D9
:1007100010B540F22551064800F06DF838B1044894
:1007200000F024F9C4B22146014800F024F910BDBC
:100730000038014021B1828942F40052828104E0F4
:1007400082894DF6FF731A408281704700B585B0EB
:1007500001210420FFF7BAFE01218803FFF7B6FE4E
:100760004FF40070ADF8100018208DF8130003202E
:100770008DF8120004A91748FFF7C1FD4FF48060FF
:10078000ADF8100004208DF8130004A91148FFF7FC
:10079000B6FD4FF4E13000900020ADF80400ADF854
:1007A0000600ADF80800ADF80C000C20ADF80A000A
:1007B0006946094800F06EF8FFF731FE012240F269
:1007C0002551054800F041F801210348FFF7B2FF29
:1007D00005B000BD0008014000380140024600207D
:1007E000B1F5007F00D100BF13880B400BB1012091
:1007F00000E00020704770B5024600240023002569
:10080000002040F66A16B14200D100BFC1F3421584
:1008100001F01F03012606FA03F3012D02D1968988
:10082000334006E0022D02D1168A334001E0968A59
:1008300033400C12012606FA04F41688344013B132
:100840000CB1012000E0002070BDF0B5034600248B
:1008500000260025002040F66A17B94200D100BFEB
:100860001846C1F3421401F01F06012707FA06F5E6
:10087000012C01D10C3004E0022C01D1103000E039
:1008800014301AB107682F43076002E00768AF43CE
:100890000760F0BD2DE9F04786B005460E460024FE
:1008A000A24600BFA1460027B08900B100BF2F4675
:1008B0002C8A4CF6FF700440F08804432C82AC89EB
:1008C0004EF6F3100440B08831890843718908431B
:1008D0000443AC81AC8A4FF6FF400440B089044326
:1008E000AC8201A8FFF702FE1F48874202D1DDF863
:1008F00010A001E0DDF80CA0A88900F4004040B190
:100900000AEBCA0000EB0A1031684900B0FBF1F8AD
:1009100007E00AEBCA0000EB0A1031688900B0FB5F
:10092000F1F86420B8FBF0F004012009642101FB18
:100930001089A88900F4004040B1322000EBC900C2
:10094000B0FBF1F000F00700044308E0322000EBB8
:1009500009106421B0FBF1F000F00F0004432C817A
:1009600006B0BDE8F08700000038014001468888E5
:10097000C0F308007047C1F308028280704700BFCF
:10098000FEE700000FB4054B10B503A9044A029816
:1009900000F018F810BC5DF814FB0000190B0008FB
:1009A0001400002002E008C8121F08C1002AFAD172
:1009B00070477047002001E001C1121F002AFBD1DF
:1009C000704700002DE9FF4F89B09B460446002583
:1009D00006E025280BD05A460B999047641C6D1CE5
:1009E00020780028F5D10DB02846BDE8F08F00270B
:1009F000B8460122474900E0074314F8013F203B75
:100A000002FA03F00842F7D120782E2819D114F801
:100A1000010F47F004072A280ED06FF02F0220782C
:100A2000A0F1300109290CD808EB880102EB410143
:100A300000EB0108641CF2E70A98641C50F8048B70
:100A40000A9020780028CED0642808D0692806D0E3
:100A500075281ED05A460B9990476D1C58E00A998C
:100A60004FF00A0901C90A91002802DA40422D21FB
:100A700002E0390504D52B218DF82010012103E077
:100A8000F90704D02021F7E78A4608AE0DE00021DF
:100A9000FAE70A994FF00A0901C90A91F7E74946AE
:100AA000FFF762FB303106F8011D0028F7D1ADEBEE
:100AB000060000F12009780701D44FF00108C8456D
:100AC00002DDA8EB090000E000208046002706E0D8
:100AD00008A85A46C05D0B9990476D1C7F1C57456E
:100AE000F6DB04E030205A460B9990476D1CB8F1B4
:100AF0000001A8F10108F5DC05E016F8010B5A46E3
:100B00000B9990476D1CB9F10001A9F10109F4DCC2
:100B1000641C65E70928010070B504460D46E1B282
:100B20000548FFF728FF00BF80210348FFF756FE66
:100B30000028F9D0204670BD0038014008B50027D4
:100B4000FFF704FE2DA0FFF71DFFFFF7B9FB3248AA
:100B5000FFF736FB31A0FFF715FF002404E0324811
:100B600040F82440601CC4B20A2CF8DB2A4F2E4DFA
:100B7000002407E038462968FFF76CFB3F1D2D1D58
:100B8000601CC4B20A2CF5DB28A0FFF7FBFEFFF7C0
:100B900057FB214E002406E02749306841F8240025
:100BA000361D601CC4B20A2CF6DB24A0FFF7EAFE57
:100BB00000241EE0204850F8240000901A4850F805
:100BC00024202346214620A0FFF7DCFE164850F8DB
:100BD0002400194951F82410884203D023A0FFF7BC
:100BE000D1FE08E0092C02D124A0FFF7CBFE601C47
:100BF000C4B20A2CDEDB00BF00BFFEE7BBB6D3AD3C
:100C0000CAB9D3C3B1FCBBF053544D3332BFAAB7FA
:100C1000A2B0E50A0A0A0A00002800080D0AB2C1BB
:100C2000B3FDCDEAB3C90000180000200D0AD0B40E
:100C3000C8EBCDEAB3C90000400000200D0AB6C1E0
:100C4000C8A1CDEAB3C900000D0A77726974655B6B
:100C500025645D203D202564202C20726561645B45
:100C600025645D203D202564000000000D0ACAFDBA
:100C7000BEDDD0A3D1E9B2BBB5C800000D0AD0B427
:100C8000C8EBB5C4CAFDBEDDD3EBB6C1C8A1B5C4BF
:100C9000CAFDBEDDCDEAC8ABD2BBD6C200000000A3
:100CA000C00C00080000002018000000A409000883
:100CB000D80C00081800002050040000B4090008F7
:100CC00000000000010203040102030406070809F2
:080CD000020406080000000008
:0400000508000131BD
:00000001FF
