:0300000002009863
:0C009800787FE4F6D8FD75810802002E88
:100084007F107EFFE5875207EF7003FE80035387DE
:03009400EFAF06C5
:010097002246
:10002E00E4FF7508FE43E10543E11043E1201200B1
:10003E0084EF24FF92977F2C7E01120066AF087E1C
:10004E0001EF7801088002C333D8FCF50852907F87
:08005E002C7E0112006680DE19
:10006600D3EF9400EE940040147D647C00ED1D7087
:0D007600011CED4C70F7EF1F70E61E80E3DB
:01008300225A
:03000300020006F2
:0100060032C7
:03000B00020007E9
:0100070032C6
:03001300020008E0
:0100080032C5
:03001B00020009D7
:0100090032C4
:0300230002000ACE
:01000A0032C3
:03002B0002000EC2
:01000E0032BF
:00000001FF
