:020000042000DA
:10000000180401209D01002015050020B1040020E6
:100010001305002087020020610A00200000000074
:10002000000000000000000000000000B1070020F8
:100030008902002000000000B90500206D080020A2
:10004000B7010020B7010020B7010020B701002050
:10005000B7010020B7010020B7010020B701002040
:10006000B7010020B7010020B7010020B701002030
:10007000B7010020B7010020B7010020B701002020
:10008000B7010020B7010020B7010020B701002010
:10009000B7010020B7010020B7010020B701002000
:1000A000B7010020B7010020B7010020B7010020F0
:1000B000B7010020B7010020B7010020B7010020E0
:1000C000B7010020B7010020B7010020B7010020D0
:1000D000B7010020CD080020B7010020B7010020A3
:1000E000B7010020B7010020B7010020B7010020B0
:1000F000B7010020B7010020B7010020B7010020A0
:10010000B7010020B7010020B7010020B70100208F
:10011000B7010020B7010020B7010020B70100207F
:10012000B7010020B7010020B7010020B70100206F
:10013000B7010020B7010020B7010020B70100205F
:10014000B7010020B7010020B7010020B70100204F
:10015000B7010020B7010020B7010020B70100203F
:10016000B7010020B7010020B7010020B70100202F
:10017000B7010020B7010020B7010020B70100201F
:10018000B7010020B7010020DFF80CD000F04AF8DA
:1001900000480047890D00201804012006488047C8
:1001A00006480047FEE7FEE7FEE7FEE7FEE7FEE75C
:1001B000FEE7FEE7FEE7FEE7710800208901002068
:1001C0002DE9F05F0546002092469B46884606468C
:1001D000814640241BE0284641464746224600F01F
:1001E00042F853465A46C01A914110D31146184658
:1001F000224600F029F82D1A67EB01084F462246E7
:100200000120002100F020F817EB00094E41201ECC
:10021000A4F10104DFDC484631462A464346BDE8E6
:10022000F09F0000064C074D06E0E06840F0010337
:1002300094E8070098471034AC42F6D3FFF7A8FFC4
:10024000100E0020300E0020202A04DB203A00FA95
:1002500002F1002070479140C2F1200320FA03F31D
:10026000194390407047202A04DB203A21FA02F01B
:100270000021704721FA02F3D040C2F120029140E0
:10028000084319467047FEE77047000070B586B016
:100290000121084600F092F90121102000F09CF99C
:1002A00000248DF8164001208DF8170002258DF8E6
:1002B00015508DF81450400204901C4E04A930468D
:1002C00000F0A1F88DF814506902049104A9304699
:1002D00000F099F807220A21304600F0D2F80722F0
:1002E0000921304600F0CDF84FF4E1300090ADF830
:1002F0000440ADF80640ADF80840ADF80C400C20C5
:10030000ADF80A000A4C6946204600F043FB00F0B5
:1003100002F9012240F22551204600F020FB012184
:10032000204600F0E9FA06B070BD0000000002406F
:100330000010014009200D490A68D20301D50120AF
:1003400070470A68D20601D5062070470A68D205B0
:1003500001D5022070470A6812F0E00F01D0072093
:10036000704709688907FBD5082070470C3C02409C
:10037000002003490978AA2900D001207047000015
:10038000153C02400348017841F00201017000F081
:1003900029B80000143C02400248016841F0010104
:1003A00001607047143C024010B5044600F01AF892
:1003B000092801D10148047010BD0000153C02401D
:1003C00005480068C00705D0034804490C3801609F
:1003D0000349016070470000143C02403B2A1908A1
:1003E0007F6E5D4C08B509200090FFF7A3FF0090D9
:1003F00002E0FFF79FFF00909DF800000128F8D071
:100400009DF8000008BD2DE9F041002201274FF0C2
:10041000030C07FA02F50B682B40AB422CD106689F
:1004200053000CFA03F4A64306600E79D0F800805E
:100430009E4046EA080606600E79012E01D0022E83
:1004400012D18668A64386604E79D0F808809E4017
:1004500046EA080686604668AE43466045688E797F
:100460009640B6B235434560C568A543C560CC79B2
:100470009C40C3681C43C460521C102AC9D3BDE809
:10048000F08110B54B07DB0E9A40C90800EB8100E4
:10049000016A0F249C40A1430162016A1143016279
:1004A00010BD0246002012690A4200D001207047A8
:1004B000FEE700001CB50121052000F07FF80120B7
:1004C000009000208DF804008DF80700694605486B
:1004D000FFF799FF4FF40050009069460248FFF77C
:1004E00092FF1CBD000002400008024070B50446A7
:1004F0000D4629462046FFF7D4FF012801D00020F1
:1005000070BD29462046FFF7CCFF0128F9D0012015
:1005100070BDFEE7704708B54FF4A06000F042F8E8
:1005200025208DF8000001208DF801008DF80200D3
:100530008DF80300684600F001F808BD30B50F23C0
:10054000C27801250178002A1FD0154A126802F4EA
:10055000E062C2F5E062C2F30722C2F10404D340B4
:100560004278A24084781C401443220101F1E0212A
:1005700081F80024007800F01F018D4040098000C0
:1005800000F1E020C0F8005130BD01F01F008540AF
:100590004809800000F1E020C0F8805130BD000023
:1005A0000CED00E002490843024908607047000072
:1005B0000000FA050CED00E070470000054A002934
:1005C00003D01168014311607047116881431160C5
:1005D0007047000030380240054A002903D01168F6
:1005E000014311607047116881431160704700003A
:1005F0004438024070B5244B196801F00C01234CBB
:1006000000291ED0224E04291DD008291DD00460C7
:10061000196801F0F00109091E4A545C0168E140C3
:1006200041601C6804F4E054A40A145D21FA04F447
:1006300084601B6803F460435B0BD25CD140C160F3
:1006400070BD0460E4E70660E2E70F4A121F11681C
:10065000C1F38055116801F03F0135B1B6FBF1F1EE
:100660001468C4F38814614305E0B4FBF1F1146825
:10067000C4F3881461431268C2F30142521C520051
:10068000B1FBF2F10160C3E7083802400024F40036
:1006900040787D010000012010B5FFF769FEC8B168
:1006A000194800F0DFF9194C01212046FFF71EFF21
:1006B0000128F9D116A000F0D5F9FFF781FEAA2094
:1006C000FFF772FE17A000F0CDF9FFF75BFE0928D7
:1006D00013D015E01EA000F0C5F9FFF771FE5520FC
:1006E000FFF762FEFFF74EFE092802D123A000F0BB
:1006F000B9F9BDE81040FFF74FBE26A000F0B2F9EF
:10070000FFF74AFED0E70000CC0D002000000240B9
:100710000D0ABCB4BDABBDE2B3FDB6C1B1A3BBA471
:10072000000000000D0ABDB5BCB6BBE1B2C1B3FD0F
:10073000D5FBC6ACC4DAB2BF464C415348B5C4C4BD
:10074000DAC8DDA3ACC7EBC4CDD0C4B5C8B4FD00D6
:100750000D0AB5B1C7B0B1A3BBA4BCB6B1F0CEAA67
:100760006C6576656C203020A3ACBCB4BDABC9E829
:10077000D6C3B3C96C6576656C2031000D0AC9E833
:10078000D6C3CEAA6C6576656C203120CDEAB3C99C
:10079000200000000D0ABDE2B3FDB6C1B1A3BBA4A9
:1007A000CDEAB3C9A3ACC7EBB8B4CEBB2000000000
:1007B000704700000CB5002201920092274908689A
:1007C00040F4803008604FF4A043086800F4003023
:1007D00000900198401C0190009810B9019898422F
:1007E000F3D10868800302D50120009000E0009258
:1007F0000098012831D119484030026842F08052F7
:1008000002601748026842F4404202601348083010
:1008100002680260026842F400420260026842F428
:10082000A0520260021F0F4B13600A6842F08072F0
:100830000A600A689201FCD50B4A40F2057111600A
:10084000016821F003010160016841F002010160CB
:100850000168C1F381010229FAD10CBD00380240C0
:100860000070004019544007003C024070470000EF
:1008700010B51248016841F4700101601048016828
:1008800041F0010101600E4A002108321160026846
:100890000C4B1A400260031D0B4A1A60026822F4D6
:1008A0008022026006480C300160FFF783FF034995
:1008B0004FF000508039086010BD000088ED00E066
:1008C00000380240FFFFF6FE1030002410B5094C3E
:1008D00040F22551204600F022F8002808D020469A
:1008E00000F0B6F8C1B22046BDE8104000F0B4B840
:1008F00010BD000000100140002904D0818941F49E
:10090000005181817047818921F4005181817047B4
:100910000246002012880A4200D00120704770B5BC
:10092000002440F66A12C1F3421301F01F050126AC
:1009300006FA05F2012B0CD0022B0DD0838A13404E
:10094000090A8E40008830400BB100B101242046D6
:1009500070BD83891340F3E7038A1340F0E710B5B5
:1009600040F66A13C1F3421301F01F040121A140B4
:10097000012B07D0022B07D014303AB102680A438A
:10098000026010BD0C30F8E71030F6E702688A43C9
:10099000026010BD7FB504460D46208A20F4405108
:1009A000E88808432082A08941F20C618843A98825
:1009B0002A8911436A8902431143A181A08A20F444
:1009C0004071A8890843A0826846FFF713FE1E48BD
:1009D000844202D01D48844201D1039800E002986D
:1009E000A189090408D500EBC00101EB00102968BA
:1009F0004900B0FBF1F007E000EBC00101EB001093
:100A000029688900B0FBF1F06422B0FBF2F1090122
:100A10000B096FF018056B4300EB8300A3891D04DD
:100A20004FF0320307D503EBC000B0FBF2F000F04B
:100A30000700084306E003EB0010B0FBF2F000F003
:100A40000F00084320817FBD0010014000140140C9
:100A50008088C0F308007047C1F3080181807047A7
:100A6000FEE700000FB4054B10B503A9044A029835
:100A700000F018F810BC5DF814FB0000650D0020B4
:100A80001000012002E008C8121F08C1002AFAD194
:100A900070477047002001E001C1121F002AFBD1FE
:100AA000704700002DE9FF4F8DB09B460F4604466E
:100AB000002606E025280BD05A460F999047641C63
:100AC000761C20780028F5D111B03046BDE8F08FB3
:100AD0000025A8460122984900E0054314F8013F8B
:100AE000203B02FA03F00842F7D120782E2817D1D4
:100AF00014F8010F45F004052A280ED06FF02F02DC
:100B00002078A0F1300109290AD808EB880102EB0E
:100B1000410100EB0108641CF2E757F8048B641CE8
:100B200020786C280DD004DC4C2812D06A2811D112
:100B300004E074280DD07A280CD10AE045F40015A1
:100B400007E0617845F48015814202D1641C05F507
:100B50008015641C2278692A45D008DC002AB3D0AD
:100B6000582A69D0632A10D0642A08D13BE0702A41
:100B700067D0732A13D0752A5CD0782A5CD01046CF
:100B80005A460F999047761CD3E017F8040B8DF85E
:100B9000000000208DF80100E946012003E057F82D
:100BA000049B4FF0FF3069074FF0000501D40AE0C5
:100BB0006D1C45450DDA8542FADB19F80510002950
:100BC000F6D106E06D1C8542FCDB19F80510002902
:100BD000F8D12E4404E019F8010B5A460F999047BA
:100BE0006D1EF8D2A5E00A200021CDE90801C5F369
:100BF000025002280DD001CFC117031E71F100036E
:100C00000DDA4FF0000CD0EB0C006CEB01012D2342
:100C100008E0FF1D27F00707F7E80201EDE72B05C5
:100C200004D52B238DF8283001233BE0EB0739D086
:100C30002023F7E70A2000E010200021CDE9080179
:100C400007E01020002145F00405CDE908014FF030
:100C50000808C5F3025002280FD001CF00214FF041
:100C6000000A2B071FD5702A0DD0DDE908C38CF0D0
:100C7000100C5CEA030C0CD015E0FF1D27F00707F1
:100C8000F7E80201EBE740228DF828204FF0010A37
:100C90000BE050EA010306D030238DF828308DF8A0
:100CA000292002239A46582A04D024A20DF12009B3
:100CB0000B9209E026A2F9E7DDE90823FFF780FAA5
:100CC0000B9B9B5C09F8013D50EA0102F4D1ADEBAE
:100CD000090020300890680701D44FF001080899F6
:100CE000884502DDA8EB010000E0002080460025D9
:100CF00006E00AA85A46405D0F9990476D1C761C85
:100D00005545F6DB04E030205A460F999047761C93
:100D1000B8F10001A8F10108F5DC05E019F8010BB4
:100D20005A460F999047761C0899481E089000294A
:100D3000F4DC641CC5E600000928010030313233C0
:100D40003435363738396162636465660000000007
:100D500030313233343536373839414243444546F1
:100D60000000000070B50446064DE1B22846FFF7CA
:100D700073FE80212846FFF7CBFD0028F9D02046DE
:100D800070BD000000100140FFF780FAFFF792FBF2
:100D900004A0FFF767FE09A0FFF764FEFFF77CFCE5
:100DA000FEE700000D0AD5E2CAC7D2BBB8F6B6C14D
:100DB000D0B4B1A3BBA4CAB5D1E90A000D0AB6C12B
:100DC000B1A3BBA4B2E2CAD4000000000D0AB5B1C1
:100DD000C7B0B1A3BBA4BCB6B1F0CEAA6C657665B2
:100DE0006C2031A3ACB0B4CFC26B657931BFC9D22E
:100DF000D4BDE2B3FDB1A3BBA4A3ACBDE2B3FDBAC5
:100E0000F3A3ACB1BEB3CCD0F2BBE1B6AACAA70083
:100E1000300E00200000012014000000840A002091
:100E2000440E00201400012004040000940A002055
:100E30000000000001020304010203040607080980
:040E400000000000AE
:04000005200001894D
:00000001FF
