:0300000002002ECD
:0C002E00787FE4F6D8FD758108020075AB
:10010800EB64017014EB6410700FEF70068C8C8D2B
:100118008A80198C8D8D8B8013BB0210BB200DEF4C
:1001280070068D8A8D8C80048D8B8D8DEB42892293
:10015F00AB07AA06ED700AAF028FCD8FCB8BCC8B7E
:04016F00CA8DC8224B
:10013800EF700AAF8CAD07EDAD8AFC8015BF010AE0
:10014800AF8DAD07EDAD8BFC8008AFCDAD07EDAD44
:06015800CCFCAF05AE0473
:01015E00227E
:08019D00AFCBEFFEADCAEDFF90
:0101A5002237
:0B019200AD07AC06EC42B7ED42B8220E
:0D018500EF70058C8C8D8A228C8D8D8B2265
:100173007B017DFD7C4BE4FF120108D28C43A882F6
:0201830080FEFC
:03000600010800EE
:0300030002000AEE
:01000A0032C3
:03000B000200BA36
:1000BA00C0E0C0F0C083C082C0D075D000C000C00C
:0D00CA0001C002C003C004C005C006C0078D
:1000D7007DFD7C4BE4FF120185E508B414066390AF
:0600E700FF75080005088A
:1000ED00D007D006D005D004D003D002D001D00067
:0B00FD00D0D0D082D083D0F0D0E03211
:0300130002000EDA
:01000E0032BF
:03001B0002000FD1
:01000F0032BE
:03002300020010C8
:0100100032BD
:03002B00020011BF
:0100110032BC
:10003A00020173E493A3F8E493A34003F68001F268
:10004A0008DFF48029E493A3F85407240CC8C333C7
:10005A00C4540F4420C8834004F456800146F6DF96
:10006A00E4800B0102040810204080900006E47E20
:10007A00019360BCA3FF543F30E509541FFEE4938B
:10008A00A360010ECF54C025E060A840B8E493A352
:10009A00FAE493A3F8E493A3C8C582C8CAC583CA7D
:1000AA00F0A3C8C582C8CAC583CADFE9DEE780BE35
:0100090000F6
:00000001FF
