:020000040800F2
:10000000000400209D010008DB0300080D03000828
:10001000D9030008E50100089D0600080000000063
:100020000000000000000000000000008105000842
:10003000E701000800000000DD0300083D0600089D
:10004000B7010008B7010008B7010008B7010008B0
:10005000B7010008B7010008B7010008B7010008A0
:10006000B7010008B7010008B7010008B701000890
:10007000B7010008B7010008B7010008B701000880
:10008000B7010008B7010008B7010008B701000870
:10009000B7010008B7010008B7010008B701000860
:1000A000B7010008B7010008B7010008B701000850
:1000B000B7010008B7010008B7010008B701000840
:1000C000B7010008B7010008B7010008B701000830
:1000D000B7010008B7010008B7010008B701000820
:1000E000B7010008B7010008B7010008B701000810
:1000F000B7010008B7010008B7010008B701000800
:10010000B7010008B7010008B7010008B7010008EF
:10011000B7010008B7010008B7010008B7010008DF
:10012000B7010008B7010008B7010008B7010008CF
:10013000B7010008B7010008B7010008B7010008BF
:10014000B7010008B7010008B7010008B7010008AF
:10015000B7010008B7010008B7010008B70100089F
:10016000B7010008B7010008B7010008B70100088F
:10017000B7010008B7010008B7010008B70100087F
:10018000B7010008B7010008DFF80CD000F018F83C
:1001900000480047BD0600080004002006488047CC
:1001A00006480047FEE7FEE7FEE7FEE7FEE7FEE75C
:1001B000FEE7FEE7FEE7FEE74106000889010008CA
:1001C000064C074D06E0E06840F0010394E80700A4
:1001D00098471034AC42F6D3FFF7DAFF1407000853
:1001E00024070008FEE7704701B502E00098401EB2
:1001F000009000980028F9D108BD2DE9F0410022B7
:1002000001274FF0030C07FA02F50B682B40AB42B5
:100210002CD1066853000CFA03F4A64306600E794D
:10022000D0F800809E4046EA080606600E79012E4E
:1002300001D0022E12D18668A64386604E79D0F88E
:1002400008809E4046EA080686604668AE434660DF
:1002500045688E799640B6B235434560C568A5437A
:10026000C560CC799C40C3681C43C460521C102AF2
:10027000C9D3BDE8F0814183704701837047000016
:10028000F8B505460E4617461C4600F0B7F80120A3
:1002900000F00CF900F05CF901282FD11848016832
:1002A00041F0805101601748016841F4404101600C
:1002B000002000F0F1F84FF4A05000F013F94FF4D3
:1002C000805000F019F93B46324629464FF4800031
:1002D000009400F021F9012000F018F9392000F015
:1002E000B7F80028FAD0084940F2057008600220EB
:1002F00000F024F900F0C8F80828FBD1F8BD000090
:100300004038024000700040003C0240FEE7000020
:100310002DE9FC410121202000F062F840240094E6
:1003200001208DF8040000218DF806108DF80700DB
:100330008DF805100B4F69463846FFF75EFF8026A3
:10034000009669463846FFF758FFA50000956946B4
:100350003846FFF752FF03481830048006800580B6
:10036000BDE8FC81001402401CB50121084600F0E4
:1003700037F84FF48070009002208DF804000020C0
:100380008DF8060001208DF8070003208DF8050088
:1003900069460248FFF731FF1CBD00000000024023
:1003A0001CB50121042000F01BF84FF400700090F0
:1003B00002208DF8040000208DF8060001208DF841
:1003C000070003208DF8050069460248FFF715FF76
:1003D0001CBD000000080240FEE7704770470000A7
:1003E000054A002903D01168014311607047116864
:1003F00081431160704700003038024010480168A6
:1004000041F0010101600E4A0021083211600268CA
:100410000C4B1A400260031D0B4A1A60084B0B4A32
:1004200084331A60084A103A1B1D1A60026822F4CD
:100430008022026002480C300160181D0160704784
:1004400000380240FFFFF6EA1030002400300020A0
:1004500002460020510901290BD002290DD009497B
:10046000096802F01F02012393400B4200D00120D3
:100470007047044974390968F3E70249091F09689C
:10048000EFE70000743802400248006800F00C00FA
:100490007047000008380240034A116821F0F0015B
:1004A00001431160704700000838024002490022F1
:1004B0000A7008707047000002380240034B1A6847
:1004C00022F0EC620843104318607047083802407D
:1004D000034B1A6822F078420843104318607047B3
:1004E00008380240034A116821F4E05101431160C9
:1004F0007047000008380240034A116821F4604147
:1005000041EAC0001060704708380240014908669F
:10051000704700000000474210B5029C41EA82117A
:100520004FF0FF3202EB530241EA0241014341EA3C
:1005300004600149086010BD04380240034A116894
:1005400021F00301014311607047000008380240A8
:1005500018B5002000904FF4A0443120FFF778FF39
:100560000099491C00910099A14201D00028F4D0C3
:100570003120FFF76DFF08B1012018BD002018BD24
:10058000704700000CB500220192009227490868CC
:1005900040F4803008604FF4A043086800F4003055
:1005A00000900198401C0190009810B90198984261
:1005B000F3D10868800302D50120009000E000928A
:1005C0000098012831D119484030026842F0805229
:1005D00002601748026842F4404202601348083043
:1005E00002680260026842F400420260026842F45B
:1005F000A0520260021F0F4B13600A6842F0807223
:100600000A600A689201FCD50B4A40F2057111603C
:10061000016821F003010160016841F002010160FD
:100620000168C1F381010229FAD10CBD00380240F2
:100630000070004019544007003C02407047000021
:1006400010B51248016841F470010160104801685A
:1006500041F0010101600E4A002108321160026878
:100660000C4B1A400260031D0B4A1A60026822F408
:100670008022026006480C300160FFF783FF0349C7
:100680004FF000608039086010BD000088ED00E088
:1006900000380240FFFFF6FE10300024FEE702E0C3
:1006A00008C8121F08C1002AFAD1704770470020FD
:1006B00001E001C1121F002AFBD17047072302226B
:1006C0004FF4A8711920FFF7DBFDFFF721FEFFF7BC
:1006D0004BFEFFF765FE00214FF4C000FFF7EEFE72
:1006E00000210846FFF7F4FE084D094C402128463A
:1006F000FFF7C1FD2046FFF777FD40212846FFF7B1
:10070000BCFD2046FFF770FDF0E70000001402403A
:10071000FFFF0F0024070008000000200004000075
:04072000AE06000819
:040000050800018965
:00000001FF
